{
  "contractName": "ClockAuctionBase",
  "abi": [
    {
      "constant": true,
      "inputs": [],
      "name": "nonFungibleContract",
      "outputs": [
        {
          "name": "",
          "type": "address"
        }
      ],
      "payable": false,
      "stateMutability": "view",
      "type": "function"
    },
    {
      "anonymous": false,
      "inputs": [
        {
          "indexed": false,
          "name": "tokenId",
          "type": "uint256"
        },
        {
          "indexed": false,
          "name": "price",
          "type": "uint256"
        },
        {
          "indexed": false,
          "name": "duration",
          "type": "uint256"
        },
        {
          "indexed": false,
          "name": "styleOwner",
          "type": "address"
        },
        {
          "indexed": false,
          "name": "brokerage",
          "type": "uint256"
        }
      ],
      "name": "AuctionCreated",
      "type": "event"
    },
    {
      "anonymous": false,
      "inputs": [
        {
          "indexed": false,
          "name": "tokenId",
          "type": "uint256"
        },
        {
          "indexed": false,
          "name": "totalPrice",
          "type": "uint256"
        },
        {
          "indexed": false,
          "name": "winner",
          "type": "address"
        },
        {
          "indexed": false,
          "name": "styleOwner",
          "type": "address"
        },
        {
          "indexed": false,
          "name": "brokerage",
          "type": "uint256"
        }
      ],
      "name": "ConfirmAuction",
      "type": "event"
    },
    {
      "anonymous": false,
      "inputs": [
        {
          "indexed": false,
          "name": "tokenId",
          "type": "uint256"
        },
        {
          "indexed": false,
          "name": "newPrice",
          "type": "uint256"
        },
        {
          "indexed": false,
          "name": "bidder",
          "type": "address"
        }
      ],
      "name": "Bid",
      "type": "event"
    },
    {
      "anonymous": false,
      "inputs": [
        {
          "indexed": false,
          "name": "tokenId",
          "type": "uint256"
        },
        {
          "indexed": false,
          "name": "prePrice",
          "type": "uint256"
        },
        {
          "indexed": false,
          "name": "preBidder",
          "type": "address"
        }
      ],
      "name": "PayBack",
      "type": "event"
    },
    {
      "anonymous": false,
      "inputs": [
        {
          "indexed": false,
          "name": "tokenId",
          "type": "uint256"
        },
        {
          "indexed": false,
          "name": "price",
          "type": "uint256"
        },
        {
          "indexed": false,
          "name": "buyer",
          "type": "address"
        }
      ],
      "name": "WantoToBuy",
      "type": "event"
    },
    {
      "anonymous": false,
      "inputs": [
        {
          "indexed": false,
          "name": "tokenId",
          "type": "uint256"
        },
        {
          "indexed": false,
          "name": "price",
          "type": "uint256"
        },
        {
          "indexed": false,
          "name": "buyer",
          "type": "address"
        },
        {
          "indexed": false,
          "name": "styleOwner",
          "type": "address"
        },
        {
          "indexed": false,
          "name": "brokerage",
          "type": "uint256"
        }
      ],
      "name": "Buy",
      "type": "event"
    },
    {
      "anonymous": false,
      "inputs": [
        {
          "indexed": false,
          "name": "tokenId",
          "type": "uint256"
        },
        {
          "indexed": false,
          "name": "expNumber",
          "type": "uint256"
        }
      ],
      "name": "SetExpNumber",
      "type": "event"
    },
    {
      "anonymous": false,
      "inputs": [
        {
          "indexed": false,
          "name": "tokenId",
          "type": "uint256"
        }
      ],
      "name": "AuctionCancelled",
      "type": "event"
    }
  ],
  "bytecode": "0x6060604052341561000f57600080fd5b60e78061001d6000396000f300606060405260043610603f576000357c0100000000000000000000000000000000000000000000000000000000900463ffffffff168063dd1b7a0f146044575b600080fd5b3415604e57600080fd5b60546096565b604051808273ffffffffffffffffffffffffffffffffffffffff1673ffffffffffffffffffffffffffffffffffffffff16815260200191505060405180910390f35b6000809054906101000a900473ffffffffffffffffffffffffffffffffffffffff16815600a165627a7a723058200e1bfe1e5b573b6fef1c383db62718cc4ce67391f9a81b23cca627ad8c7c52320029",
  "source": "/// @title Auction Core\n/// @dev Contains models, variables, and internal methods for the auction.\n/// @notice We omit a fallback function to prevent accidental sends to this contract.\n\npragma solidity ^0.4.16;\n\nimport \"./ERC721.sol\";\n\ncontract ClockAuctionBase {\n\n    // Represents an auction on an NFT\n    struct Auction {\n        // Current owner of NFT\n        address seller;\n        uint128 auctionType;\n\n        // current price set by the bidder\n        uint128 price;\n        address bidder;\n\n        // pay money when dealling to platform\n        // Values 0-10,000 map to 0%-100%\n        uint128 commission;\n\n        // the fee to the 3rd party which providing the specific style picture or style\n        // Values 0-10,000 map to 0%-100%\n        uint128 brokerage;\n        address styleOwner;\n\n        // Duration (in seconds) of auction\n        uint64 duration;\n        // Time when auction started\n        // NOTE: 0 if this auction has been concluded\n        uint64 startedAt;\n\n        bool isGoods;\n        uint128 expNumber;\n    }\n\n    // Reference to contract tracking NFT ownership\n    ERC721 public nonFungibleContract;\n\n    // Map from token ID to their corresponding auction.\n    mapping (uint256 => Auction) tokenIdToAuction;\n\n    event AuctionCreated(uint256 tokenId, uint256 price, uint256 duration, address styleOwner, uint256 brokerage);\n    event ConfirmAuction(uint256 tokenId, uint256 totalPrice, address winner, address styleOwner, uint256 brokerage);\n    event Bid(uint256 tokenId, uint256 newPrice, address bidder);\n    event PayBack(uint256 tokenId, uint256 prePrice, address preBidder);\n    event WantoToBuy(uint256 tokenId, uint256 price, address buyer);\n    event Buy(uint256 tokenId, uint256 price, address buyer, address styleOwner, uint256 brokerage);\n    event SetExpNumber(uint256 tokenId, uint256 expNumber);\n    event AuctionCancelled(uint256 tokenId);\n\n    /// @dev Returns true if the claimant owns the token.\n    /// @param _claimant - Address claiming to own the token.\n    /// @param _tokenId - ID of token whose ownership to verify.\n    function _owns(address _claimant, uint256 _tokenId) internal view returns (bool) {\n        return (nonFungibleContract.ownerOf(_tokenId) == _claimant);\n    }\n\n    /// @dev Escrows the NFT, assigning ownership to this contract.\n    /// Throws if the escrow fails.\n    /// @param _owner - Current owner address of token to escrow.\n    /// @param _tokenId - ID of token whose approval to verify.\n    function _escrow(address _owner, uint256 _tokenId) internal {\n        // it will throw if transfer fails\n        nonFungibleContract.transferFrom(_owner, this, _tokenId);\n    }\n\n    /// @dev Transfers an NFT owned by this contract to another address.\n    /// Returns true if the transfer succeeds.\n    /// @param _receiver - Address to transfer NFT to.\n    /// @param _tokenId - ID of token to transfer.\n    function _transfer(address _receiver, uint256 _tokenId) internal {\n        // it will throw if transfer fails\n        nonFungibleContract.transfer(_receiver, _tokenId);\n    }\n\n    function _isGoods(uint256 _tokenId) internal view returns(bool) {\n        Auction auction;\n        tokenIdToAuction[_tokenId] = auction;\n        return auction.isGoods;\n    }\n\n    function _getExpNumber(uint256 _tokenId) internal view returns(uint256) {\n        Auction auction;\n        tokenIdToAuction[_tokenId] = auction;\n        return auction.expNumber;\n    }\n\n    function _setExpNumber(uint256 _tokenId, uint256 _expNumber) internal {\n        Auction auction;\n        tokenIdToAuction[_tokenId] = auction;\n        require(auction.isGoods);\n        auction.expNumber = uint128(_expNumber);\n\n        // tell the world the express number\n        SetExpNumber(_tokenId, _expNumber);\n    }\n\n    /// @dev Adds an auction to the list of open auctions. Also fires the\n    ///  AuctionCreated event.\n    /// @param _tokenId The ID of the token to be put on auction.\n    /// @param _auction Auction to add.\n    function _addAuction(uint256 _tokenId, Auction _auction) internal {\n        // Require that all auctions have a duration of\n        // at least one minute. (Keeps our math from getting hairy!)\n        require(_auction.duration >= 1 minutes);\n\n        tokenIdToAuction[_tokenId] = _auction;\n\n        AuctionCreated(\n            uint256(_tokenId),\n            uint256(_auction.price),\n            uint256(_auction.duration),\n            _auction.styleOwner,\n            uint256(_auction.brokerage)\n        );\n    }\n\n    /// @dev Cancels an auction unconditionally.\n    function _cancelAuction(uint256 _tokenId) internal {\n        Auction storage auction = tokenIdToAuction[_tokenId];\n        address seller = auction.seller;\n        address bidder = auction.bidder;\n        uint128 price = auction.price;\n        _removeAuction(_tokenId);\n        _transfer(seller, _tokenId);\n        if (bidder != address(0)) {\n            bidder.transfer(price);\n        }\n        AuctionCancelled(_tokenId);\n    }\n\n    function _buyItNow(uint256 _tokenId) internal returns(uint256) {\n        // Get a reference to the auction struct\n        Auction storage auction = tokenIdToAuction[_tokenId];\n\n        // Explicitly check that this auction is currently live.\n        // (Because of how Ethereum mappings work, we can't just count\n        // on the lookup above failing. An invalid _tokenId will just\n        // return an auction object that is all zeros.)\n        require(_isOnAuction(auction));\n        require(auction.bidder == address(0));   // only one buyer is allow to buy this token\n        auction.bidder = msg.sender;             // change the bidder for this token\n\n        // Check that the bid is greater than or equal to the current price\n        uint128 price = _currentPrice(auction);\n\n        // Tell the world!\n        WantoToBuy(_tokenId, price, msg.sender);\n\n        return price;\n    }\n\n    function _confirmBuy(uint256 _tokenId) internal returns(uint256) {\n        // Get a reference to the auction struct\n        Auction storage auction = tokenIdToAuction[_tokenId];\n\n        // Explicitly check that this auction is currently live.\n        // (Because of how Ethereum mappings work, we can't just count\n        // on the lookup above failing. An invalid _tokenId will just\n        // return an auction object that is all zeros.)\n        require(_isOnAuction(auction));\n        require(auction.bidder == msg.sender);    // only the buyer can confirm the deal\n\n        // Check that the bid is greater than or equal to the current price\n        uint128 price = _currentPrice(auction);\n\n        uint128 commission = auction.commission;\n        require(commission <= 10000);\n\n        // Grab a reference to the seller before the auction struct\n        // gets deleted.\n        address seller = auction.seller;\n\n        // pay money to the style owner\n        address styleOwner = auction.styleOwner;\n        uint128 brokerage = auction.brokerage;\n        require(brokerage <= 10000);\n\n\n        // The bid is good! Remove the auction before sending the fees\n        // to the sender so we can't have a reentrancy attack.\n        _removeAuction(_tokenId);\n\n        // Transfer proceeds to seller and style owner if have\n        if (price > 0) {\n            _doPayment(seller, price, commission, brokerage, styleOwner);\n        }\n\n        // Tell the world!\n        Buy(_tokenId, price, msg.sender, styleOwner, brokerage);\n\n        return price;\n    }\n\n    /// @dev Replace the bidder and new price and transfer the money to the pre-bidder back.\n    /// Does NOT transfer ownership of token.\n    function _bid(uint256 _tokenId, uint256 _bidAmount)\n        internal\n        returns (uint256)\n    {\n        // Get a reference to the auction struct\n        Auction storage auction = tokenIdToAuction[_tokenId];\n        require(_bidAmount == uint256(uint128(_bidAmount)));\n\n        // Explicitly check that this auction is currently live.\n        // (Because of how Ethereum mappings work, we can't just count\n        // on the lookup above failing. An invalid _tokenId will just\n        // return an auction object that is all zeros.)\n        require(_isOnAuction(auction));\n\n        // Check that the bid is greater than the current price\n        uint128 prePrice = _currentPrice(auction);\n\n        address preBidder = auction.bidder;\n        require(preBidder != msg.sender);\n\n        // Transfer proceeds to seller and style owner if have\n        if (_bidAmount > prePrice) {\n            auction.bidder = msg.sender;\n            auction.price = uint128(_bidAmount);\n\n            if (prePrice > 0 && preBidder != address(0))\n            {\n                preBidder.transfer(prePrice);\n                PayBack(_tokenId, prePrice, preBidder);\n            }\n        }\n\n        // Tell the world the new bidder and the price\n        Bid(_tokenId, _bidAmount, msg.sender);\n\n        return _bidAmount;\n    }\n\n    function _confirmBid(uint256 _tokenId) internal returns(uint256) {\n        // Get a reference to the auction struct\n        Auction storage auction = tokenIdToAuction[_tokenId];\n\n        // Explicitly check that this auction is currently live.\n        // (Because of how Ethereum mappings work, we can't just count\n        // on the lookup above failing. An invalid _tokenId will just\n        // return an auction object that is all zeros.)\n        //require(_isOnAuction(auction));\n        require(_isAuctionFinished(auction));\n\n        // Check that the bid is greater than or equal to the current price\n        uint128 price = _currentPrice(auction);\n        address bidder = auction.bidder;\n        // has bidder to pay the price for the token\n        require(bidder != 0);\n\n        uint128 commission = auction.commission;\n        require(commission <= 10000);\n\n        // Grab a reference to the seller before the auction struct\n        // gets deleted.\n        address seller = auction.seller;\n\n        // pay money to the style owner\n        address styleOwner = auction.styleOwner;\n        uint128 brokerage = auction.brokerage;\n        require(brokerage <= 10000);\n\n        // The bid is good! Remove the auction before sending the fees\n        // to the sender so we can't have a reentrancy attack.\n        _removeAuction(_tokenId);\n\n        // Transfer proceeds to seller and style owner if have\n        if (price > 0) {\n            _doPayment(seller, price, commission, brokerage, styleOwner);\n        }\n\n        // Tell the world!\n        ConfirmAuction(_tokenId, price, msg.sender, styleOwner, brokerage);\n\n        return price;\n    }\n\n    /// @dev Removes an auction from the list of open auctions.\n    /// @param _tokenId - ID of NFT on auction.\n    function _removeAuction(uint256 _tokenId) internal {\n        delete tokenIdToAuction[_tokenId];\n    }\n\n    /// @dev Returns true if the NFT is on auction.\n    /// @param _auction - Auction to check.\n    function _isOnAuction(Auction storage _auction) internal view returns (bool) {\n        return (_auction.startedAt > 0 && uint64(now) < _auction.startedAt + _auction.duration);\n    }\n\n    function _isAuctionFinished(Auction storage _auction) internal view returns(bool) {\n        return (uint64(now) >= _auction.startedAt + _auction.duration);\n    }\n\n    function _isActiveAuction(Auction storage _auction) internal view returns(bool) {\n        return (_auction.startedAt > 0);\n    }\n\n    function _doPayment(address seller, uint128 _totalPrice, uint128 _commission, uint128 _brokerage, address _styleOwner) internal {\n        // the cut includes the fee to platform and to 3rd party style owner\n        uint256 auctioneerCut = _totalPrice - _totalPrice * _commission / 10000 - _totalPrice * _brokerage / 10000;\n\n        // NOTE: Doing a transfer() in the middle of a complex\n        // method like this is generally discouraged because of\n        // reentrancy attacks and DoS attacks if the seller is\n        // a contract with an invalid fallback function. We explicitly\n        // guard against reentrancy attacks by removing the auction\n        // before calling transfer(), and the only thing the seller\n        // can DoS is the sale of their own asset! (And if it's an\n        // accident, they can call cancelAuction(). )\n        seller.transfer(auctioneerCut);\n\n        // do transfer to style owner\n        if (_brokerage > 0) {\n            uint256 fee2StyleOwner = _brokerage * _totalPrice / 10000;\n            _styleOwner.transfer(fee2StyleOwner);\n        }\n    }\n\n    /// @dev Returns current price of an NFT on auction. Broken into two\n    ///  functions (this one, that computes the duration from the auction\n    ///  structure, and the other that does the price computation) so we\n    ///  can easily test that the price computation works correctly.\n    function _currentPrice(Auction storage _auction)\n        internal\n        view\n        returns (uint128)\n    {\n        return _auction.price;\n    }\n}\n",
  "sourcePath": "/Users/blockchain/work/code/elforce/Auction/client/contracts/ClockAuctionBase.sol",
  "compiler": {
    "name": "solc",
    "version": "0.4.18+commit.9cf6e910.Emscripten.clang"
  },
  "schemaVersion": "1.0.1",
  "updatedAt": "2018-05-16T05:41:57.377Z"
}