{
  "contractName": "ClockAuction",
  "abi": [
    {
      "constant": false,
      "inputs": [],
      "name": "unpause",
      "outputs": [
        {
          "name": "",
          "type": "bool"
        }
      ],
      "payable": false,
      "stateMutability": "nonpayable",
      "type": "function"
    },
    {
      "constant": false,
      "inputs": [
        {
          "name": "_tokenId",
          "type": "uint256"
        }
      ],
      "name": "bid",
      "outputs": [],
      "payable": true,
      "stateMutability": "payable",
      "type": "function"
    },
    {
      "constant": true,
      "inputs": [],
      "name": "paused",
      "outputs": [
        {
          "name": "",
          "type": "bool"
        }
      ],
      "payable": false,
      "stateMutability": "view",
      "type": "function"
    },
    {
      "constant": false,
      "inputs": [],
      "name": "withdrawBalance",
      "outputs": [],
      "payable": false,
      "stateMutability": "nonpayable",
      "type": "function"
    },
    {
      "constant": false,
      "inputs": [
        {
          "name": "_tokenId",
          "type": "uint256"
        },
        {
          "name": "_auctionType",
          "type": "uint256"
        },
        {
          "name": "_price",
          "type": "uint256"
        },
        {
          "name": "_commission",
          "type": "uint256"
        },
        {
          "name": "_brokerage",
          "type": "uint256"
        },
        {
          "name": "_styleOwner",
          "type": "address"
        },
        {
          "name": "_duration",
          "type": "uint256"
        },
        {
          "name": "_seller",
          "type": "address"
        }
      ],
      "name": "createAuction",
      "outputs": [],
      "payable": false,
      "stateMutability": "nonpayable",
      "type": "function"
    },
    {
      "constant": true,
      "inputs": [
        {
          "name": "_tokenId",
          "type": "uint256"
        }
      ],
      "name": "getAuction",
      "outputs": [
        {
          "name": "seller",
          "type": "address"
        },
        {
          "name": "auctionType",
          "type": "uint256"
        },
        {
          "name": "price",
          "type": "uint256"
        },
        {
          "name": "bidder",
          "type": "address"
        },
        {
          "name": "commission",
          "type": "uint256"
        },
        {
          "name": "brokerage",
          "type": "uint256"
        },
        {
          "name": "styleOwner",
          "type": "address"
        },
        {
          "name": "duration",
          "type": "uint256"
        },
        {
          "name": "startedAt",
          "type": "uint256"
        }
      ],
      "payable": false,
      "stateMutability": "view",
      "type": "function"
    },
    {
      "constant": false,
      "inputs": [
        {
          "name": "_tokenId",
          "type": "uint256"
        }
      ],
      "name": "buyItNow",
      "outputs": [],
      "payable": true,
      "stateMutability": "payable",
      "type": "function"
    },
    {
      "constant": false,
      "inputs": [],
      "name": "pause",
      "outputs": [
        {
          "name": "",
          "type": "bool"
        }
      ],
      "payable": false,
      "stateMutability": "nonpayable",
      "type": "function"
    },
    {
      "constant": false,
      "inputs": [
        {
          "name": "_tokenId",
          "type": "uint256"
        }
      ],
      "name": "cancelAuctionWhenPaused",
      "outputs": [],
      "payable": false,
      "stateMutability": "nonpayable",
      "type": "function"
    },
    {
      "constant": false,
      "inputs": [
        {
          "name": "_tokenId",
          "type": "uint256"
        }
      ],
      "name": "confirmBid",
      "outputs": [],
      "payable": true,
      "stateMutability": "payable",
      "type": "function"
    },
    {
      "constant": true,
      "inputs": [],
      "name": "owner",
      "outputs": [
        {
          "name": "",
          "type": "address"
        }
      ],
      "payable": false,
      "stateMutability": "view",
      "type": "function"
    },
    {
      "constant": false,
      "inputs": [
        {
          "name": "_tokenId",
          "type": "uint256"
        }
      ],
      "name": "cancelAuctionFromSeller",
      "outputs": [],
      "payable": false,
      "stateMutability": "nonpayable",
      "type": "function"
    },
    {
      "constant": true,
      "inputs": [
        {
          "name": "_tokenId",
          "type": "uint256"
        }
      ],
      "name": "getCurrentPrice",
      "outputs": [
        {
          "name": "",
          "type": "uint256"
        }
      ],
      "payable": false,
      "stateMutability": "view",
      "type": "function"
    },
    {
      "constant": false,
      "inputs": [
        {
          "name": "_tokenId",
          "type": "uint256"
        }
      ],
      "name": "cancelAuctionFromBidder",
      "outputs": [],
      "payable": false,
      "stateMutability": "nonpayable",
      "type": "function"
    },
    {
      "constant": true,
      "inputs": [],
      "name": "nonFungibleContract",
      "outputs": [
        {
          "name": "",
          "type": "address"
        }
      ],
      "payable": false,
      "stateMutability": "view",
      "type": "function"
    },
    {
      "constant": false,
      "inputs": [
        {
          "name": "newOwner",
          "type": "address"
        }
      ],
      "name": "transferOwnership",
      "outputs": [],
      "payable": false,
      "stateMutability": "nonpayable",
      "type": "function"
    },
    {
      "inputs": [
        {
          "name": "_nftAddress",
          "type": "address"
        }
      ],
      "payable": false,
      "stateMutability": "nonpayable",
      "type": "constructor"
    },
    {
      "anonymous": false,
      "inputs": [
        {
          "indexed": false,
          "name": "tokenId",
          "type": "uint256"
        },
        {
          "indexed": false,
          "name": "price",
          "type": "uint256"
        },
        {
          "indexed": false,
          "name": "duration",
          "type": "uint256"
        },
        {
          "indexed": false,
          "name": "styleOwner",
          "type": "address"
        },
        {
          "indexed": false,
          "name": "brokerage",
          "type": "uint256"
        }
      ],
      "name": "AuctionCreated",
      "type": "event"
    },
    {
      "anonymous": false,
      "inputs": [
        {
          "indexed": false,
          "name": "tokenId",
          "type": "uint256"
        },
        {
          "indexed": false,
          "name": "totalPrice",
          "type": "uint256"
        },
        {
          "indexed": false,
          "name": "winner",
          "type": "address"
        },
        {
          "indexed": false,
          "name": "styleOwner",
          "type": "address"
        },
        {
          "indexed": false,
          "name": "brokerage",
          "type": "uint256"
        }
      ],
      "name": "ConfirmAuction",
      "type": "event"
    },
    {
      "anonymous": false,
      "inputs": [
        {
          "indexed": false,
          "name": "tokenId",
          "type": "uint256"
        },
        {
          "indexed": false,
          "name": "newPrice",
          "type": "uint256"
        },
        {
          "indexed": false,
          "name": "bidder",
          "type": "address"
        }
      ],
      "name": "Bid",
      "type": "event"
    },
    {
      "anonymous": false,
      "inputs": [
        {
          "indexed": false,
          "name": "tokenId",
          "type": "uint256"
        },
        {
          "indexed": false,
          "name": "prePrice",
          "type": "uint256"
        },
        {
          "indexed": false,
          "name": "preBidder",
          "type": "address"
        }
      ],
      "name": "PayBack",
      "type": "event"
    },
    {
      "anonymous": false,
      "inputs": [
        {
          "indexed": false,
          "name": "tokenId",
          "type": "uint256"
        },
        {
          "indexed": false,
          "name": "price",
          "type": "uint256"
        },
        {
          "indexed": false,
          "name": "buyer",
          "type": "address"
        },
        {
          "indexed": false,
          "name": "styleOwner",
          "type": "address"
        },
        {
          "indexed": false,
          "name": "brokerage",
          "type": "uint256"
        }
      ],
      "name": "Buy",
      "type": "event"
    },
    {
      "anonymous": false,
      "inputs": [
        {
          "indexed": false,
          "name": "tokenId",
          "type": "uint256"
        }
      ],
      "name": "AuctionCancelled",
      "type": "event"
    },
    {
      "anonymous": false,
      "inputs": [],
      "name": "Pause",
      "type": "event"
    },
    {
      "anonymous": false,
      "inputs": [],
      "name": "Unpause",
      "type": "event"
    }
  ],
  "bytecode": "0x606060405260008060146101000a81548160ff021916908315150217905550341561002957600080fd5b6040516020806124fd833981016040528080519060200190919050506000336000806101000a81548173ffffffffffffffffffffffffffffffffffffffff021916908373ffffffffffffffffffffffffffffffffffffffff1602179055508190508073ffffffffffffffffffffffffffffffffffffffff166301ffc9a7639a20483d7c0100000000000000000000000000000000000000000000000000000000026000604051602001526040518263ffffffff167c010000000000000000000000000000000000000000000000000000000002815260040180827bffffffffffffffffffffffffffffffffffffffffffffffffffffffff19167bffffffffffffffffffffffffffffffffffffffffffffffffffffffff19168152602001915050602060405180830381600087803b151561016257600080fd5b6102c65a03f1151561017357600080fd5b50505060405180519050151561018857600080fd5b80600160006101000a81548173ffffffffffffffffffffffffffffffffffffffff021916908373ffffffffffffffffffffffffffffffffffffffff1602179055505050612323806101da6000396000f3006060604052600436106100e6576000357c0100000000000000000000000000000000000000000000000000000000900463ffffffff1680633f4ba83a146100eb578063454a2ab3146101185780635c975abb146101305780635fd8c7101461015d5780636c3f80881461017257806378bd7935146102005780637f9082d0146102f35780638456cb591461030b578063878eb368146103385780638c488d301461035b5780638da5cb5b14610373578063b945e379146103c8578063c55d0f56146103eb578063c9abbf0714610422578063dd1b7a0f14610445578063f2fde38b1461049a575b600080fd5b34156100f657600080fd5b6100fe6104d3565b604051808215151515815260200191505060405180910390f35b61012e6004808035906020019091905050610598565b005b341561013b57600080fd5b6101436105c2565b604051808215151515815260200191505060405180910390f35b341561016857600080fd5b6101706105d5565b005b341561017d57600080fd5b6101fe600480803590602001909190803590602001909190803590602001909190803590602001909190803590602001909190803573ffffffffffffffffffffffffffffffffffffffff1690602001909190803590602001909190803573ffffffffffffffffffffffffffffffffffffffff169060200190919050506106e7565b005b341561020b57600080fd5b610221600480803590602001909190505061087b565b604051808a73ffffffffffffffffffffffffffffffffffffffff1673ffffffffffffffffffffffffffffffffffffffff1681526020018981526020018881526020018773ffffffffffffffffffffffffffffffffffffffff1673ffffffffffffffffffffffffffffffffffffffff1681526020018681526020018581526020018473ffffffffffffffffffffffffffffffffffffffff1673ffffffffffffffffffffffffffffffffffffffff168152602001838152602001828152602001995050505050505050505060405180910390f35b6103096004808035906020019091905050610a66565b005b341561031657600080fd5b61031e610a99565b604051808215151515815260200191505060405180910390f35b341561034357600080fd5b6103596004808035906020019091905050610b60565b005b6103716004808035906020019091905050610c0d565b005b341561037e57600080fd5b610386610c40565b604051808273ffffffffffffffffffffffffffffffffffffffff1673ffffffffffffffffffffffffffffffffffffffff16815260200191505060405180910390f35b34156103d357600080fd5b6103e96004808035906020019091905050610c65565b005b34156103f657600080fd5b61040c6004808035906020019091905050610d5a565b6040518082815260200191505060405180910390f35b341561042d57600080fd5b6104436004808035906020019091905050610da9565b005b341561045057600080fd5b610458610e3f565b604051808273ffffffffffffffffffffffffffffffffffffffff1673ffffffffffffffffffffffffffffffffffffffff16815260200191505060405180910390f35b34156104a557600080fd5b6104d1600480803573ffffffffffffffffffffffffffffffffffffffff16906020019091905050610e65565b005b60008060009054906101000a900473ffffffffffffffffffffffffffffffffffffffff1673ffffffffffffffffffffffffffffffffffffffff163373ffffffffffffffffffffffffffffffffffffffff1614151561053057600080fd5b600060149054906101000a900460ff16151561054b57600080fd5b60008060146101000a81548160ff0219169083151502179055507f7805862f689e2f13df9f062ff482ad3ad112aca9e0847911ed832e158c525b3360405160405180910390a16001905090565b600060149054906101000a900460ff161515156105b457600080fd5b6105be8134610f3a565b5050565b600060149054906101000a900460ff1681565b6000600160009054906101000a900473ffffffffffffffffffffffffffffffffffffffff1690506000809054906101000a900473ffffffffffffffffffffffffffffffffffffffff1673ffffffffffffffffffffffffffffffffffffffff163373ffffffffffffffffffffffffffffffffffffffff16148061068257508073ffffffffffffffffffffffffffffffffffffffff163373ffffffffffffffffffffffffffffffffffffffff16145b151561068d57600080fd5b8073ffffffffffffffffffffffffffffffffffffffff166108fc3073ffffffffffffffffffffffffffffffffffffffff16319081150290604051600060405180830381858888f1935050505015156106e457600080fd5b50565b6106ef61220c565b600060149054906101000a900460ff1615151561070b57600080fd5b866fffffffffffffffffffffffffffffffff168714151561072b57600080fd5b612710861115151561073c57600080fd5b612710851115151561074d57600080fd5b8267ffffffffffffffff168314151561076557600080fd5b61076f338a61123a565b151561077a57600080fd5b610784338a611326565b610120604051908101604052808373ffffffffffffffffffffffffffffffffffffffff168152602001896fffffffffffffffffffffffffffffffff168152602001886fffffffffffffffffffffffffffffffff168152602001600073ffffffffffffffffffffffffffffffffffffffff168152602001876fffffffffffffffffffffffffffffffff168152602001866fffffffffffffffffffffffffffffffff1681526020018573ffffffffffffffffffffffffffffffffffffffff1681526020018467ffffffffffffffff1681526020014267ffffffffffffffff1681525090506108708982611436565b505050505050505050565b600080600080600080600080600080600260008c815260200190815260200160002090506108a881611760565b15156108b357600080fd5b8060000160009054906101000a900473ffffffffffffffffffffffffffffffffffffffff168160010160009054906101000a90046fffffffffffffffffffffffffffffffff168260010160109054906101000a90046fffffffffffffffffffffffffffffffff168360020160009054906101000a900473ffffffffffffffffffffffffffffffffffffffff168460030160009054906101000a90046fffffffffffffffffffffffffffffffff168560030160109054906101000a90046fffffffffffffffffffffffffffffffff168660040160009054906101000a900473ffffffffffffffffffffffffffffffffffffffff168760040160149054906101000a900467ffffffffffffffff168860050160009054906101000a900467ffffffffffffffff16876fffffffffffffffffffffffffffffffff169750866fffffffffffffffffffffffffffffffff169650846fffffffffffffffffffffffffffffffff169450836fffffffffffffffffffffffffffffffff1693508167ffffffffffffffff1691508067ffffffffffffffff169050995099509950995099509950995099509950509193959799909294969850565b600060149054906101000a900460ff16151515610a8257600080fd5b610a8b8161178e565b50610a9633826119cc565b50565b60008060009054906101000a900473ffffffffffffffffffffffffffffffffffffffff1673ffffffffffffffffffffffffffffffffffffffff163373ffffffffffffffffffffffffffffffffffffffff16141515610af657600080fd5b600060149054906101000a900460ff16151515610b1257600080fd5b6001600060146101000a81548160ff0219169083151502179055507f6985a02210a168e66602d3235cb6db0e70f92b3ba4d376a33c0f3d9434bff62560405160405180910390a16001905090565b60008060149054906101000a900460ff161515610b7c57600080fd5b6000809054906101000a900473ffffffffffffffffffffffffffffffffffffffff1673ffffffffffffffffffffffffffffffffffffffff163373ffffffffffffffffffffffffffffffffffffffff16141515610bd757600080fd5b600260008381526020019081526020016000209050610bf581611760565b1515610c0057600080fd5b610c0982611aa8565b5050565b600060149054906101000a900460ff16151515610c2957600080fd5b610c3281611c0e565b50610c3d33826119cc565b50565b6000809054906101000a900473ffffffffffffffffffffffffffffffffffffffff1681565b6000600260008381526020019081526020016000209050610c8581611e9b565b1515610c9057600080fd5b600073ffffffffffffffffffffffffffffffffffffffff168160020160009054906101000a900473ffffffffffffffffffffffffffffffffffffffff1673ffffffffffffffffffffffffffffffffffffffff16141515610cef57600080fd5b8060000160009054906101000a900473ffffffffffffffffffffffffffffffffffffffff1673ffffffffffffffffffffffffffffffffffffffff163373ffffffffffffffffffffffffffffffffffffffff16141515610d4d57600080fd5b610d5682611aa8565b5050565b600080600260008481526020019081526020016000209050610d7b81611760565b1515610d8657600080fd5b610d8f81611f1a565b6fffffffffffffffffffffffffffffffff16915050919050565b6000600260008381526020019081526020016000209050610dc981611f44565b1515610dd457600080fd5b3373ffffffffffffffffffffffffffffffffffffffff168160020160009054906101000a900473ffffffffffffffffffffffffffffffffffffffff1673ffffffffffffffffffffffffffffffffffffffff16141515610e3257600080fd5b610e3b82611aa8565b5050565b600160009054906101000a900473ffffffffffffffffffffffffffffffffffffffff1681565b6000809054906101000a900473ffffffffffffffffffffffffffffffffffffffff1673ffffffffffffffffffffffffffffffffffffffff163373ffffffffffffffffffffffffffffffffffffffff16141515610ec057600080fd5b600073ffffffffffffffffffffffffffffffffffffffff168173ffffffffffffffffffffffffffffffffffffffff16141515610f3757806000806101000a81548173ffffffffffffffffffffffffffffffffffffffff021916908373ffffffffffffffffffffffffffffffffffffffff1602179055505b50565b600080600080600260008781526020019081526020016000209250846fffffffffffffffffffffffffffffffff1685141515610f7557600080fd5b610f7e83611e9b565b1515610f8957600080fd5b610f9283611f1a565b91508260020160009054906101000a900473ffffffffffffffffffffffffffffffffffffffff1690503373ffffffffffffffffffffffffffffffffffffffff168173ffffffffffffffffffffffffffffffffffffffff1614151515610ff657600080fd5b816fffffffffffffffffffffffffffffffff168511156111bb57338360020160006101000a81548173ffffffffffffffffffffffffffffffffffffffff021916908373ffffffffffffffffffffffffffffffffffffffff160217905550848360010160106101000a8154816fffffffffffffffffffffffffffffffff02191690836fffffffffffffffffffffffffffffffff1602179055506000826fffffffffffffffffffffffffffffffff161180156110dd5750600073ffffffffffffffffffffffffffffffffffffffff168173ffffffffffffffffffffffffffffffffffffffff1614155b156111ba578073ffffffffffffffffffffffffffffffffffffffff166108fc836fffffffffffffffffffffffffffffffff169081150290604051600060405180830381858888f19350505050151561113457600080fd5b7f82adba23b9949d9e0e482a84776f715ea037078dcce4ab84c37b0a37601403cd86838360405180848152602001836fffffffffffffffffffffffffffffffff1681526020018273ffffffffffffffffffffffffffffffffffffffff1673ffffffffffffffffffffffffffffffffffffffff168152602001935050505060405180910390a15b5b7ffd7cfbd219ff1e7365436fb2930a026fa6704a1e0bb39ad104f0485c8c01124d868633604051808481526020018381526020018273ffffffffffffffffffffffffffffffffffffffff1673ffffffffffffffffffffffffffffffffffffffff168152602001935050505060405180910390a184935050505092915050565b60008273ffffffffffffffffffffffffffffffffffffffff16600160009054906101000a900473ffffffffffffffffffffffffffffffffffffffff1673ffffffffffffffffffffffffffffffffffffffff16636352211e846000604051602001526040518263ffffffff167c010000000000000000000000000000000000000000000000000000000002815260040180828152602001915050602060405180830381600087803b15156112ec57600080fd5b6102c65a03f115156112fd57600080fd5b5050506040518051905073ffffffffffffffffffffffffffffffffffffffff1614905092915050565b600160009054906101000a900473ffffffffffffffffffffffffffffffffffffffff1673ffffffffffffffffffffffffffffffffffffffff166323b872dd8330846040518463ffffffff167c0100000000000000000000000000000000000000000000000000000000028152600401808473ffffffffffffffffffffffffffffffffffffffff1673ffffffffffffffffffffffffffffffffffffffff1681526020018373ffffffffffffffffffffffffffffffffffffffff1673ffffffffffffffffffffffffffffffffffffffff1681526020018281526020019350505050600060405180830381600087803b151561141e57600080fd5b6102c65a03f1151561142f57600080fd5b5050505050565b603c8160e0015167ffffffffffffffff161015151561145457600080fd5b806002600084815260200190815260200160002060008201518160000160006101000a81548173ffffffffffffffffffffffffffffffffffffffff021916908373ffffffffffffffffffffffffffffffffffffffff16021790555060208201518160010160006101000a8154816fffffffffffffffffffffffffffffffff02191690836fffffffffffffffffffffffffffffffff16021790555060408201518160010160106101000a8154816fffffffffffffffffffffffffffffffff02191690836fffffffffffffffffffffffffffffffff16021790555060608201518160020160006101000a81548173ffffffffffffffffffffffffffffffffffffffff021916908373ffffffffffffffffffffffffffffffffffffffff16021790555060808201518160030160006101000a8154816fffffffffffffffffffffffffffffffff02191690836fffffffffffffffffffffffffffffffff16021790555060a08201518160030160106101000a8154816fffffffffffffffffffffffffffffffff02191690836fffffffffffffffffffffffffffffffff16021790555060c08201518160040160006101000a81548173ffffffffffffffffffffffffffffffffffffffff021916908373ffffffffffffffffffffffffffffffffffffffff16021790555060e08201518160040160146101000a81548167ffffffffffffffff021916908367ffffffffffffffff1602179055506101008201518160050160006101000a81548167ffffffffffffffff021916908367ffffffffffffffff1602179055509050507f1c415e83c44e69f6b0970296ea95abb97828b02dad15de7e59f68a40a522395f8282604001516fffffffffffffffffffffffffffffffff168360e0015167ffffffffffffffff168460c001518560a001516fffffffffffffffffffffffffffffffff16604051808681526020018581526020018481526020018373ffffffffffffffffffffffffffffffffffffffff1673ffffffffffffffffffffffffffffffffffffffff1681526020018281526020019550505050505060405180910390a15050565b6000808260050160009054906101000a900467ffffffffffffffff1667ffffffffffffffff16119050919050565b60008060008060008060006002600089815260200190815260200160002095506117b786611e9b565b15156117c257600080fd5b6117cb86611f1a565b94508560030160009054906101000a90046fffffffffffffffffffffffffffffffff169350612710846fffffffffffffffffffffffffffffffff161115151561181357600080fd5b8560000160009054906101000a900473ffffffffffffffffffffffffffffffffffffffff1692508560040160009054906101000a900473ffffffffffffffffffffffffffffffffffffffff1691508560030160109054906101000a90046fffffffffffffffffffffffffffffffff169050612710816fffffffffffffffffffffffffffffffff16111515156118a757600080fd5b6118b088611f97565b6000856fffffffffffffffffffffffffffffffff1611156118d9576118d883868684866120e7565b5b7ff7af8fb316f3a41b7db460c51be9f487d7f75844a791ee49f15d5a00063ed263888633858560405180868152602001856fffffffffffffffffffffffffffffffff1681526020018473ffffffffffffffffffffffffffffffffffffffff1673ffffffffffffffffffffffffffffffffffffffff1681526020018373ffffffffffffffffffffffffffffffffffffffff1673ffffffffffffffffffffffffffffffffffffffff168152602001826fffffffffffffffffffffffffffffffff1681526020019550505050505060405180910390a1846fffffffffffffffffffffffffffffffff169650505050505050919050565b600160009054906101000a900473ffffffffffffffffffffffffffffffffffffffff1673ffffffffffffffffffffffffffffffffffffffff1663a9059cbb83836040518363ffffffff167c0100000000000000000000000000000000000000000000000000000000028152600401808373ffffffffffffffffffffffffffffffffffffffff1673ffffffffffffffffffffffffffffffffffffffff16815260200182815260200192505050600060405180830381600087803b1515611a9057600080fd5b6102c65a03f11515611aa157600080fd5b5050505050565b6000806000806002600086815260200190815260200160002093508360000160009054906101000a900473ffffffffffffffffffffffffffffffffffffffff1692508360020160009054906101000a900473ffffffffffffffffffffffffffffffffffffffff1691508360010160109054906101000a90046fffffffffffffffffffffffffffffffff169050611b3d85611f97565b611b4783866119cc565b600073ffffffffffffffffffffffffffffffffffffffff168273ffffffffffffffffffffffffffffffffffffffff16141515611bd0578173ffffffffffffffffffffffffffffffffffffffff166108fc826fffffffffffffffffffffffffffffffff169081150290604051600060405180830381858888f193505050501515611bcf57600080fd5b5b7f2809c7e17bf978fbc7194c0a694b638c4215e9140cacc6c38ca36010b45697df856040518082815260200191505060405180910390a15050505050565b600080600080600080600080600260008a81526020019081526020016000209650611c3887611f44565b1515611c4357600080fd5b611c4c87611f1a565b95508660020160009054906101000a900473ffffffffffffffffffffffffffffffffffffffff16945060008573ffffffffffffffffffffffffffffffffffffffff1614151515611c9b57600080fd5b8660030160009054906101000a90046fffffffffffffffffffffffffffffffff169350612710846fffffffffffffffffffffffffffffffff1611151515611ce157600080fd5b8660000160009054906101000a900473ffffffffffffffffffffffffffffffffffffffff1692508660040160009054906101000a900473ffffffffffffffffffffffffffffffffffffffff1691508660030160109054906101000a90046fffffffffffffffffffffffffffffffff169050612710816fffffffffffffffffffffffffffffffff1611151515611d7557600080fd5b611d7e89611f97565b6000866fffffffffffffffffffffffffffffffff161115611da757611da683878684866120e7565b5b7f949be35ba9096107ac1a249ef88612e20fb540a33183d99d5a5536dc764cf4b5898733858560405180868152602001856fffffffffffffffffffffffffffffffff1681526020018473ffffffffffffffffffffffffffffffffffffffff1673ffffffffffffffffffffffffffffffffffffffff1681526020018373ffffffffffffffffffffffffffffffffffffffff1673ffffffffffffffffffffffffffffffffffffffff168152602001826fffffffffffffffffffffffffffffffff1681526020019550505050505060405180910390a1856fffffffffffffffffffffffffffffffff16975050505050505050919050565b6000808260050160009054906101000a900467ffffffffffffffff1667ffffffffffffffff16118015611f1357508160040160149054906101000a900467ffffffffffffffff168260050160009054906101000a900467ffffffffffffffff160167ffffffffffffffff164267ffffffffffffffff16105b9050919050565b60008160010160109054906101000a90046fffffffffffffffffffffffffffffffff169050919050565b60008160040160149054906101000a900467ffffffffffffffff168260050160009054906101000a900467ffffffffffffffff160167ffffffffffffffff164267ffffffffffffffff1610159050919050565b60026000828152602001908152602001600020600080820160006101000a81549073ffffffffffffffffffffffffffffffffffffffff02191690556001820160006101000a8154906fffffffffffffffffffffffffffffffff02191690556001820160106101000a8154906fffffffffffffffffffffffffffffffff02191690556002820160006101000a81549073ffffffffffffffffffffffffffffffffffffffff02191690556003820160006101000a8154906fffffffffffffffffffffffffffffffff02191690556003820160106101000a8154906fffffffffffffffffffffffffffffffff02191690556004820160006101000a81549073ffffffffffffffffffffffffffffffffffffffff02191690556004820160146101000a81549067ffffffffffffffff02191690556005820160006101000a81549067ffffffffffffffff0219169055505050565b6000806127108487026fffffffffffffffffffffffffffffffff1681151561210b57fe5b046127108688026fffffffffffffffffffffffffffffffff1681151561212d57fe5b048703036fffffffffffffffffffffffffffffffff1691508673ffffffffffffffffffffffffffffffffffffffff166108fc839081150290604051600060405180830381858888f19350505050506000846fffffffffffffffffffffffffffffffff161115612203576127108685026fffffffffffffffffffffffffffffffff168115156121b757fe5b046fffffffffffffffffffffffffffffffff1690508273ffffffffffffffffffffffffffffffffffffffff166108fc829081150290604051600060405180830381858888f19350505050505b50505050505050565b61012060405190810160405280600073ffffffffffffffffffffffffffffffffffffffff16815260200160006fffffffffffffffffffffffffffffffff16815260200160006fffffffffffffffffffffffffffffffff168152602001600073ffffffffffffffffffffffffffffffffffffffff16815260200160006fffffffffffffffffffffffffffffffff16815260200160006fffffffffffffffffffffffffffffffff168152602001600073ffffffffffffffffffffffffffffffffffffffff168152602001600067ffffffffffffffff168152602001600067ffffffffffffffff16815250905600a165627a7a72305820809b4ea460ed830c2e1ddb25cc064bf2e6b38f6bced23f7d665b42ef5d28bacc0029",
  "source": "/// @title Clock auction for non-fungible tokens.\n/// @notice We omit a fallback function to prevent accidental sends to this contract.\npragma solidity ^0.4.16;\n\nimport \"./Pausable.sol\";\nimport \"./ClockAuctionBase.sol\";\n\ncontract ClockAuction is Pausable, ClockAuctionBase {\n\n    /// @dev The ERC-165 interface signature for ERC-721.\n    ///  Ref: https://github.com/ethereum/EIPs/issues/165\n    ///  Ref: https://github.com/ethereum/EIPs/issues/721\n    bytes4 constant InterfaceSignature_ERC721 = bytes4(0x9a20483d);\n\n    /// @dev Constructor creates a reference to the NFT ownership contract\n    ///  and verifies the owner cut is in the valid range.\n    /// @param _nftAddress - address of a deployed contract implementing\n    ///  the Nonfungible Interface.\n    function ClockAuction(address _nftAddress) public {\n\n        ERC721 candidateContract = ERC721(_nftAddress);\n        require(candidateContract.supportsInterface(InterfaceSignature_ERC721));\n        nonFungibleContract = candidateContract;\n    }\n\n    /// @dev Remove all Ether from the contract, which is the owner's cuts\n    ///  as well as any Ether sent directly to the contract address.\n    ///  Always transfers to the NFT contract, but can be called either by\n    ///  the owner or the NFT contract.\n    function withdrawBalance() external {\n        address nftAddress = address(nonFungibleContract);\n\n        require(\n            msg.sender == owner ||\n            msg.sender == nftAddress\n        );\n        // We are using this boolean method to make sure that even if one fails it will still work\n        nftAddress.transfer(this.balance);\n    }\n\n    /// @dev Creates and begins a new auction.\n    /// @param _tokenId - ID of token to auction, sender must be owner.\n    /// @param _price - Price of item (in wei) at beginning of auction.\n    /// @param _duration - Length of time to move between starting\n    ///  price and ending price (in seconds).\n    /// @param _seller - Seller, if not the message sender\n    function createAuction(\n        uint256 _tokenId,\n        uint256 _auctionType,\n        uint256 _price,\n        uint256 _commission,\n        uint256 _brokerage,\n        address _styleOwner,\n        uint256 _duration,\n        address _seller\n    )\n        external\n        whenNotPaused\n    {\n        // Sanity check that no inputs overflow how many bits we've allocated\n        // to store them in the auction struct.\n        require(_price == uint256(uint128(_price)));\n        require(_commission <= 10000);\n        require(_brokerage <= 10000);\n        require(_duration == uint256(uint64(_duration)));\n\n        require(_owns(msg.sender, _tokenId));\n        _escrow(msg.sender, _tokenId);\n        Auction memory auction = Auction(\n            _seller,\n            uint128(_auctionType),\n            uint128(_price),\n            address(0),\n            uint128(_commission),\n            uint128(_brokerage),\n            _styleOwner,\n            uint64(_duration),\n            uint64(now)\n        );\n        _addAuction(_tokenId, auction);\n    }\n\n    /// @dev Bids on an open auction, completing the auction and transferring\n    ///  ownership of the NFT if enough Ether is supplied.\n    /// @param _tokenId - ID of token to bid on.\n    function confirmBid(uint256 _tokenId)\n        external\n        payable\n        whenNotPaused\n    {\n        // _bid will throw if the bid or funds transfer fails\n        _confirmBid(_tokenId);\n\n        // transfer token ownership\n        _transfer(msg.sender, _tokenId);\n    }\n\n    /// @dev Bids on an open auction, completing the auction and transferring\n    ///  ownership of the NFT if enough Ether is supplied.\n    /// @param _tokenId - ID of token to bid on.\n    function bid(uint256 _tokenId)\n        external\n        payable\n        whenNotPaused\n    {\n        // _bid will throw if the bid or funds transfer fails\n        _bid(_tokenId, msg.value);\n    }\n\n    /// @dev Bids on an open auction, completing the auction and transferring\n    ///  ownership of the NFT if enough Ether is supplied.\n    /// @param _tokenId - ID of token to bid on.\n    function buyItNow(uint256 _tokenId)\n        external\n        payable\n        whenNotPaused\n    {\n        // _buyItNow will throw if the buy or funds transfer fails\n        _buyItNow(_tokenId);\n\n        // transfer token ownership\n        _transfer(msg.sender, _tokenId);\n    }\n\n    /// @dev Cancels an auction that hasn't been won yet.\n    ///  Returns the NFT to original owner.\n    /// @notice This is a state-modifying function that can\n    ///  be called while the contract is paused.\n    /// @param _tokenId - ID of token on auction\n    function cancelAuctionFromSeller(uint256 _tokenId)\n        external\n    {\n        Auction storage auction = tokenIdToAuction[_tokenId];\n        require(_isOnAuction(auction));\n        require(auction.bidder == address(0));\n        require(msg.sender == auction.seller);\n        _cancelAuction(_tokenId);\n    }\n\n    function cancelAuctionFromBidder(uint256 _tokenId)\n        external\n    {\n        Auction storage auction = tokenIdToAuction[_tokenId];\n        require(_isAuctionFinished(auction));\n        require(auction.bidder == msg.sender);  // **** it's not allowed to cancel once there is bidder ****\n        _cancelAuction(_tokenId);\n    }\n\n    /// @dev Cancels an auction when the contract is paused.\n    ///  Only the owner may do this, and NFTs are returned to\n    ///  the seller. This should only be used in emergencies.\n    /// @param _tokenId - ID of the NFT on auction to cancel.\n    function cancelAuctionWhenPaused(uint256 _tokenId)\n        whenPaused\n        onlyOwner\n        external\n    {\n        Auction storage auction = tokenIdToAuction[_tokenId];\n        require(_isActiveAuction(auction));\n        _cancelAuction(_tokenId);\n    }\n\n    /// @dev Returns auction info for an NFT on auction.\n    /// @param _tokenId - ID of NFT on auction.\n    function getAuction(uint256 _tokenId)\n        external\n        view\n        returns\n    (\n        address seller,\n        uint256 auctionType,\n        uint256 price,\n        address bidder,\n        uint256 commission,\n        uint256 brokerage,\n        address styleOwner,\n        uint256 duration,\n        uint256 startedAt\n    ) {\n        Auction storage auction = tokenIdToAuction[_tokenId];\n        require(_isActiveAuction(auction));\n        return (\n            auction.seller,\n            auction.auctionType,\n            auction.price,\n            auction.bidder,\n            auction.commission,\n            auction.brokerage,\n            auction.styleOwner,\n            auction.duration,\n            auction.startedAt\n        );\n    }\n\n    /// @dev Returns the current price of an auction.\n    /// @param _tokenId - ID of the token price we are checking.\n    function getCurrentPrice(uint256 _tokenId)\n        external\n        view\n        returns (uint256)\n    {\n        Auction storage auction = tokenIdToAuction[_tokenId];\n        require(_isActiveAuction(auction));\n        return _currentPrice(auction);\n    }\n}\n",
  "sourcePath": "/Users/blockchain/work/code/elforce/Auction/client/contracts/ClockAuction.sol",
  "compiler": {
    "name": "solc",
    "version": "0.4.18+commit.9cf6e910.Emscripten.clang"
  },
  "schemaVersion": "1.0.1",
  "updatedAt": "2018-05-08T14:03:01.347Z"
}