{
  "contractName": "ConvertLib",
  "abi": [
    {
      "constant": true,
      "inputs": [
        {
          "name": "amount",
          "type": "uint256"
        },
        {
          "name": "conversionRate",
          "type": "uint256"
        }
      ],
      "name": "convert",
      "outputs": [
        {
          "name": "convertedAmount",
          "type": "uint256"
        }
      ],
      "payable": false,
      "stateMutability": "pure",
      "type": "function"
    }
  ],
  "bytecode": "0x6060604052341561000f57600080fd5b60b08061001d6000396000f300606060405260043610603f576000357c0100000000000000000000000000000000000000000000000000000000900463ffffffff16806396e4ee3d146044575b600080fd5b606160048080359060200190919080359060200190919050506077565b6040518082815260200191505060405180910390f35b60008183029050929150505600a165627a7a723058204ce2decf984973b2f4b87967d972f0c79b46d8dc509773edd2e20a661a87c79d0029",
  "source": "pragma solidity ^0.4.2;\n\nlibrary ConvertLib {\n\tfunction convert(uint amount,uint conversionRate) public pure returns (uint convertedAmount) { \n\t\treturn amount * conversionRate; \n\t}\n}\n",
  "sourcePath": "/Users/blockchain/work/code/elforce/Auction/client/contracts/ConvertLib.sol",
  "compiler": {
    "name": "solc",
    "version": "0.4.18+commit.9cf6e910.Emscripten.clang"
  },
  "schemaVersion": "1.0.1",
  "updatedAt": "2018-05-16T03:44:07.350Z"
}