{
  "contractName": "PictureAuction",
  "abi": [
    {
      "constant": true,
      "inputs": [
        {
          "name": "_interfaceID",
          "type": "bytes4"
        }
      ],
      "name": "supportsInterface",
      "outputs": [
        {
          "name": "",
          "type": "bool"
        }
      ],
      "payable": false,
      "stateMutability": "view",
      "type": "function"
    },
    {
      "constant": true,
      "inputs": [],
      "name": "cfoAddress",
      "outputs": [
        {
          "name": "",
          "type": "address"
        }
      ],
      "payable": false,
      "stateMutability": "view",
      "type": "function"
    },
    {
      "constant": true,
      "inputs": [
        {
          "name": "_tokenId",
          "type": "uint256"
        },
        {
          "name": "_preferredTransport",
          "type": "string"
        }
      ],
      "name": "tokenMetadata",
      "outputs": [
        {
          "name": "infoUrl",
          "type": "string"
        }
      ],
      "payable": false,
      "stateMutability": "view",
      "type": "function"
    },
    {
      "constant": true,
      "inputs": [],
      "name": "name",
      "outputs": [
        {
          "name": "",
          "type": "string"
        }
      ],
      "payable": false,
      "stateMutability": "view",
      "type": "function"
    },
    {
      "constant": false,
      "inputs": [
        {
          "name": "_to",
          "type": "address"
        },
        {
          "name": "_tokenId",
          "type": "uint256"
        }
      ],
      "name": "approve",
      "outputs": [],
      "payable": false,
      "stateMutability": "nonpayable",
      "type": "function"
    },
    {
      "constant": true,
      "inputs": [],
      "name": "ceoAddress",
      "outputs": [
        {
          "name": "",
          "type": "address"
        }
      ],
      "payable": false,
      "stateMutability": "view",
      "type": "function"
    },
    {
      "constant": true,
      "inputs": [],
      "name": "totalSupply",
      "outputs": [
        {
          "name": "",
          "type": "uint256"
        }
      ],
      "payable": false,
      "stateMutability": "view",
      "type": "function"
    },
    {
      "constant": false,
      "inputs": [
        {
          "name": "_pictureId",
          "type": "uint256"
        },
        {
          "name": "_auctionType",
          "type": "uint256"
        },
        {
          "name": "_Price",
          "type": "uint256"
        },
        {
          "name": "_commission",
          "type": "uint256"
        },
        {
          "name": "_brokerage",
          "type": "uint256"
        },
        {
          "name": "_styleOwner",
          "type": "address"
        },
        {
          "name": "_duration",
          "type": "uint256"
        }
      ],
      "name": "createSaleAuction",
      "outputs": [],
      "payable": false,
      "stateMutability": "nonpayable",
      "type": "function"
    },
    {
      "constant": false,
      "inputs": [
        {
          "name": "_from",
          "type": "address"
        },
        {
          "name": "_to",
          "type": "address"
        },
        {
          "name": "_tokenId",
          "type": "uint256"
        }
      ],
      "name": "transferFrom",
      "outputs": [],
      "payable": false,
      "stateMutability": "nonpayable",
      "type": "function"
    },
    {
      "constant": false,
      "inputs": [
        {
          "name": "_newCEO",
          "type": "address"
        }
      ],
      "name": "setCEO",
      "outputs": [],
      "payable": false,
      "stateMutability": "nonpayable",
      "type": "function"
    },
    {
      "constant": false,
      "inputs": [
        {
          "name": "_newCOO",
          "type": "address"
        }
      ],
      "name": "setCOO",
      "outputs": [],
      "payable": false,
      "stateMutability": "nonpayable",
      "type": "function"
    },
    {
      "constant": false,
      "inputs": [],
      "name": "unpause",
      "outputs": [],
      "payable": false,
      "stateMutability": "nonpayable",
      "type": "function"
    },
    {
      "constant": true,
      "inputs": [
        {
          "name": "",
          "type": "uint256"
        }
      ],
      "name": "pictureIndexToApproved",
      "outputs": [
        {
          "name": "",
          "type": "address"
        }
      ],
      "payable": false,
      "stateMutability": "view",
      "type": "function"
    },
    {
      "constant": true,
      "inputs": [
        {
          "name": "",
          "type": "uint256"
        }
      ],
      "name": "pictureIndexToOwner",
      "outputs": [
        {
          "name": "",
          "type": "address"
        }
      ],
      "payable": false,
      "stateMutability": "view",
      "type": "function"
    },
    {
      "constant": false,
      "inputs": [
        {
          "name": "_newCFO",
          "type": "address"
        }
      ],
      "name": "setCFO",
      "outputs": [],
      "payable": false,
      "stateMutability": "nonpayable",
      "type": "function"
    },
    {
      "constant": false,
      "inputs": [
        {
          "name": "secs",
          "type": "uint256"
        }
      ],
      "name": "setSecondsPerBlock",
      "outputs": [],
      "payable": false,
      "stateMutability": "nonpayable",
      "type": "function"
    },
    {
      "constant": true,
      "inputs": [],
      "name": "paused",
      "outputs": [
        {
          "name": "",
          "type": "bool"
        }
      ],
      "payable": false,
      "stateMutability": "view",
      "type": "function"
    },
    {
      "constant": true,
      "inputs": [
        {
          "name": "_tokenId",
          "type": "uint256"
        }
      ],
      "name": "ownerOf",
      "outputs": [
        {
          "name": "owner",
          "type": "address"
        }
      ],
      "payable": false,
      "stateMutability": "view",
      "type": "function"
    },
    {
      "constant": false,
      "inputs": [
        {
          "name": "_address",
          "type": "address"
        }
      ],
      "name": "setSaleAuctionAddress",
      "outputs": [],
      "payable": false,
      "stateMutability": "nonpayable",
      "type": "function"
    },
    {
      "constant": true,
      "inputs": [
        {
          "name": "_owner",
          "type": "address"
        }
      ],
      "name": "balanceOf",
      "outputs": [
        {
          "name": "count",
          "type": "uint256"
        }
      ],
      "payable": false,
      "stateMutability": "view",
      "type": "function"
    },
    {
      "constant": true,
      "inputs": [],
      "name": "secondsPerBlock",
      "outputs": [
        {
          "name": "",
          "type": "uint256"
        }
      ],
      "payable": false,
      "stateMutability": "view",
      "type": "function"
    },
    {
      "constant": false,
      "inputs": [],
      "name": "pause",
      "outputs": [],
      "payable": false,
      "stateMutability": "nonpayable",
      "type": "function"
    },
    {
      "constant": true,
      "inputs": [
        {
          "name": "_owner",
          "type": "address"
        }
      ],
      "name": "tokensOfOwner",
      "outputs": [
        {
          "name": "ownerTokens",
          "type": "uint256[]"
        }
      ],
      "payable": false,
      "stateMutability": "view",
      "type": "function"
    },
    {
      "constant": true,
      "inputs": [],
      "name": "symbol",
      "outputs": [
        {
          "name": "",
          "type": "string"
        }
      ],
      "payable": false,
      "stateMutability": "view",
      "type": "function"
    },
    {
      "constant": false,
      "inputs": [
        {
          "name": "_to",
          "type": "address"
        },
        {
          "name": "_tokenId",
          "type": "uint256"
        }
      ],
      "name": "transfer",
      "outputs": [],
      "payable": false,
      "stateMutability": "nonpayable",
      "type": "function"
    },
    {
      "constant": true,
      "inputs": [],
      "name": "cooAddress",
      "outputs": [
        {
          "name": "",
          "type": "address"
        }
      ],
      "payable": false,
      "stateMutability": "view",
      "type": "function"
    },
    {
      "constant": true,
      "inputs": [],
      "name": "erc721Metadata",
      "outputs": [
        {
          "name": "",
          "type": "address"
        }
      ],
      "payable": false,
      "stateMutability": "view",
      "type": "function"
    },
    {
      "constant": true,
      "inputs": [
        {
          "name": "",
          "type": "address"
        }
      ],
      "name": "ownershipTokenCount",
      "outputs": [
        {
          "name": "",
          "type": "uint256"
        }
      ],
      "payable": false,
      "stateMutability": "view",
      "type": "function"
    },
    {
      "constant": false,
      "inputs": [
        {
          "name": "_contractAddress",
          "type": "address"
        }
      ],
      "name": "setMetadataAddress",
      "outputs": [],
      "payable": false,
      "stateMutability": "nonpayable",
      "type": "function"
    },
    {
      "constant": true,
      "inputs": [],
      "name": "saleAuction",
      "outputs": [
        {
          "name": "",
          "type": "address"
        }
      ],
      "payable": false,
      "stateMutability": "view",
      "type": "function"
    },
    {
      "anonymous": false,
      "inputs": [
        {
          "indexed": false,
          "name": "from",
          "type": "address"
        },
        {
          "indexed": false,
          "name": "to",
          "type": "address"
        },
        {
          "indexed": false,
          "name": "tokenId",
          "type": "uint256"
        }
      ],
      "name": "Transfer",
      "type": "event"
    },
    {
      "anonymous": false,
      "inputs": [
        {
          "indexed": false,
          "name": "owner",
          "type": "address"
        },
        {
          "indexed": false,
          "name": "approved",
          "type": "address"
        },
        {
          "indexed": false,
          "name": "tokenId",
          "type": "uint256"
        }
      ],
      "name": "Approval",
      "type": "event"
    },
    {
      "anonymous": false,
      "inputs": [
        {
          "indexed": false,
          "name": "owner",
          "type": "address"
        },
        {
          "indexed": false,
          "name": "hashValue",
          "type": "string"
        },
        {
          "indexed": false,
          "name": "styleHash",
          "type": "string"
        },
        {
          "indexed": false,
          "name": "styleOwner",
          "type": "address"
        }
      ],
      "name": "CreatePictureWithStyle",
      "type": "event"
    },
    {
      "anonymous": false,
      "inputs": [
        {
          "indexed": false,
          "name": "owner",
          "type": "address"
        },
        {
          "indexed": false,
          "name": "hashValue",
          "type": "string"
        },
        {
          "indexed": false,
          "name": "styleOwner",
          "type": "address"
        }
      ],
      "name": "CreatePictureWithArtist",
      "type": "event"
    },
    {
      "anonymous": false,
      "inputs": [
        {
          "indexed": false,
          "name": "newContract",
          "type": "address"
        }
      ],
      "name": "ContractUpgrade",
      "type": "event"
    }
  ],
  "bytecode": "0x60606040526000600260146101000a81548160ff021916908315150217905550600f600355341561002f57600080fd5b61232a8061003e6000396000f300606060405260043610610180576000357c0100000000000000000000000000000000000000000000000000000000900463ffffffff16806301ffc9a7146101855780630519ce79146101df5780630560ff441461023457806306fdde03146102e4578063095ea7b3146103725780630a0f8168146103b457806318160ddd146104095780631ff410a91461043257806323b872dd146104a157806327d7874c146105025780632ba73c151461053b5780633f4ba83a1461057457806347854d0f14610589578063487a6fde146105ec5780634e0a33791461064f5780635663896e146106885780635c975abb146106ab5780636352211e146106d85780636fbde40d1461073b57806370a08231146107745780637a7d4937146107c15780638456cb59146107ea5780638462151c146107ff57806395d89b411461088d578063a9059cbb1461091b578063b047fb501461095d578063bc4006f5146109b2578063cec21acb14610a07578063e17b25af14610a54578063e6cbe35114610a8d575b600080fd5b341561019057600080fd5b6101c560048080357bffffffffffffffffffffffffffffffffffffffffffffffffffffffff1916906020019091905050610ae2565b604051808215151515815260200191505060405180910390f35b34156101ea57600080fd5b6101f2610df3565b604051808273ffffffffffffffffffffffffffffffffffffffff1673ffffffffffffffffffffffffffffffffffffffff16815260200191505060405180910390f35b341561023f57600080fd5b61026960048080359060200190919080359060200190820180359060200191909192905050610e19565b6040518080602001828103825283818151815260200191508051906020019080838360005b838110156102a957808201518184015260208101905061028e565b50505050905090810190601f1680156102d65780820380516001836020036101000a031916815260200191505b509250505060405180910390f35b34156102ef57600080fd5b6102f7610f84565b6040518080602001828103825283818151815260200191508051906020019080838360005b8381101561033757808201518184015260208101905061031c565b50505050905090810190601f1680156103645780820380516001836020036101000a031916815260200191505b509250505060405180910390f35b341561037d57600080fd5b6103b2600480803573ffffffffffffffffffffffffffffffffffffffff16906020019091908035906020019091905050610fbd565b005b34156103bf57600080fd5b6103c761109b565b604051808273ffffffffffffffffffffffffffffffffffffffff1673ffffffffffffffffffffffffffffffffffffffff16815260200191505060405180910390f35b341561041457600080fd5b61041c6110c0565b6040518082815260200191505060405180910390f35b341561043d57600080fd5b61049f600480803590602001909190803590602001909190803590602001909190803590602001909190803590602001909190803573ffffffffffffffffffffffffffffffffffffffff169060200190919080359060200190919050506110d0565b005b34156104ac57600080fd5b610500600480803573ffffffffffffffffffffffffffffffffffffffff1690602001909190803573ffffffffffffffffffffffffffffffffffffffff1690602001909190803590602001909190505061126a565b005b341561050d57600080fd5b610539600480803573ffffffffffffffffffffffffffffffffffffffff16906020019091905050611337565b005b341561054657600080fd5b610572600480803573ffffffffffffffffffffffffffffffffffffffff16906020019091905050611411565b005b341561057f57600080fd5b6105876114ec565b005b341561059457600080fd5b6105aa600480803590602001909190505061157f565b604051808273ffffffffffffffffffffffffffffffffffffffff1673ffffffffffffffffffffffffffffffffffffffff16815260200191505060405180910390f35b34156105f757600080fd5b61060d60048080359060200190919050506115b2565b604051808273ffffffffffffffffffffffffffffffffffffffff1673ffffffffffffffffffffffffffffffffffffffff16815260200191505060405180910390f35b341561065a57600080fd5b610686600480803573ffffffffffffffffffffffffffffffffffffffff169060200190919050506115e5565b005b341561069357600080fd5b6106a960048080359060200190919050506116c0565b005b34156106b657600080fd5b6106be6117d5565b604051808215151515815260200191505060405180910390f35b34156106e357600080fd5b6106f960048080359060200190919050506117e8565b604051808273ffffffffffffffffffffffffffffffffffffffff1673ffffffffffffffffffffffffffffffffffffffff16815260200191505060405180910390f35b341561074657600080fd5b610772600480803573ffffffffffffffffffffffffffffffffffffffff16906020019091905050611861565b005b341561077f57600080fd5b6107ab600480803573ffffffffffffffffffffffffffffffffffffffff16906020019091905050611998565b6040518082815260200191505060405180910390f35b34156107cc57600080fd5b6107d46119e1565b6040518082815260200191505060405180910390f35b34156107f557600080fd5b6107fd6119e7565b005b341561080a57600080fd5b610836600480803573ffffffffffffffffffffffffffffffffffffffff16906020019091905050611b2b565b6040518080602001828103825283818151815260200191508051906020019060200280838360005b8381101561087957808201518184015260208101905061085e565b505050509050019250505060405180910390f35b341561089857600080fd5b6108a0611c62565b6040518080602001828103825283818151815260200191508051906020019080838360005b838110156108e05780820151818401526020810190506108c5565b50505050905090810190601f16801561090d5780820380516001836020036101000a031916815260200191505b509250505060405180910390f35b341561092657600080fd5b61095b600480803573ffffffffffffffffffffffffffffffffffffffff16906020019091908035906020019091905050611c9b565b005b341561096857600080fd5b610970611daf565b604051808273ffffffffffffffffffffffffffffffffffffffff1673ffffffffffffffffffffffffffffffffffffffff16815260200191505060405180910390f35b34156109bd57600080fd5b6109c5611dd5565b604051808273ffffffffffffffffffffffffffffffffffffffff1673ffffffffffffffffffffffffffffffffffffffff16815260200191505060405180910390f35b3415610a1257600080fd5b610a3e600480803573ffffffffffffffffffffffffffffffffffffffff16906020019091905050611dfb565b6040518082815260200191505060405180910390f35b3415610a5f57600080fd5b610a8b600480803573ffffffffffffffffffffffffffffffffffffffff16906020019091905050611e13565b005b3415610a9857600080fd5b610aa0611eb2565b604051808273ffffffffffffffffffffffffffffffffffffffff1673ffffffffffffffffffffffffffffffffffffffff16815260200191505060405180910390f35b600060405180807f737570706f727473496e74657266616365286279746573342900000000000000815250601901905060405180910390207bffffffffffffffffffffffffffffffffffffffffffffffffffffffff1916827bffffffffffffffffffffffffffffffffffffffffffffffffffffffff19161480610dec575060405180807f746f6b656e4d657461646174612875696e743235362c737472696e6729000000815250601d019050604051809103902060405180807f746f6b656e734f664f776e6572286164647265737329000000000000000000008152506016019050604051809103902060405180807f7472616e7366657246726f6d28616464726573732c616464726573732c75696e81526020017f74323536290000000000000000000000000000000000000000000000000000008152506025019050604051809103902060405180807f7472616e7366657228616464726573732c75696e7432353629000000000000008152506019019050604051809103902060405180807f617070726f766528616464726573732c75696e743235362900000000000000008152506018019050604051809103902060405180807f6f776e65724f662875696e7432353629000000000000000000000000000000008152506010019050604051809103902060405180807f62616c616e63654f6628616464726573732900000000000000000000000000008152506012019050604051809103902060405180807f746f74616c537570706c79282900000000000000000000000000000000000000815250600d019050604051809103902060405180807f73796d626f6c28290000000000000000000000000000000000000000000000008152506008019050604051809103902060405180807f6e616d6528290000000000000000000000000000000000000000000000000000815250600601905060405180910390201818181818181818187bffffffffffffffffffffffffffffffffffffffffffffffffffffffff1916827bffffffffffffffffffffffffffffffffffffffffffffffffffffffff1916145b9050919050565b600160009054906101000a900473ffffffffffffffffffffffffffffffffffffffff1681565b610e216122ab565b610e296122bf565b60008073ffffffffffffffffffffffffffffffffffffffff16600960009054906101000a900473ffffffffffffffffffffffffffffffffffffffff1673ffffffffffffffffffffffffffffffffffffffff1614151515610e8857600080fd5b600960009054906101000a900473ffffffffffffffffffffffffffffffffffffffff1673ffffffffffffffffffffffffffffffffffffffff1663cb4799f2878787600060405160a001526040518463ffffffff167c010000000000000000000000000000000000000000000000000000000002815260040180848152602001806020018281038252848482818152602001925080828437820191505094505050505060a060405180830381600087803b1515610f4357600080fd5b6102c65a03f11515610f5457600080fd5b505050604051806080018051906020016040528092508193505050610f798282611ed8565b925050509392505050565b6040805190810160405280600c81526020017f50696374757265436861696e000000000000000000000000000000000000000081525081565b600260149054906101000a900460ff16151515610fd957600080fd5b610fe33382611f30565b1515610fee57600080fd5b610ff88183611f9c565b7f8c5be1e5ebec7d5bd14f71427d1e84f3dd0314c0f7b2291e5b200ac8c7c3b925338383604051808473ffffffffffffffffffffffffffffffffffffffff1673ffffffffffffffffffffffffffffffffffffffff1681526020018373ffffffffffffffffffffffffffffffffffffffff1673ffffffffffffffffffffffffffffffffffffffff168152602001828152602001935050505060405180910390a15050565b6000809054906101000a900473ffffffffffffffffffffffffffffffffffffffff1681565b6000600160048054905003905090565b600260149054906101000a900460ff161515156110ec57600080fd5b6110f63388611f30565b151561110157600080fd5b61112d87600860009054906101000a900473ffffffffffffffffffffffffffffffffffffffff16611f9c565b600860009054906101000a900473ffffffffffffffffffffffffffffffffffffffff1673ffffffffffffffffffffffffffffffffffffffff16636c3f808888888888888888336040518963ffffffff167c0100000000000000000000000000000000000000000000000000000000028152600401808981526020018881526020018781526020018681526020018581526020018473ffffffffffffffffffffffffffffffffffffffff1673ffffffffffffffffffffffffffffffffffffffff1681526020018381526020018273ffffffffffffffffffffffffffffffffffffffff1673ffffffffffffffffffffffffffffffffffffffff16815260200198505050505050505050600060405180830381600087803b151561124d57600080fd5b6102c65a03f1151561125e57600080fd5b50505050505050505050565b600260149054906101000a900460ff1615151561128657600080fd5b600073ffffffffffffffffffffffffffffffffffffffff168273ffffffffffffffffffffffffffffffffffffffff16141515156112c257600080fd5b3073ffffffffffffffffffffffffffffffffffffffff168273ffffffffffffffffffffffffffffffffffffffff16141515156112fd57600080fd5b6113073382611ff2565b151561131257600080fd5b61131c8382611f30565b151561132757600080fd5b61133283838361205e565b505050565b6000809054906101000a900473ffffffffffffffffffffffffffffffffffffffff1673ffffffffffffffffffffffffffffffffffffffff163373ffffffffffffffffffffffffffffffffffffffff1614151561139257600080fd5b600073ffffffffffffffffffffffffffffffffffffffff168173ffffffffffffffffffffffffffffffffffffffff16141515156113ce57600080fd5b806000806101000a81548173ffffffffffffffffffffffffffffffffffffffff021916908373ffffffffffffffffffffffffffffffffffffffff16021790555050565b6000809054906101000a900473ffffffffffffffffffffffffffffffffffffffff1673ffffffffffffffffffffffffffffffffffffffff163373ffffffffffffffffffffffffffffffffffffffff1614151561146c57600080fd5b600073ffffffffffffffffffffffffffffffffffffffff168173ffffffffffffffffffffffffffffffffffffffff16141515156114a857600080fd5b80600260006101000a81548173ffffffffffffffffffffffffffffffffffffffff021916908373ffffffffffffffffffffffffffffffffffffffff16021790555050565b6000809054906101000a900473ffffffffffffffffffffffffffffffffffffffff1673ffffffffffffffffffffffffffffffffffffffff163373ffffffffffffffffffffffffffffffffffffffff1614151561154757600080fd5b600260149054906101000a900460ff16151561156257600080fd5b6000600260146101000a81548160ff021916908315150217905550565b60076020528060005260406000206000915054906101000a900473ffffffffffffffffffffffffffffffffffffffff1681565b60056020528060005260406000206000915054906101000a900473ffffffffffffffffffffffffffffffffffffffff1681565b6000809054906101000a900473ffffffffffffffffffffffffffffffffffffffff1673ffffffffffffffffffffffffffffffffffffffff163373ffffffffffffffffffffffffffffffffffffffff1614151561164057600080fd5b600073ffffffffffffffffffffffffffffffffffffffff168173ffffffffffffffffffffffffffffffffffffffff161415151561167c57600080fd5b80600160006101000a81548173ffffffffffffffffffffffffffffffffffffffff021916908373ffffffffffffffffffffffffffffffffffffffff16021790555050565b600260009054906101000a900473ffffffffffffffffffffffffffffffffffffffff1673ffffffffffffffffffffffffffffffffffffffff163373ffffffffffffffffffffffffffffffffffffffff16148061176857506000809054906101000a900473ffffffffffffffffffffffffffffffffffffffff1673ffffffffffffffffffffffffffffffffffffffff163373ffffffffffffffffffffffffffffffffffffffff16145b806117c05750600160009054906101000a900473ffffffffffffffffffffffffffffffffffffffff1673ffffffffffffffffffffffffffffffffffffffff163373ffffffffffffffffffffffffffffffffffffffff16145b15156117cb57600080fd5b8060038190555050565b600260149054906101000a900460ff1681565b60006005600083815260200190815260200160002060009054906101000a900473ffffffffffffffffffffffffffffffffffffffff169050600073ffffffffffffffffffffffffffffffffffffffff168173ffffffffffffffffffffffffffffffffffffffff161415151561185c57600080fd5b919050565b60008060009054906101000a900473ffffffffffffffffffffffffffffffffffffffff1673ffffffffffffffffffffffffffffffffffffffff163373ffffffffffffffffffffffffffffffffffffffff161415156118be57600080fd5b8190508073ffffffffffffffffffffffffffffffffffffffff166385b861886000604051602001526040518163ffffffff167c0100000000000000000000000000000000000000000000000000000000028152600401602060405180830381600087803b151561192d57600080fd5b6102c65a03f1151561193e57600080fd5b50505060405180519050151561195357600080fd5b80600860006101000a81548173ffffffffffffffffffffffffffffffffffffffff021916908373ffffffffffffffffffffffffffffffffffffffff1602179055505050565b6000600660008373ffffffffffffffffffffffffffffffffffffffff1673ffffffffffffffffffffffffffffffffffffffff168152602001908152602001600020549050919050565b60035481565b600260009054906101000a900473ffffffffffffffffffffffffffffffffffffffff1673ffffffffffffffffffffffffffffffffffffffff163373ffffffffffffffffffffffffffffffffffffffff161480611a8f57506000809054906101000a900473ffffffffffffffffffffffffffffffffffffffff1673ffffffffffffffffffffffffffffffffffffffff163373ffffffffffffffffffffffffffffffffffffffff16145b80611ae75750600160009054906101000a900473ffffffffffffffffffffffffffffffffffffffff1673ffffffffffffffffffffffffffffffffffffffff163373ffffffffffffffffffffffffffffffffffffffff16145b1515611af257600080fd5b600260149054906101000a900460ff16151515611b0e57600080fd5b6001600260146101000a81548160ff021916908315150217905550565b611b336122ea565b6000611b3d6122ea565b6000806000611b4b87611998565b94506000851415611b7d576000604051805910611b655750595b90808252806020026020018201604052509550611c58565b84604051805910611b8b5750595b90808252806020026020018201604052509350611ba66110c0565b925060009150600190505b8281111515611c54578673ffffffffffffffffffffffffffffffffffffffff166005600083815260200190815260200160002060009054906101000a900473ffffffffffffffffffffffffffffffffffffffff1673ffffffffffffffffffffffffffffffffffffffff161415611c4757808483815181101515611c3057fe5b906020019060200201818152505081806001019250505b8080600101915050611bb1565b8395505b5050505050919050565b6040805190810160405280600281526020017f504300000000000000000000000000000000000000000000000000000000000081525081565b600260149054906101000a900460ff16151515611cb757600080fd5b600073ffffffffffffffffffffffffffffffffffffffff168273ffffffffffffffffffffffffffffffffffffffff1614151515611cf357600080fd5b3073ffffffffffffffffffffffffffffffffffffffff168273ffffffffffffffffffffffffffffffffffffffff1614151515611d2e57600080fd5b600860009054906101000a900473ffffffffffffffffffffffffffffffffffffffff1673ffffffffffffffffffffffffffffffffffffffff168273ffffffffffffffffffffffffffffffffffffffff1614151515611d8b57600080fd5b611d953382611f30565b1515611da057600080fd5b611dab33838361205e565b5050565b600260009054906101000a900473ffffffffffffffffffffffffffffffffffffffff1681565b600960009054906101000a900473ffffffffffffffffffffffffffffffffffffffff1681565b60066020528060005260406000206000915090505481565b6000809054906101000a900473ffffffffffffffffffffffffffffffffffffffff1673ffffffffffffffffffffffffffffffffffffffff163373ffffffffffffffffffffffffffffffffffffffff16141515611e6e57600080fd5b80600960006101000a81548173ffffffffffffffffffffffffffffffffffffffff021916908373ffffffffffffffffffffffffffffffffffffffff16021790555050565b600860009054906101000a900473ffffffffffffffffffffffffffffffffffffffff1681565b611ee06122ab565b611ee86122ab565b60008084604051805910611ef95750595b9080825280601f01601f19166020018201604052509250602083019150859050611f24828287612260565b82935050505092915050565b60008273ffffffffffffffffffffffffffffffffffffffff166005600084815260200190815260200160002060009054906101000a900473ffffffffffffffffffffffffffffffffffffffff1673ffffffffffffffffffffffffffffffffffffffff1614905092915050565b806007600084815260200190815260200160002060006101000a81548173ffffffffffffffffffffffffffffffffffffffff021916908373ffffffffffffffffffffffffffffffffffffffff1602179055505050565b60008273ffffffffffffffffffffffffffffffffffffffff166007600084815260200190815260200160002060009054906101000a900473ffffffffffffffffffffffffffffffffffffffff1673ffffffffffffffffffffffffffffffffffffffff1614905092915050565b600660008373ffffffffffffffffffffffffffffffffffffffff1673ffffffffffffffffffffffffffffffffffffffff16815260200190815260200160002060008154809291906001019190505550816005600083815260200190815260200160002060006101000a81548173ffffffffffffffffffffffffffffffffffffffff021916908373ffffffffffffffffffffffffffffffffffffffff160217905550600073ffffffffffffffffffffffffffffffffffffffff168373ffffffffffffffffffffffffffffffffffffffff161415156121bc57600660008473ffffffffffffffffffffffffffffffffffffffff1673ffffffffffffffffffffffffffffffffffffffff16815260200190815260200160002060008154809291906001900391905055506007600082815260200190815260200160002060006101000a81549073ffffffffffffffffffffffffffffffffffffffff02191690555b7fddf252ad1be2c89b69c2b068fc378daa952ba7f163c4a11628f55a4df523b3ef838383604051808473ffffffffffffffffffffffffffffffffffffffff1673ffffffffffffffffffffffffffffffffffffffff1681526020018373ffffffffffffffffffffffffffffffffffffffff1673ffffffffffffffffffffffffffffffffffffffff168152602001828152602001935050505060405180910390a1505050565b60005b6020821015156122885782518452602084019350602083019250602082039150612263565b6001826020036101000a0390508019835116818551168181178652505050505050565b602060405190810160405280600081525090565b6080604051908101604052806004905b60008019168152602001906001900390816122cf5790505090565b6020604051908101604052806000815250905600a165627a7a7230582092bd20bc1a5a1588ea5813807e1ba9889a2fd89c7e2e3a2f76cabde6e18e0afc0029",
  "source": "/// @title Handles creating auctions for sale and siring of kitties.\n///  This wrapper of ReverseAuction exists only so that users can create\n///  auctions with only one transaction.\npragma solidity ^0.4.16;\nimport \"./PictureOwnership.sol\";\n\ncontract PictureAuction is PictureOwnership {\n\n    // @notice The auction contract variables are defined in KittyBase to allow\n    //  us to refer to them in KittyOwnership to prevent accidental transfers.\n    // `saleAuction` refers to the auction for gen0 and p2p sale of kitties.\n    // `siringAuction` refers to the auction for siring rights of kitties.\n\n    /// @dev Sets the reference to the sale auction.\n    /// @param _address - Address of sale contract.\n    function setSaleAuctionAddress(address _address) external onlyCEO {\n        SaleClockAuction candidateContract = SaleClockAuction(_address);\n\n        // NOTE: verify that a contract is what we expect - https://github.com/Lunyr/crowdsale-contracts/blob/cfadd15986c30521d8ba7d5b6f57b4fefcc7ac38/contracts/LunyrToken.sol#L117\n        require(candidateContract.isSaleClockAuction());\n\n        // Set the new contract address\n        saleAuction = candidateContract;\n    }\n\n    /// @dev Put a picture up for auction.\n    ///  Does some ownership trickery to create auctions in one tx.\n    function createSaleAuction(uint256 _pictureId, uint256 _auctionType, uint256 _Price, uint256 _commission, uint256 _brokerage, address _styleOwner, uint256 _duration) external whenNotPaused {\n        // Auction contract checks input sizes\n        // If kitty is already on any auction, this will throw\n        // because it will be owned by the auction contract.\n        require(_owns(msg.sender, _pictureId));\n\n        _approve(_pictureId, saleAuction);\n        // Sale auction throws if inputs are invalid and clears\n        // transfer and sire approval after escrowing the kitty.\n        saleAuction.createAuction(\n            _pictureId,\n            _auctionType,\n            _Price,\n            _commission,\n            _brokerage,\n            _styleOwner,\n            _duration,\n            msg.sender\n        );\n    }\n}\n",
  "sourcePath": "/Users/blockchain/work/code/elforce/Auction/client/contracts/PictureAuction.sol",
  "compiler": {
    "name": "solc",
    "version": "0.4.18+commit.9cf6e910.Emscripten.clang"
  },
  "schemaVersion": "1.0.1",
  "updatedAt": "2018-05-08T14:03:57.140Z"
}