{
  "contractName": "PictureCoreTest",
  "abi": [
    {
      "constant": true,
      "inputs": [
        {
          "name": "_interfaceID",
          "type": "bytes4"
        }
      ],
      "name": "supportsInterface",
      "outputs": [
        {
          "name": "",
          "type": "bool"
        }
      ],
      "payable": false,
      "stateMutability": "view",
      "type": "function"
    },
    {
      "constant": true,
      "inputs": [],
      "name": "cfoAddress",
      "outputs": [
        {
          "name": "",
          "type": "address"
        }
      ],
      "payable": false,
      "stateMutability": "view",
      "type": "function"
    },
    {
      "constant": true,
      "inputs": [
        {
          "name": "_tokenId",
          "type": "uint256"
        },
        {
          "name": "_preferredTransport",
          "type": "string"
        }
      ],
      "name": "tokenMetadata",
      "outputs": [
        {
          "name": "infoUrl",
          "type": "string"
        }
      ],
      "payable": false,
      "stateMutability": "view",
      "type": "function"
    },
    {
      "constant": true,
      "inputs": [
        {
          "name": "_id",
          "type": "uint256"
        }
      ],
      "name": "getPicture",
      "outputs": [
        {
          "name": "hashValue",
          "type": "string"
        },
        {
          "name": "birthTime",
          "type": "uint256"
        },
        {
          "name": "styleHash",
          "type": "string"
        },
        {
          "name": "styleOwnerAddr",
          "type": "address"
        },
        {
          "name": "maker",
          "type": "address"
        }
      ],
      "payable": false,
      "stateMutability": "view",
      "type": "function"
    },
    {
      "constant": true,
      "inputs": [],
      "name": "promoCreatedCount",
      "outputs": [
        {
          "name": "",
          "type": "uint256"
        }
      ],
      "payable": false,
      "stateMutability": "view",
      "type": "function"
    },
    {
      "constant": true,
      "inputs": [],
      "name": "name",
      "outputs": [
        {
          "name": "",
          "type": "string"
        }
      ],
      "payable": false,
      "stateMutability": "view",
      "type": "function"
    },
    {
      "constant": false,
      "inputs": [
        {
          "name": "_to",
          "type": "address"
        },
        {
          "name": "_tokenId",
          "type": "uint256"
        }
      ],
      "name": "approve",
      "outputs": [],
      "payable": false,
      "stateMutability": "nonpayable",
      "type": "function"
    },
    {
      "constant": true,
      "inputs": [],
      "name": "ceoAddress",
      "outputs": [
        {
          "name": "",
          "type": "address"
        }
      ],
      "payable": false,
      "stateMutability": "view",
      "type": "function"
    },
    {
      "constant": true,
      "inputs": [],
      "name": "GEN0_STARTING_PRICE",
      "outputs": [
        {
          "name": "",
          "type": "uint256"
        }
      ],
      "payable": false,
      "stateMutability": "view",
      "type": "function"
    },
    {
      "constant": true,
      "inputs": [],
      "name": "totalSupply",
      "outputs": [
        {
          "name": "",
          "type": "uint256"
        }
      ],
      "payable": false,
      "stateMutability": "view",
      "type": "function"
    },
    {
      "constant": true,
      "inputs": [],
      "name": "GEN0_AUCTION_DURATION",
      "outputs": [
        {
          "name": "",
          "type": "uint256"
        }
      ],
      "payable": false,
      "stateMutability": "view",
      "type": "function"
    },
    {
      "constant": false,
      "inputs": [
        {
          "name": "_pictureId",
          "type": "uint256"
        },
        {
          "name": "_auctionType",
          "type": "uint256"
        },
        {
          "name": "_Price",
          "type": "uint256"
        },
        {
          "name": "_commission",
          "type": "uint256"
        },
        {
          "name": "_brokerage",
          "type": "uint256"
        },
        {
          "name": "_styleOwner",
          "type": "address"
        },
        {
          "name": "_duration",
          "type": "uint256"
        }
      ],
      "name": "createSaleAuction",
      "outputs": [],
      "payable": false,
      "stateMutability": "nonpayable",
      "type": "function"
    },
    {
      "constant": false,
      "inputs": [
        {
          "name": "_from",
          "type": "address"
        },
        {
          "name": "_to",
          "type": "address"
        },
        {
          "name": "_tokenId",
          "type": "uint256"
        }
      ],
      "name": "transferFrom",
      "outputs": [],
      "payable": false,
      "stateMutability": "nonpayable",
      "type": "function"
    },
    {
      "constant": false,
      "inputs": [
        {
          "name": "_newCEO",
          "type": "address"
        }
      ],
      "name": "setCEO",
      "outputs": [],
      "payable": false,
      "stateMutability": "nonpayable",
      "type": "function"
    },
    {
      "constant": false,
      "inputs": [
        {
          "name": "_newCOO",
          "type": "address"
        }
      ],
      "name": "setCOO",
      "outputs": [],
      "payable": false,
      "stateMutability": "nonpayable",
      "type": "function"
    },
    {
      "constant": false,
      "inputs": [],
      "name": "unpause",
      "outputs": [],
      "payable": false,
      "stateMutability": "nonpayable",
      "type": "function"
    },
    {
      "constant": true,
      "inputs": [
        {
          "name": "",
          "type": "uint256"
        }
      ],
      "name": "pictureIndexToApproved",
      "outputs": [
        {
          "name": "",
          "type": "address"
        }
      ],
      "payable": false,
      "stateMutability": "view",
      "type": "function"
    },
    {
      "constant": true,
      "inputs": [
        {
          "name": "",
          "type": "uint256"
        }
      ],
      "name": "pictureIndexToOwner",
      "outputs": [
        {
          "name": "",
          "type": "address"
        }
      ],
      "payable": false,
      "stateMutability": "view",
      "type": "function"
    },
    {
      "constant": false,
      "inputs": [
        {
          "name": "_newCFO",
          "type": "address"
        }
      ],
      "name": "setCFO",
      "outputs": [],
      "payable": false,
      "stateMutability": "nonpayable",
      "type": "function"
    },
    {
      "constant": false,
      "inputs": [
        {
          "name": "secs",
          "type": "uint256"
        }
      ],
      "name": "setSecondsPerBlock",
      "outputs": [],
      "payable": false,
      "stateMutability": "nonpayable",
      "type": "function"
    },
    {
      "constant": true,
      "inputs": [],
      "name": "paused",
      "outputs": [
        {
          "name": "",
          "type": "bool"
        }
      ],
      "payable": false,
      "stateMutability": "view",
      "type": "function"
    },
    {
      "constant": false,
      "inputs": [],
      "name": "withdrawBalance",
      "outputs": [],
      "payable": false,
      "stateMutability": "nonpayable",
      "type": "function"
    },
    {
      "constant": true,
      "inputs": [
        {
          "name": "_tokenId",
          "type": "uint256"
        }
      ],
      "name": "ownerOf",
      "outputs": [
        {
          "name": "owner",
          "type": "address"
        }
      ],
      "payable": false,
      "stateMutability": "view",
      "type": "function"
    },
    {
      "constant": true,
      "inputs": [],
      "name": "GEN0_CREATION_LIMIT",
      "outputs": [
        {
          "name": "",
          "type": "uint256"
        }
      ],
      "payable": false,
      "stateMutability": "view",
      "type": "function"
    },
    {
      "constant": true,
      "inputs": [],
      "name": "newContractAddress",
      "outputs": [
        {
          "name": "",
          "type": "address"
        }
      ],
      "payable": false,
      "stateMutability": "view",
      "type": "function"
    },
    {
      "constant": false,
      "inputs": [
        {
          "name": "_address",
          "type": "address"
        }
      ],
      "name": "setSaleAuctionAddress",
      "outputs": [],
      "payable": false,
      "stateMutability": "nonpayable",
      "type": "function"
    },
    {
      "constant": true,
      "inputs": [
        {
          "name": "_owner",
          "type": "address"
        }
      ],
      "name": "balanceOf",
      "outputs": [
        {
          "name": "count",
          "type": "uint256"
        }
      ],
      "payable": false,
      "stateMutability": "view",
      "type": "function"
    },
    {
      "constant": false,
      "inputs": [
        {
          "name": "_v2Address",
          "type": "address"
        }
      ],
      "name": "setNewAddress",
      "outputs": [],
      "payable": false,
      "stateMutability": "nonpayable",
      "type": "function"
    },
    {
      "constant": true,
      "inputs": [],
      "name": "secondsPerBlock",
      "outputs": [
        {
          "name": "",
          "type": "uint256"
        }
      ],
      "payable": false,
      "stateMutability": "view",
      "type": "function"
    },
    {
      "constant": false,
      "inputs": [],
      "name": "pause",
      "outputs": [],
      "payable": false,
      "stateMutability": "nonpayable",
      "type": "function"
    },
    {
      "constant": true,
      "inputs": [
        {
          "name": "_owner",
          "type": "address"
        }
      ],
      "name": "tokensOfOwner",
      "outputs": [
        {
          "name": "ownerTokens",
          "type": "uint256[]"
        }
      ],
      "payable": false,
      "stateMutability": "view",
      "type": "function"
    },
    {
      "constant": true,
      "inputs": [],
      "name": "symbol",
      "outputs": [
        {
          "name": "",
          "type": "string"
        }
      ],
      "payable": false,
      "stateMutability": "view",
      "type": "function"
    },
    {
      "constant": false,
      "inputs": [
        {
          "name": "_to",
          "type": "address"
        },
        {
          "name": "_tokenId",
          "type": "uint256"
        }
      ],
      "name": "transfer",
      "outputs": [],
      "payable": false,
      "stateMutability": "nonpayable",
      "type": "function"
    },
    {
      "constant": true,
      "inputs": [],
      "name": "cooAddress",
      "outputs": [
        {
          "name": "",
          "type": "address"
        }
      ],
      "payable": false,
      "stateMutability": "view",
      "type": "function"
    },
    {
      "constant": false,
      "inputs": [],
      "name": "fundMe",
      "outputs": [
        {
          "name": "",
          "type": "bool"
        }
      ],
      "payable": true,
      "stateMutability": "payable",
      "type": "function"
    },
    {
      "constant": true,
      "inputs": [],
      "name": "erc721Metadata",
      "outputs": [
        {
          "name": "",
          "type": "address"
        }
      ],
      "payable": false,
      "stateMutability": "view",
      "type": "function"
    },
    {
      "constant": true,
      "inputs": [
        {
          "name": "",
          "type": "address"
        }
      ],
      "name": "ownershipTokenCount",
      "outputs": [
        {
          "name": "",
          "type": "uint256"
        }
      ],
      "payable": false,
      "stateMutability": "view",
      "type": "function"
    },
    {
      "constant": true,
      "inputs": [],
      "name": "timeNow",
      "outputs": [
        {
          "name": "",
          "type": "uint256"
        }
      ],
      "payable": false,
      "stateMutability": "view",
      "type": "function"
    },
    {
      "constant": true,
      "inputs": [],
      "name": "PROMO_CREATION_LIMIT",
      "outputs": [
        {
          "name": "",
          "type": "uint256"
        }
      ],
      "payable": false,
      "stateMutability": "view",
      "type": "function"
    },
    {
      "constant": false,
      "inputs": [
        {
          "name": "_contractAddress",
          "type": "address"
        }
      ],
      "name": "setMetadataAddress",
      "outputs": [],
      "payable": false,
      "stateMutability": "nonpayable",
      "type": "function"
    },
    {
      "constant": true,
      "inputs": [],
      "name": "saleAuction",
      "outputs": [
        {
          "name": "",
          "type": "address"
        }
      ],
      "payable": false,
      "stateMutability": "view",
      "type": "function"
    },
    {
      "constant": false,
      "inputs": [
        {
          "name": "_hash",
          "type": "string"
        },
        {
          "name": "_owner",
          "type": "address"
        }
      ],
      "name": "createPromoPicture",
      "outputs": [],
      "payable": false,
      "stateMutability": "nonpayable",
      "type": "function"
    },
    {
      "constant": false,
      "inputs": [
        {
          "name": "_hash",
          "type": "string"
        },
        {
          "name": "_cloneCount",
          "type": "uint32"
        }
      ],
      "name": "mintPictures",
      "outputs": [],
      "payable": false,
      "stateMutability": "nonpayable",
      "type": "function"
    },
    {
      "constant": true,
      "inputs": [],
      "name": "gen0CreatedCount",
      "outputs": [
        {
          "name": "",
          "type": "uint256"
        }
      ],
      "payable": false,
      "stateMutability": "view",
      "type": "function"
    },
    {
      "constant": false,
      "inputs": [
        {
          "name": "_hash",
          "type": "string"
        }
      ],
      "name": "createGen0Auction",
      "outputs": [],
      "payable": false,
      "stateMutability": "nonpayable",
      "type": "function"
    },
    {
      "inputs": [],
      "payable": false,
      "stateMutability": "nonpayable",
      "type": "constructor"
    },
    {
      "payable": true,
      "stateMutability": "payable",
      "type": "fallback"
    },
    {
      "anonymous": false,
      "inputs": [
        {
          "indexed": false,
          "name": "from",
          "type": "address"
        },
        {
          "indexed": false,
          "name": "to",
          "type": "address"
        },
        {
          "indexed": false,
          "name": "tokenId",
          "type": "uint256"
        }
      ],
      "name": "Transfer",
      "type": "event"
    },
    {
      "anonymous": false,
      "inputs": [
        {
          "indexed": false,
          "name": "owner",
          "type": "address"
        },
        {
          "indexed": false,
          "name": "approved",
          "type": "address"
        },
        {
          "indexed": false,
          "name": "tokenId",
          "type": "uint256"
        }
      ],
      "name": "Approval",
      "type": "event"
    },
    {
      "anonymous": false,
      "inputs": [
        {
          "indexed": false,
          "name": "owner",
          "type": "address"
        },
        {
          "indexed": false,
          "name": "hashValue",
          "type": "string"
        },
        {
          "indexed": false,
          "name": "styleHash",
          "type": "string"
        },
        {
          "indexed": false,
          "name": "styleOwner",
          "type": "address"
        }
      ],
      "name": "CreatePictureWithStyle",
      "type": "event"
    },
    {
      "anonymous": false,
      "inputs": [
        {
          "indexed": false,
          "name": "owner",
          "type": "address"
        },
        {
          "indexed": false,
          "name": "hashValue",
          "type": "string"
        },
        {
          "indexed": false,
          "name": "styleOwner",
          "type": "address"
        }
      ],
      "name": "CreatePictureWithArtist",
      "type": "event"
    },
    {
      "anonymous": false,
      "inputs": [
        {
          "indexed": false,
          "name": "newContract",
          "type": "address"
        }
      ],
      "name": "ContractUpgrade",
      "type": "event"
    }
  ],
  "bytecode": "0x60606040526000600260146101000a81548160ff021916908315150217905550600f60035534156200003057600080fd5b6001600260146101000a81548160ff021916908315150217905550336000806101000a81548173ffffffffffffffffffffffffffffffffffffffff021916908373ffffffffffffffffffffffffffffffffffffffff16021790555033600260006101000a81548173ffffffffffffffffffffffffffffffffffffffff021916908373ffffffffffffffffffffffffffffffffffffffff160217905550620000fe602060405190810160405280600081525060008062000105640100000000026200313d176401000000009004565b5062000867565b600062000111620005fe565b600060a0604051908101604052808781526020014267ffffffffffffffff168152602001602060405190810160405280600081525081526020018673ffffffffffffffffffffffffffffffffffffffff1681526020018573ffffffffffffffffffffffffffffffffffffffff1681525091506001600480548060010182816200019b919062000674565b916000526020600020906005020160008590919091506000820151816000019080519060200190620001cf929190620006a9565b5060208201518160010160006101000a81548167ffffffffffffffff021916908367ffffffffffffffff16021790555060408201518160020190805190602001906200021d929190620006a9565b5060608201518160030160006101000a81548173ffffffffffffffffffffffffffffffffffffffff021916908373ffffffffffffffffffffffffffffffffffffffff16021790555060808201518160040160006101000a81548173ffffffffffffffffffffffffffffffffffffffff021916908373ffffffffffffffffffffffffffffffffffffffff16021790555050500390508063ffffffff1681141515620002c657600080fd5b7f225c4790e418f4f69aa28361ed2bb2f785cb4a3c4f37b8e3024c44d5d9a8a120848787604051808473ffffffffffffffffffffffffffffffffffffffff1673ffffffffffffffffffffffffffffffffffffffff168152602001806020018373ffffffffffffffffffffffffffffffffffffffff1673ffffffffffffffffffffffffffffffffffffffff168152602001828103825284818151815260200191508051906020019080838360005b838110156200039057808201518184015260208101905062000373565b50505050905090810190601f168015620003be5780820380516001836020036101000a031916815260200191505b5094505050505060405180910390a1620003ef60008583620003fb6401000000000262002ea8176401000000009004565b80925050509392505050565b600660008373ffffffffffffffffffffffffffffffffffffffff1673ffffffffffffffffffffffffffffffffffffffff16815260200190815260200160002060008154809291906001019190505550816005600083815260200190815260200160002060006101000a81548173ffffffffffffffffffffffffffffffffffffffff021916908373ffffffffffffffffffffffffffffffffffffffff160217905550600073ffffffffffffffffffffffffffffffffffffffff168373ffffffffffffffffffffffffffffffffffffffff161415156200055a57600660008473ffffffffffffffffffffffffffffffffffffffff1673ffffffffffffffffffffffffffffffffffffffff16815260200190815260200160002060008154809291906001900391905055506007600082815260200190815260200160002060006101000a81549073ffffffffffffffffffffffffffffffffffffffff02191690555b7fddf252ad1be2c89b69c2b068fc378daa952ba7f163c4a11628f55a4df523b3ef838383604051808473ffffffffffffffffffffffffffffffffffffffff1673ffffffffffffffffffffffffffffffffffffffff1681526020018373ffffffffffffffffffffffffffffffffffffffff1673ffffffffffffffffffffffffffffffffffffffff168152602001828152602001935050505060405180910390a1505050565b60a0604051908101604052806200061462000730565b8152602001600067ffffffffffffffff1681526020016200063462000730565b8152602001600073ffffffffffffffffffffffffffffffffffffffff168152602001600073ffffffffffffffffffffffffffffffffffffffff1681525090565b815481835581811511620006a457600502816005028360005260206000209182019101620006a3919062000744565b5b505050565b828054600181600116156101000203166002900490600052602060002090601f016020900481019282601f10620006ec57805160ff19168380011785556200071d565b828001600101855582156200071d579182015b828111156200071c578251825591602001919060010190620006ff565b5b5090506200072c9190620007f3565b5090565b602060405190810160405280600081525090565b620007f091905b80821115620007ec57600080820160006200076791906200081b565b6001820160006101000a81549067ffffffffffffffff02191690556002820160006200079491906200081b565b6003820160006101000a81549073ffffffffffffffffffffffffffffffffffffffff02191690556004820160006101000a81549073ffffffffffffffffffffffffffffffffffffffff0219169055506005016200074b565b5090565b90565b6200081891905b8082111562000814576000816000905550600101620007fa565b5090565b90565b50805460018160011615610100020316600290046000825580601f1062000843575062000864565b601f016020900490600052602060002090810190620008639190620007f3565b5b50565b61382b80620008776000396000f300606060405260043610610225576000357c0100000000000000000000000000000000000000000000000000000000900463ffffffff16806301ffc9a7146102835780630519ce79146102dd5780630560ff441461033257806305c8489c146103e257806305e455461461055757806306fdde0314610580578063095ea7b31461060e5780630a0f8168146106505780630e583df0146106a557806318160ddd146106ce57806319c2f201146106f75780631ff410a91461072057806323b872dd1461078f57806327d7874c146107f05780632ba73c15146108295780633f4ba83a1461086257806347854d0f14610877578063487a6fde146108da5780634e0a33791461093d5780635663896e146109765780635c975abb146109995780635fd8c710146109c65780636352211e146109db578063680eba2714610a3e5780636af04a5714610a675780636fbde40d14610abc57806370a0823114610af55780637158798814610b425780637a7d493714610b7b5780638456cb5914610ba45780638462151c14610bb957806395d89b4114610c47578063a9059cbb14610cd5578063b047fb5014610d17578063b6a324e014610d6c578063bc4006f514610d8e578063cec21acb14610de3578063d95660be14610e30578063defb958414610e59578063e17b25af14610e82578063e6cbe35114610ebb578063e99b525a14610f10578063ef1a351514610f5d578063f1ca941014610fc9578063fc63e81c14610ff2575b600860009054906101000a900473ffffffffffffffffffffffffffffffffffffffff1673ffffffffffffffffffffffffffffffffffffffff163373ffffffffffffffffffffffffffffffffffffffff1614151561028157600080fd5b005b341561028e57600080fd5b6102c360048080357bffffffffffffffffffffffffffffffffffffffffffffffffffffffff1916906020019091905050611020565b604051808215151515815260200191505060405180910390f35b34156102e857600080fd5b6102f0611331565b604051808273ffffffffffffffffffffffffffffffffffffffff1673ffffffffffffffffffffffffffffffffffffffff16815260200191505060405180910390f35b341561033d57600080fd5b61036760048080359060200190919080359060200190820180359060200191909192905050611357565b6040518080602001828103825283818151815260200191508051906020019080838360005b838110156103a757808201518184015260208101905061038c565b50505050905090810190601f1680156103d45780820380516001836020036101000a031916815260200191505b509250505060405180910390f35b34156103ed57600080fd5b61040360048080359060200190919050506114c2565b6040518080602001868152602001806020018573ffffffffffffffffffffffffffffffffffffffff1673ffffffffffffffffffffffffffffffffffffffff1681526020018473ffffffffffffffffffffffffffffffffffffffff1673ffffffffffffffffffffffffffffffffffffffff168152602001838103835288818151815260200191508051906020019080838360005b838110156104b1578082015181840152602081019050610496565b50505050905090810190601f1680156104de5780820380516001836020036101000a031916815260200191505b50838103825286818151815260200191508051906020019080838360005b838110156105175780820151818401526020810190506104fc565b50505050905090810190601f1680156105445780820380516001836020036101000a031916815260200191505b5097505050505050505060405180910390f35b341561056257600080fd5b61056a6116b3565b6040518082815260200191505060405180910390f35b341561058b57600080fd5b6105936116b9565b6040518080602001828103825283818151815260200191508051906020019080838360005b838110156105d35780820151818401526020810190506105b8565b50505050905090810190601f1680156106005780820380516001836020036101000a031916815260200191505b509250505060405180910390f35b341561061957600080fd5b61064e600480803573ffffffffffffffffffffffffffffffffffffffff169060200190919080359060200190919050506116f2565b005b341561065b57600080fd5b6106636117d0565b604051808273ffffffffffffffffffffffffffffffffffffffff1673ffffffffffffffffffffffffffffffffffffffff16815260200191505060405180910390f35b34156106b057600080fd5b6106b86117f5565b6040518082815260200191505060405180910390f35b34156106d957600080fd5b6106e1611800565b6040518082815260200191505060405180910390f35b341561070257600080fd5b61070a611810565b6040518082815260200191505060405180910390f35b341561072b57600080fd5b61078d600480803590602001909190803590602001909190803590602001909190803590602001909190803590602001909190803573ffffffffffffffffffffffffffffffffffffffff16906020019091908035906020019091905050611817565b005b341561079a57600080fd5b6107ee600480803573ffffffffffffffffffffffffffffffffffffffff1690602001909190803573ffffffffffffffffffffffffffffffffffffffff169060200190919080359060200190919050506119b1565b005b34156107fb57600080fd5b610827600480803573ffffffffffffffffffffffffffffffffffffffff16906020019091905050611a7e565b005b341561083457600080fd5b610860600480803573ffffffffffffffffffffffffffffffffffffffff16906020019091905050611b58565b005b341561086d57600080fd5b610875611c33565b005b341561088257600080fd5b6108986004808035906020019091905050611d6e565b604051808273ffffffffffffffffffffffffffffffffffffffff1673ffffffffffffffffffffffffffffffffffffffff16815260200191505060405180910390f35b34156108e557600080fd5b6108fb6004808035906020019091905050611da1565b604051808273ffffffffffffffffffffffffffffffffffffffff1673ffffffffffffffffffffffffffffffffffffffff16815260200191505060405180910390f35b341561094857600080fd5b610974600480803573ffffffffffffffffffffffffffffffffffffffff16906020019091905050611dd4565b005b341561098157600080fd5b6109976004808035906020019091905050611eaf565b005b34156109a457600080fd5b6109ac611fc4565b604051808215151515815260200191505060405180910390f35b34156109d157600080fd5b6109d9611fd7565b005b34156109e657600080fd5b6109fc60048080359060200190919050506120b4565b604051808273ffffffffffffffffffffffffffffffffffffffff1673ffffffffffffffffffffffffffffffffffffffff16815260200191505060405180910390f35b3415610a4957600080fd5b610a5161212d565b6040518082815260200191505060405180910390f35b3415610a7257600080fd5b610a7a612133565b604051808273ffffffffffffffffffffffffffffffffffffffff1673ffffffffffffffffffffffffffffffffffffffff16815260200191505060405180910390f35b3415610ac757600080fd5b610af3600480803573ffffffffffffffffffffffffffffffffffffffff16906020019091905050612159565b005b3415610b0057600080fd5b610b2c600480803573ffffffffffffffffffffffffffffffffffffffff16906020019091905050612290565b6040518082815260200191505060405180910390f35b3415610b4d57600080fd5b610b79600480803573ffffffffffffffffffffffffffffffffffffffff169060200190919050506122d9565b005b3415610b8657600080fd5b610b8e6123f6565b6040518082815260200191505060405180910390f35b3415610baf57600080fd5b610bb76123fc565b005b3415610bc457600080fd5b610bf0600480803573ffffffffffffffffffffffffffffffffffffffff16906020019091905050612540565b6040518080602001828103825283818151815260200191508051906020019060200280838360005b83811015610c33578082015181840152602081019050610c18565b505050509050019250505060405180910390f35b3415610c5257600080fd5b610c5a612677565b6040518080602001828103825283818151815260200191508051906020019080838360005b83811015610c9a578082015181840152602081019050610c7f565b50505050905090810190601f168015610cc75780820380516001836020036101000a031916815260200191505b509250505060405180910390f35b3415610ce057600080fd5b610d15600480803573ffffffffffffffffffffffffffffffffffffffff169060200190919080359060200190919050506126b0565b005b3415610d2257600080fd5b610d2a6127c4565b604051808273ffffffffffffffffffffffffffffffffffffffff1673ffffffffffffffffffffffffffffffffffffffff16815260200191505060405180910390f35b610d746127ea565b604051808215151515815260200191505060405180910390f35b3415610d9957600080fd5b610da16127f3565b604051808273ffffffffffffffffffffffffffffffffffffffff1673ffffffffffffffffffffffffffffffffffffffff16815260200191505060405180910390f35b3415610dee57600080fd5b610e1a600480803573ffffffffffffffffffffffffffffffffffffffff16906020019091905050612819565b6040518082815260200191505060405180910390f35b3415610e3b57600080fd5b610e43612831565b6040518082815260200191505060405180910390f35b3415610e6457600080fd5b610e6c612839565b6040518082815260200191505060405180910390f35b3415610e8d57600080fd5b610eb9600480803573ffffffffffffffffffffffffffffffffffffffff1690602001909190505061283f565b005b3415610ec657600080fd5b610ece6128de565b604051808273ffffffffffffffffffffffffffffffffffffffff1673ffffffffffffffffffffffffffffffffffffffff16815260200191505060405180910390f35b3415610f1b57600080fd5b610f5b6004808035906020019082018035906020019190919290803573ffffffffffffffffffffffffffffffffffffffff16906020019091905050612904565b005b3415610f6857600080fd5b610fc7600480803590602001908201803590602001908080601f0160208091040260200160405190810160405280939291908181526020018383808284378201915050505050509190803563ffffffff16906020019091905050612a28565b005b3415610fd457600080fd5b610fdc612ae8565b6040518082815260200191505060405180910390f35b3415610ffd57600080fd5b61101e60048080359060200190820180359060200191909192905050612aee565b005b600060405180807f737570706f727473496e74657266616365286279746573342900000000000000815250601901905060405180910390207bffffffffffffffffffffffffffffffffffffffffffffffffffffffff1916827bffffffffffffffffffffffffffffffffffffffffffffffffffffffff1916148061132a575060405180807f746f6b656e4d657461646174612875696e743235362c737472696e6729000000815250601d019050604051809103902060405180807f746f6b656e734f664f776e6572286164647265737329000000000000000000008152506016019050604051809103902060405180807f7472616e7366657246726f6d28616464726573732c616464726573732c75696e81526020017f74323536290000000000000000000000000000000000000000000000000000008152506025019050604051809103902060405180807f7472616e7366657228616464726573732c75696e7432353629000000000000008152506019019050604051809103902060405180807f617070726f766528616464726573732c75696e743235362900000000000000008152506018019050604051809103902060405180807f6f776e65724f662875696e7432353629000000000000000000000000000000008152506010019050604051809103902060405180807f62616c616e63654f6628616464726573732900000000000000000000000000008152506012019050604051809103902060405180807f746f74616c537570706c79282900000000000000000000000000000000000000815250600d019050604051809103902060405180807f73796d626f6c28290000000000000000000000000000000000000000000000008152506008019050604051809103902060405180807f6e616d6528290000000000000000000000000000000000000000000000000000815250600601905060405180910390201818181818181818187bffffffffffffffffffffffffffffffffffffffffffffffffffffffff1916827bffffffffffffffffffffffffffffffffffffffffffffffffffffffff1916145b9050919050565b600160009054906101000a900473ffffffffffffffffffffffffffffffffffffffff1681565b61135f61355f565b611367613573565b60008073ffffffffffffffffffffffffffffffffffffffff16600960009054906101000a900473ffffffffffffffffffffffffffffffffffffffff1673ffffffffffffffffffffffffffffffffffffffff16141515156113c657600080fd5b600960009054906101000a900473ffffffffffffffffffffffffffffffffffffffff1673ffffffffffffffffffffffffffffffffffffffff1663cb4799f2878787600060405160a001526040518463ffffffff167c010000000000000000000000000000000000000000000000000000000002815260040180848152602001806020018281038252848482818152602001925080828437820191505094505050505060a060405180830381600087803b151561148157600080fd5b6102c65a03f1151561149257600080fd5b5050506040518060800180519060200160405280925081935050506114b78282612d22565b925050509392505050565b6114ca61355f565b60006114d461355f565b60008060006004878154811015156114e857fe5b906000526020600020906005020190508060010160009054906101000a900467ffffffffffffffff1667ffffffffffffffff169450806002018054600181600116156101000203166002900480601f0160208091040260200160405190810160405280929190818152602001828054600181600116156101000203166002900480156115b55780601f1061158a576101008083540402835291602001916115b5565b820191906000526020600020905b81548152906001019060200180831161159857829003601f168201915b505050505093508060030160009054906101000a900473ffffffffffffffffffffffffffffffffffffffff1692508060040160009054906101000a900473ffffffffffffffffffffffffffffffffffffffff169150806000018054600181600116156101000203166002900480601f0160208091040260200160405190810160405280929190818152602001828054600181600116156101000203166002900480156116a25780601f10611677576101008083540402835291602001916116a2565b820191906000526020600020905b81548152906001019060200180831161168557829003601f168201915b505050505095505091939590929450565b600a5481565b6040805190810160405280600c81526020017f50696374757265436861696e000000000000000000000000000000000000000081525081565b600260149054906101000a900460ff1615151561170e57600080fd5b6117183382612d7a565b151561172357600080fd5b61172d8183612de6565b7f8c5be1e5ebec7d5bd14f71427d1e84f3dd0314c0f7b2291e5b200ac8c7c3b925338383604051808473ffffffffffffffffffffffffffffffffffffffff1673ffffffffffffffffffffffffffffffffffffffff1681526020018373ffffffffffffffffffffffffffffffffffffffff1673ffffffffffffffffffffffffffffffffffffffff168152602001828152602001935050505060405180910390a15050565b6000809054906101000a900473ffffffffffffffffffffffffffffffffffffffff1681565b662386f26fc1000081565b6000600160048054905003905090565b6201518081565b600260149054906101000a900460ff1615151561183357600080fd5b61183d3388612d7a565b151561184857600080fd5b61187487600860009054906101000a900473ffffffffffffffffffffffffffffffffffffffff16612de6565b600860009054906101000a900473ffffffffffffffffffffffffffffffffffffffff1673ffffffffffffffffffffffffffffffffffffffff16636c3f808888888888888888336040518963ffffffff167c0100000000000000000000000000000000000000000000000000000000028152600401808981526020018881526020018781526020018681526020018581526020018473ffffffffffffffffffffffffffffffffffffffff1673ffffffffffffffffffffffffffffffffffffffff1681526020018381526020018273ffffffffffffffffffffffffffffffffffffffff1673ffffffffffffffffffffffffffffffffffffffff16815260200198505050505050505050600060405180830381600087803b151561199457600080fd5b6102c65a03f115156119a557600080fd5b50505050505050505050565b600260149054906101000a900460ff161515156119cd57600080fd5b600073ffffffffffffffffffffffffffffffffffffffff168273ffffffffffffffffffffffffffffffffffffffff1614151515611a0957600080fd5b3073ffffffffffffffffffffffffffffffffffffffff168273ffffffffffffffffffffffffffffffffffffffff1614151515611a4457600080fd5b611a4e3382612e3c565b1515611a5957600080fd5b611a638382612d7a565b1515611a6e57600080fd5b611a79838383612ea8565b505050565b6000809054906101000a900473ffffffffffffffffffffffffffffffffffffffff1673ffffffffffffffffffffffffffffffffffffffff163373ffffffffffffffffffffffffffffffffffffffff16141515611ad957600080fd5b600073ffffffffffffffffffffffffffffffffffffffff168173ffffffffffffffffffffffffffffffffffffffff1614151515611b1557600080fd5b806000806101000a81548173ffffffffffffffffffffffffffffffffffffffff021916908373ffffffffffffffffffffffffffffffffffffffff16021790555050565b6000809054906101000a900473ffffffffffffffffffffffffffffffffffffffff1673ffffffffffffffffffffffffffffffffffffffff163373ffffffffffffffffffffffffffffffffffffffff16141515611bb357600080fd5b600073ffffffffffffffffffffffffffffffffffffffff168173ffffffffffffffffffffffffffffffffffffffff1614151515611bef57600080fd5b80600260006101000a81548173ffffffffffffffffffffffffffffffffffffffff021916908373ffffffffffffffffffffffffffffffffffffffff16021790555050565b6000809054906101000a900473ffffffffffffffffffffffffffffffffffffffff1673ffffffffffffffffffffffffffffffffffffffff163373ffffffffffffffffffffffffffffffffffffffff16141515611c8e57600080fd5b600260149054906101000a900460ff161515611ca957600080fd5b600073ffffffffffffffffffffffffffffffffffffffff16600860009054906101000a900473ffffffffffffffffffffffffffffffffffffffff1673ffffffffffffffffffffffffffffffffffffffff1614151515611d0757600080fd5b600073ffffffffffffffffffffffffffffffffffffffff16600c60009054906101000a900473ffffffffffffffffffffffffffffffffffffffff1673ffffffffffffffffffffffffffffffffffffffff16141515611d6457600080fd5b611d6c6130aa565b565b60076020528060005260406000206000915054906101000a900473ffffffffffffffffffffffffffffffffffffffff1681565b60056020528060005260406000206000915054906101000a900473ffffffffffffffffffffffffffffffffffffffff1681565b6000809054906101000a900473ffffffffffffffffffffffffffffffffffffffff1673ffffffffffffffffffffffffffffffffffffffff163373ffffffffffffffffffffffffffffffffffffffff16141515611e2f57600080fd5b600073ffffffffffffffffffffffffffffffffffffffff168173ffffffffffffffffffffffffffffffffffffffff1614151515611e6b57600080fd5b80600160006101000a81548173ffffffffffffffffffffffffffffffffffffffff021916908373ffffffffffffffffffffffffffffffffffffffff16021790555050565b600260009054906101000a900473ffffffffffffffffffffffffffffffffffffffff1673ffffffffffffffffffffffffffffffffffffffff163373ffffffffffffffffffffffffffffffffffffffff161480611f5757506000809054906101000a900473ffffffffffffffffffffffffffffffffffffffff1673ffffffffffffffffffffffffffffffffffffffff163373ffffffffffffffffffffffffffffffffffffffff16145b80611faf5750600160009054906101000a900473ffffffffffffffffffffffffffffffffffffffff1673ffffffffffffffffffffffffffffffffffffffff163373ffffffffffffffffffffffffffffffffffffffff16145b1515611fba57600080fd5b8060038190555050565b600260149054906101000a900460ff1681565b6000600160009054906101000a900473ffffffffffffffffffffffffffffffffffffffff1673ffffffffffffffffffffffffffffffffffffffff163373ffffffffffffffffffffffffffffffffffffffff1614151561203557600080fd5b3073ffffffffffffffffffffffffffffffffffffffff16319050600160009054906101000a900473ffffffffffffffffffffffffffffffffffffffff1673ffffffffffffffffffffffffffffffffffffffff166108fc829081150290604051600060405180830381858888f1935050505015156120b157600080fd5b50565b60006005600083815260200190815260200160002060009054906101000a900473ffffffffffffffffffffffffffffffffffffffff169050600073ffffffffffffffffffffffffffffffffffffffff168173ffffffffffffffffffffffffffffffffffffffff161415151561212857600080fd5b919050565b61afc881565b600c60009054906101000a900473ffffffffffffffffffffffffffffffffffffffff1681565b60008060009054906101000a900473ffffffffffffffffffffffffffffffffffffffff1673ffffffffffffffffffffffffffffffffffffffff163373ffffffffffffffffffffffffffffffffffffffff161415156121b657600080fd5b8190508073ffffffffffffffffffffffffffffffffffffffff166385b861886000604051602001526040518163ffffffff167c0100000000000000000000000000000000000000000000000000000000028152600401602060405180830381600087803b151561222557600080fd5b6102c65a03f1151561223657600080fd5b50505060405180519050151561224b57600080fd5b80600860006101000a81548173ffffffffffffffffffffffffffffffffffffffff021916908373ffffffffffffffffffffffffffffffffffffffff1602179055505050565b6000600660008373ffffffffffffffffffffffffffffffffffffffff1673ffffffffffffffffffffffffffffffffffffffff168152602001908152602001600020549050919050565b6000809054906101000a900473ffffffffffffffffffffffffffffffffffffffff1673ffffffffffffffffffffffffffffffffffffffff163373ffffffffffffffffffffffffffffffffffffffff1614151561233457600080fd5b600260149054906101000a900460ff16151561234f57600080fd5b80600c60006101000a81548173ffffffffffffffffffffffffffffffffffffffff021916908373ffffffffffffffffffffffffffffffffffffffff1602179055507f450db8da6efbe9c22f2347f7c2021231df1fc58d3ae9a2fa75d39fa44619930581604051808273ffffffffffffffffffffffffffffffffffffffff1673ffffffffffffffffffffffffffffffffffffffff16815260200191505060405180910390a150565b60035481565b600260009054906101000a900473ffffffffffffffffffffffffffffffffffffffff1673ffffffffffffffffffffffffffffffffffffffff163373ffffffffffffffffffffffffffffffffffffffff1614806124a457506000809054906101000a900473ffffffffffffffffffffffffffffffffffffffff1673ffffffffffffffffffffffffffffffffffffffff163373ffffffffffffffffffffffffffffffffffffffff16145b806124fc5750600160009054906101000a900473ffffffffffffffffffffffffffffffffffffffff1673ffffffffffffffffffffffffffffffffffffffff163373ffffffffffffffffffffffffffffffffffffffff16145b151561250757600080fd5b600260149054906101000a900460ff1615151561252357600080fd5b6001600260146101000a81548160ff021916908315150217905550565b61254861359e565b600061255261359e565b600080600061256087612290565b9450600085141561259257600060405180591061257a5750595b9080825280602002602001820160405250955061266d565b846040518059106125a05750595b908082528060200260200182016040525093506125bb611800565b925060009150600190505b8281111515612669578673ffffffffffffffffffffffffffffffffffffffff166005600083815260200190815260200160002060009054906101000a900473ffffffffffffffffffffffffffffffffffffffff1673ffffffffffffffffffffffffffffffffffffffff16141561265c5780848381518110151561264557fe5b906020019060200201818152505081806001019250505b80806001019150506125c6565b8395505b5050505050919050565b6040805190810160405280600281526020017f504300000000000000000000000000000000000000000000000000000000000081525081565b600260149054906101000a900460ff161515156126cc57600080fd5b600073ffffffffffffffffffffffffffffffffffffffff168273ffffffffffffffffffffffffffffffffffffffff161415151561270857600080fd5b3073ffffffffffffffffffffffffffffffffffffffff168273ffffffffffffffffffffffffffffffffffffffff161415151561274357600080fd5b600860009054906101000a900473ffffffffffffffffffffffffffffffffffffffff1673ffffffffffffffffffffffffffffffffffffffff168273ffffffffffffffffffffffffffffffffffffffff16141515156127a057600080fd5b6127aa3382612d7a565b15156127b557600080fd5b6127c0338383612ea8565b5050565b600260009054906101000a900473ffffffffffffffffffffffffffffffffffffffff1681565b60006001905090565b600960009054906101000a900473ffffffffffffffffffffffffffffffffffffffff1681565b60066020528060005260406000206000915090505481565b600042905090565b61138881565b6000809054906101000a900473ffffffffffffffffffffffffffffffffffffffff1673ffffffffffffffffffffffffffffffffffffffff163373ffffffffffffffffffffffffffffffffffffffff1614151561289a57600080fd5b80600960006101000a81548173ffffffffffffffffffffffffffffffffffffffff021916908373ffffffffffffffffffffffffffffffffffffffff16021790555050565b600860009054906101000a900473ffffffffffffffffffffffffffffffffffffffff1681565b6000600260009054906101000a900473ffffffffffffffffffffffffffffffffffffffff1673ffffffffffffffffffffffffffffffffffffffff163373ffffffffffffffffffffffffffffffffffffffff1614151561296257600080fd5b819050600073ffffffffffffffffffffffffffffffffffffffff168173ffffffffffffffffffffffffffffffffffffffff1614156129c057600260009054906101000a900473ffffffffffffffffffffffffffffffffffffffff1690505b611388600a541015156129d257600080fd5b600a60008154809291906001019190505550612a2184848080601f016020809104026020016040519081016040528093929190818152602001838380828437820191505050505050828361313d565b5050505050565b6000600260009054906101000a900473ffffffffffffffffffffffffffffffffffffffff1673ffffffffffffffffffffffffffffffffffffffff163373ffffffffffffffffffffffffffffffffffffffff16141515612a8657600080fd5b600260149054906101000a900460ff16151515612aa257600080fd5b60008263ffffffff16111515612ab757600080fd5b600090505b8163ffffffff16811015612ae357612ad583333361313d565b508080600101915050612abc565b505050565b600b5481565b6000600260009054906101000a900473ffffffffffffffffffffffffffffffffffffffff1673ffffffffffffffffffffffffffffffffffffffff163373ffffffffffffffffffffffffffffffffffffffff16141515612b4c57600080fd5b61afc8600b54101515612b5e57600080fd5b612b9b83838080601f016020809104026020016040519081016040528093929190818152602001838380828437820191505050505050303061313d565b9050612bc981600860009054906101000a900473ffffffffffffffffffffffffffffffffffffffff16612de6565b600860009054906101000a900473ffffffffffffffffffffffffffffffffffffffff1673ffffffffffffffffffffffffffffffffffffffff16636c3f8088826000612c12613411565b6103e860003062015180306040518963ffffffff167c0100000000000000000000000000000000000000000000000000000000028152600401808981526020018881526020018781526020018681526020018581526020018473ffffffffffffffffffffffffffffffffffffffff1673ffffffffffffffffffffffffffffffffffffffff1681526020018381526020018273ffffffffffffffffffffffffffffffffffffffff1673ffffffffffffffffffffffffffffffffffffffff16815260200198505050505050505050600060405180830381600087803b1515612cf757600080fd5b6102c65a03f11515612d0857600080fd5b505050600b60008154809291906001019190505550505050565b612d2a61355f565b612d3261355f565b60008084604051805910612d435750595b9080825280601f01601f19166020018201604052509250602083019150859050612d6e828287613514565b82935050505092915050565b60008273ffffffffffffffffffffffffffffffffffffffff166005600084815260200190815260200160002060009054906101000a900473ffffffffffffffffffffffffffffffffffffffff1673ffffffffffffffffffffffffffffffffffffffff1614905092915050565b806007600084815260200190815260200160002060006101000a81548173ffffffffffffffffffffffffffffffffffffffff021916908373ffffffffffffffffffffffffffffffffffffffff1602179055505050565b60008273ffffffffffffffffffffffffffffffffffffffff166007600084815260200190815260200160002060009054906101000a900473ffffffffffffffffffffffffffffffffffffffff1673ffffffffffffffffffffffffffffffffffffffff1614905092915050565b600660008373ffffffffffffffffffffffffffffffffffffffff1673ffffffffffffffffffffffffffffffffffffffff16815260200190815260200160002060008154809291906001019190505550816005600083815260200190815260200160002060006101000a81548173ffffffffffffffffffffffffffffffffffffffff021916908373ffffffffffffffffffffffffffffffffffffffff160217905550600073ffffffffffffffffffffffffffffffffffffffff168373ffffffffffffffffffffffffffffffffffffffff1614151561300657600660008473ffffffffffffffffffffffffffffffffffffffff1673ffffffffffffffffffffffffffffffffffffffff16815260200190815260200160002060008154809291906001900391905055506007600082815260200190815260200160002060006101000a81549073ffffffffffffffffffffffffffffffffffffffff02191690555b7fddf252ad1be2c89b69c2b068fc378daa952ba7f163c4a11628f55a4df523b3ef838383604051808473ffffffffffffffffffffffffffffffffffffffff1673ffffffffffffffffffffffffffffffffffffffff1681526020018373ffffffffffffffffffffffffffffffffffffffff1673ffffffffffffffffffffffffffffffffffffffff168152602001828152602001935050505060405180910390a1505050565b6000809054906101000a900473ffffffffffffffffffffffffffffffffffffffff1673ffffffffffffffffffffffffffffffffffffffff163373ffffffffffffffffffffffffffffffffffffffff1614151561310557600080fd5b600260149054906101000a900460ff16151561312057600080fd5b6000600260146101000a81548160ff021916908315150217905550565b60006131476135b2565b600060a0604051908101604052808781526020014267ffffffffffffffff168152602001602060405190810160405280600081525081526020018673ffffffffffffffffffffffffffffffffffffffff1681526020018573ffffffffffffffffffffffffffffffffffffffff1681525091506001600480548060010182816131cf9190613624565b916000526020600020906005020160008590919091506000820151816000019080519060200190613201929190613656565b5060208201518160010160006101000a81548167ffffffffffffffff021916908367ffffffffffffffff160217905550604082015181600201908051906020019061324d929190613656565b5060608201518160030160006101000a81548173ffffffffffffffffffffffffffffffffffffffff021916908373ffffffffffffffffffffffffffffffffffffffff16021790555060808201518160040160006101000a81548173ffffffffffffffffffffffffffffffffffffffff021916908373ffffffffffffffffffffffffffffffffffffffff16021790555050500390508063ffffffff16811415156132f557600080fd5b7f225c4790e418f4f69aa28361ed2bb2f785cb4a3c4f37b8e3024c44d5d9a8a120848787604051808473ffffffffffffffffffffffffffffffffffffffff1673ffffffffffffffffffffffffffffffffffffffff168152602001806020018373ffffffffffffffffffffffffffffffffffffffff1673ffffffffffffffffffffffffffffffffffffffff168152602001828103825284818151815260200191508051906020019080838360005b838110156133bd5780820151818401526020810190506133a2565b50505050905090810190601f1680156133ea5780820380516001836020036101000a031916815260200191505b5094505050505060405180910390a161340560008583612ea8565b80925050509392505050565b6000806000600860009054906101000a900473ffffffffffffffffffffffffffffffffffffffff1673ffffffffffffffffffffffffffffffffffffffff1663eac9d94c6000604051602001526040518163ffffffff167c0100000000000000000000000000000000000000000000000000000000028152600401602060405180830381600087803b15156134a457600080fd5b6102c65a03f115156134b557600080fd5b505050604051805190509150816fffffffffffffffffffffffffffffffff16821415156134e157600080fd5b6002828115156134ed57fe5b0482019050662386f26fc1000081101561350c57662386f26fc1000090505b809250505090565b60005b60208210151561353c5782518452602084019350602083019250602082039150613517565b6001826020036101000a0390508019835116818551168181178652505050505050565b602060405190810160405280600081525090565b6080604051908101604052806004905b60008019168152602001906001900390816135835790505090565b602060405190810160405280600081525090565b60a0604051908101604052806135c66136d6565b8152602001600067ffffffffffffffff1681526020016135e46136d6565b8152602001600073ffffffffffffffffffffffffffffffffffffffff168152602001600073ffffffffffffffffffffffffffffffffffffffff1681525090565b8154818355818115116136515760050281600502836000526020600020918201910161365091906136ea565b5b505050565b828054600181600116156101000203166002900490600052602060002090601f016020900481019282601f1061369757805160ff19168380011785556136c5565b828001600101855582156136c5579182015b828111156136c45782518255916020019190600101906136a9565b5b5090506136d29190613792565b5090565b602060405190810160405280600081525090565b61378f91905b8082111561378b576000808201600061370991906137b7565b6001820160006101000a81549067ffffffffffffffff021916905560028201600061373491906137b7565b6003820160006101000a81549073ffffffffffffffffffffffffffffffffffffffff02191690556004820160006101000a81549073ffffffffffffffffffffffffffffffffffffffff0219169055506005016136f0565b5090565b90565b6137b491905b808211156137b0576000816000905550600101613798565b5090565b90565b50805460018160011615610100020316600290046000825580601f106137dd57506137fc565b601f0160209004906000526020600020908101906137fb9190613792565b5b505600a165627a7a72305820c956e5cecf4f44494716a3051c0647b1400e50b2ab0d1b188267887d1fcdba730029",
  "source": "pragma solidity ^0.4.18;\n\nimport \"./PictureCore.sol\";\n\n\n/// @title Kitty core with extra test fn and overrides\ncontract PictureCoreTest is PictureCore {\n    // https://ethereum.stackexchange.com/questions/16318/inherited-constructors\n    function PictureCoreTest() public {\n    }\n\n    /*** ALL TEST FUNCTIONS GO HERE: ***/\n\n    /// @dev Contract owner can create kittens at will (test-only)\n    /// @param _hash the actual genetic load of kittens\n    /// @param _cloneCount how many are being created\n    function mintPictures(string _hash, uint32 _cloneCount) public onlyCOO whenNotPaused {\n        // NOTE: this method should be removed after ETHWaterloo\n        // require(_hash > 0);\n        require(_cloneCount > 0);\n\n        for (uint256 i = 0; i < _cloneCount; i++) {\n            _createPictureWithArtist(_hash, msg.sender, msg.sender);\n        }\n    }\n\n    /// @dev for tests we can easily fund the contract\n    function fundMe() public payable returns (bool) {\n        return true;\n    }\n\n    function timeNow() public constant returns (uint256) {\n        return now;\n    }\n}\n",
  "sourcePath": "/Users/blockchain/work/code/elforce/Auction/client/contracts/PictureCoreTest.sol",
  "compiler": {
    "name": "solc",
    "version": "0.4.18+commit.9cf6e910.Emscripten.clang"
  },
  "schemaVersion": "1.0.1",
  "updatedAt": "2018-05-08T14:03:01.353Z"
}