{
  "contractName": "PictureMinting",
  "abi": [
    {
      "constant": true,
      "inputs": [
        {
          "name": "_interfaceID",
          "type": "bytes4"
        }
      ],
      "name": "supportsInterface",
      "outputs": [
        {
          "name": "",
          "type": "bool"
        }
      ],
      "payable": false,
      "stateMutability": "view",
      "type": "function"
    },
    {
      "constant": true,
      "inputs": [],
      "name": "cfoAddress",
      "outputs": [
        {
          "name": "",
          "type": "address"
        }
      ],
      "payable": false,
      "stateMutability": "view",
      "type": "function"
    },
    {
      "constant": true,
      "inputs": [
        {
          "name": "_tokenId",
          "type": "uint256"
        },
        {
          "name": "_preferredTransport",
          "type": "string"
        }
      ],
      "name": "tokenMetadata",
      "outputs": [
        {
          "name": "infoUrl",
          "type": "string"
        }
      ],
      "payable": false,
      "stateMutability": "view",
      "type": "function"
    },
    {
      "constant": true,
      "inputs": [],
      "name": "promoCreatedCount",
      "outputs": [
        {
          "name": "",
          "type": "uint256"
        }
      ],
      "payable": false,
      "stateMutability": "view",
      "type": "function"
    },
    {
      "constant": true,
      "inputs": [],
      "name": "name",
      "outputs": [
        {
          "name": "",
          "type": "string"
        }
      ],
      "payable": false,
      "stateMutability": "view",
      "type": "function"
    },
    {
      "constant": false,
      "inputs": [
        {
          "name": "_to",
          "type": "address"
        },
        {
          "name": "_tokenId",
          "type": "uint256"
        }
      ],
      "name": "approve",
      "outputs": [],
      "payable": false,
      "stateMutability": "nonpayable",
      "type": "function"
    },
    {
      "constant": true,
      "inputs": [],
      "name": "ceoAddress",
      "outputs": [
        {
          "name": "",
          "type": "address"
        }
      ],
      "payable": false,
      "stateMutability": "view",
      "type": "function"
    },
    {
      "constant": true,
      "inputs": [],
      "name": "GEN0_STARTING_PRICE",
      "outputs": [
        {
          "name": "",
          "type": "uint256"
        }
      ],
      "payable": false,
      "stateMutability": "view",
      "type": "function"
    },
    {
      "constant": true,
      "inputs": [],
      "name": "totalSupply",
      "outputs": [
        {
          "name": "",
          "type": "uint256"
        }
      ],
      "payable": false,
      "stateMutability": "view",
      "type": "function"
    },
    {
      "constant": true,
      "inputs": [],
      "name": "GEN0_AUCTION_DURATION",
      "outputs": [
        {
          "name": "",
          "type": "uint256"
        }
      ],
      "payable": false,
      "stateMutability": "view",
      "type": "function"
    },
    {
      "constant": false,
      "inputs": [
        {
          "name": "_from",
          "type": "address"
        },
        {
          "name": "_to",
          "type": "address"
        },
        {
          "name": "_tokenId",
          "type": "uint256"
        }
      ],
      "name": "transferFrom",
      "outputs": [],
      "payable": false,
      "stateMutability": "nonpayable",
      "type": "function"
    },
    {
      "constant": false,
      "inputs": [
        {
          "name": "_newCEO",
          "type": "address"
        }
      ],
      "name": "setCEO",
      "outputs": [],
      "payable": false,
      "stateMutability": "nonpayable",
      "type": "function"
    },
    {
      "constant": false,
      "inputs": [
        {
          "name": "_newCOO",
          "type": "address"
        }
      ],
      "name": "setCOO",
      "outputs": [],
      "payable": false,
      "stateMutability": "nonpayable",
      "type": "function"
    },
    {
      "constant": false,
      "inputs": [
        {
          "name": "_pictureId",
          "type": "uint256"
        },
        {
          "name": "_auctionType",
          "type": "uint256"
        },
        {
          "name": "_Price",
          "type": "uint256"
        },
        {
          "name": "_commission",
          "type": "uint256"
        },
        {
          "name": "_brokerage",
          "type": "uint256"
        },
        {
          "name": "_styleOwner",
          "type": "address"
        },
        {
          "name": "_duration",
          "type": "uint256"
        },
        {
          "name": "_isGoods",
          "type": "bool"
        }
      ],
      "name": "createSaleAuction",
      "outputs": [],
      "payable": false,
      "stateMutability": "nonpayable",
      "type": "function"
    },
    {
      "constant": false,
      "inputs": [],
      "name": "unpause",
      "outputs": [],
      "payable": false,
      "stateMutability": "nonpayable",
      "type": "function"
    },
    {
      "constant": true,
      "inputs": [
        {
          "name": "",
          "type": "uint256"
        }
      ],
      "name": "pictureIndexToApproved",
      "outputs": [
        {
          "name": "",
          "type": "address"
        }
      ],
      "payable": false,
      "stateMutability": "view",
      "type": "function"
    },
    {
      "constant": true,
      "inputs": [
        {
          "name": "",
          "type": "uint256"
        }
      ],
      "name": "pictureIndexToOwner",
      "outputs": [
        {
          "name": "",
          "type": "address"
        }
      ],
      "payable": false,
      "stateMutability": "view",
      "type": "function"
    },
    {
      "constant": false,
      "inputs": [
        {
          "name": "_newCFO",
          "type": "address"
        }
      ],
      "name": "setCFO",
      "outputs": [],
      "payable": false,
      "stateMutability": "nonpayable",
      "type": "function"
    },
    {
      "constant": false,
      "inputs": [
        {
          "name": "secs",
          "type": "uint256"
        }
      ],
      "name": "setSecondsPerBlock",
      "outputs": [],
      "payable": false,
      "stateMutability": "nonpayable",
      "type": "function"
    },
    {
      "constant": true,
      "inputs": [],
      "name": "paused",
      "outputs": [
        {
          "name": "",
          "type": "bool"
        }
      ],
      "payable": false,
      "stateMutability": "view",
      "type": "function"
    },
    {
      "constant": true,
      "inputs": [
        {
          "name": "_tokenId",
          "type": "uint256"
        }
      ],
      "name": "ownerOf",
      "outputs": [
        {
          "name": "owner",
          "type": "address"
        }
      ],
      "payable": false,
      "stateMutability": "view",
      "type": "function"
    },
    {
      "constant": true,
      "inputs": [],
      "name": "GEN0_CREATION_LIMIT",
      "outputs": [
        {
          "name": "",
          "type": "uint256"
        }
      ],
      "payable": false,
      "stateMutability": "view",
      "type": "function"
    },
    {
      "constant": false,
      "inputs": [
        {
          "name": "_address",
          "type": "address"
        }
      ],
      "name": "setSaleAuctionAddress",
      "outputs": [],
      "payable": false,
      "stateMutability": "nonpayable",
      "type": "function"
    },
    {
      "constant": true,
      "inputs": [
        {
          "name": "_owner",
          "type": "address"
        }
      ],
      "name": "balanceOf",
      "outputs": [
        {
          "name": "count",
          "type": "uint256"
        }
      ],
      "payable": false,
      "stateMutability": "view",
      "type": "function"
    },
    {
      "constant": true,
      "inputs": [],
      "name": "secondsPerBlock",
      "outputs": [
        {
          "name": "",
          "type": "uint256"
        }
      ],
      "payable": false,
      "stateMutability": "view",
      "type": "function"
    },
    {
      "constant": false,
      "inputs": [],
      "name": "pause",
      "outputs": [],
      "payable": false,
      "stateMutability": "nonpayable",
      "type": "function"
    },
    {
      "constant": true,
      "inputs": [
        {
          "name": "_owner",
          "type": "address"
        }
      ],
      "name": "tokensOfOwner",
      "outputs": [
        {
          "name": "ownerTokens",
          "type": "uint256[]"
        }
      ],
      "payable": false,
      "stateMutability": "view",
      "type": "function"
    },
    {
      "constant": true,
      "inputs": [],
      "name": "symbol",
      "outputs": [
        {
          "name": "",
          "type": "string"
        }
      ],
      "payable": false,
      "stateMutability": "view",
      "type": "function"
    },
    {
      "constant": false,
      "inputs": [
        {
          "name": "_to",
          "type": "address"
        },
        {
          "name": "_tokenId",
          "type": "uint256"
        }
      ],
      "name": "transfer",
      "outputs": [],
      "payable": false,
      "stateMutability": "nonpayable",
      "type": "function"
    },
    {
      "constant": true,
      "inputs": [],
      "name": "cooAddress",
      "outputs": [
        {
          "name": "",
          "type": "address"
        }
      ],
      "payable": false,
      "stateMutability": "view",
      "type": "function"
    },
    {
      "constant": true,
      "inputs": [],
      "name": "erc721Metadata",
      "outputs": [
        {
          "name": "",
          "type": "address"
        }
      ],
      "payable": false,
      "stateMutability": "view",
      "type": "function"
    },
    {
      "constant": true,
      "inputs": [
        {
          "name": "",
          "type": "address"
        }
      ],
      "name": "ownershipTokenCount",
      "outputs": [
        {
          "name": "",
          "type": "uint256"
        }
      ],
      "payable": false,
      "stateMutability": "view",
      "type": "function"
    },
    {
      "constant": true,
      "inputs": [],
      "name": "PROMO_CREATION_LIMIT",
      "outputs": [
        {
          "name": "",
          "type": "uint256"
        }
      ],
      "payable": false,
      "stateMutability": "view",
      "type": "function"
    },
    {
      "constant": false,
      "inputs": [
        {
          "name": "_contractAddress",
          "type": "address"
        }
      ],
      "name": "setMetadataAddress",
      "outputs": [],
      "payable": false,
      "stateMutability": "nonpayable",
      "type": "function"
    },
    {
      "constant": true,
      "inputs": [],
      "name": "saleAuction",
      "outputs": [
        {
          "name": "",
          "type": "address"
        }
      ],
      "payable": false,
      "stateMutability": "view",
      "type": "function"
    },
    {
      "constant": false,
      "inputs": [
        {
          "name": "_hash",
          "type": "string"
        },
        {
          "name": "_owner",
          "type": "address"
        }
      ],
      "name": "createPromoPicture",
      "outputs": [],
      "payable": false,
      "stateMutability": "nonpayable",
      "type": "function"
    },
    {
      "constant": true,
      "inputs": [],
      "name": "gen0CreatedCount",
      "outputs": [
        {
          "name": "",
          "type": "uint256"
        }
      ],
      "payable": false,
      "stateMutability": "view",
      "type": "function"
    },
    {
      "constant": false,
      "inputs": [
        {
          "name": "_hash",
          "type": "string"
        }
      ],
      "name": "createGen0Auction",
      "outputs": [],
      "payable": false,
      "stateMutability": "nonpayable",
      "type": "function"
    },
    {
      "anonymous": false,
      "inputs": [
        {
          "indexed": false,
          "name": "from",
          "type": "address"
        },
        {
          "indexed": false,
          "name": "to",
          "type": "address"
        },
        {
          "indexed": false,
          "name": "tokenId",
          "type": "uint256"
        }
      ],
      "name": "Transfer",
      "type": "event"
    },
    {
      "anonymous": false,
      "inputs": [
        {
          "indexed": false,
          "name": "owner",
          "type": "address"
        },
        {
          "indexed": false,
          "name": "approved",
          "type": "address"
        },
        {
          "indexed": false,
          "name": "tokenId",
          "type": "uint256"
        }
      ],
      "name": "Approval",
      "type": "event"
    },
    {
      "anonymous": false,
      "inputs": [
        {
          "indexed": false,
          "name": "owner",
          "type": "address"
        },
        {
          "indexed": false,
          "name": "hashValue",
          "type": "string"
        },
        {
          "indexed": false,
          "name": "styleHash",
          "type": "string"
        },
        {
          "indexed": false,
          "name": "styleOwner",
          "type": "address"
        }
      ],
      "name": "CreatePictureWithStyle",
      "type": "event"
    },
    {
      "anonymous": false,
      "inputs": [
        {
          "indexed": false,
          "name": "owner",
          "type": "address"
        },
        {
          "indexed": false,
          "name": "hashValue",
          "type": "string"
        },
        {
          "indexed": false,
          "name": "styleOwner",
          "type": "address"
        }
      ],
      "name": "CreatePictureWithArtist",
      "type": "event"
    },
    {
      "anonymous": false,
      "inputs": [
        {
          "indexed": false,
          "name": "owner",
          "type": "address"
        },
        {
          "indexed": false,
          "name": "hashValue",
          "type": "string"
        }
      ],
      "name": "CreatePicture",
      "type": "event"
    },
    {
      "anonymous": false,
      "inputs": [
        {
          "indexed": false,
          "name": "newContract",
          "type": "address"
        }
      ],
      "name": "ContractUpgrade",
      "type": "event"
    }
  ],
  "bytecode": "0x60606040526000600260146101000a81548160ff021916908315150217905550600f600355341561002f57600080fd5b612ea58061003e6000396000f3006060604052600436106101d8576000357c0100000000000000000000000000000000000000000000000000000000900463ffffffff16806301ffc9a7146101dd5780630519ce79146102375780630560ff441461028c57806305e455461461033c57806306fdde0314610365578063095ea7b3146103f35780630a0f8168146104355780630e583df01461048a57806318160ddd146104b357806319c2f201146104dc57806323b872dd1461050557806327d7874c146105665780632ba73c151461059f5780633641083d146105d85780633f4ba83a1461065257806347854d0f14610667578063487a6fde146106ca5780634e0a33791461072d5780635663896e146107665780635c975abb146107895780636352211e146107b6578063680eba27146108195780636fbde40d1461084257806370a082311461087b5780637a7d4937146108c85780638456cb59146108f15780638462151c1461090657806395d89b4114610994578063a9059cbb14610a22578063b047fb5014610a64578063bc4006f514610ab9578063cec21acb14610b0e578063defb958414610b5b578063e17b25af14610b84578063e6cbe35114610bbd578063e99b525a14610c12578063f1ca941014610c5f578063fc63e81c14610c88575b600080fd5b34156101e857600080fd5b61021d60048080357bffffffffffffffffffffffffffffffffffffffffffffffffffffffff1916906020019091905050610cb6565b604051808215151515815260200191505060405180910390f35b341561024257600080fd5b61024a610fc7565b604051808273ffffffffffffffffffffffffffffffffffffffff1673ffffffffffffffffffffffffffffffffffffffff16815260200191505060405180910390f35b341561029757600080fd5b6102c160048080359060200190919080359060200190820180359060200191909192905050610fed565b6040518080602001828103825283818151815260200191508051906020019080838360005b838110156103015780820151818401526020810190506102e6565b50505050905090810190601f16801561032e5780820380516001836020036101000a031916815260200191505b509250505060405180910390f35b341561034757600080fd5b61034f611158565b6040518082815260200191505060405180910390f35b341561037057600080fd5b61037861115e565b6040518080602001828103825283818151815260200191508051906020019080838360005b838110156103b857808201518184015260208101905061039d565b50505050905090810190601f1680156103e55780820380516001836020036101000a031916815260200191505b509250505060405180910390f35b34156103fe57600080fd5b610433600480803573ffffffffffffffffffffffffffffffffffffffff16906020019091908035906020019091905050611197565b005b341561044057600080fd5b610448611275565b604051808273ffffffffffffffffffffffffffffffffffffffff1673ffffffffffffffffffffffffffffffffffffffff16815260200191505060405180910390f35b341561049557600080fd5b61049d61129a565b6040518082815260200191505060405180910390f35b34156104be57600080fd5b6104c66112a5565b6040518082815260200191505060405180910390f35b34156104e757600080fd5b6104ef6112b5565b6040518082815260200191505060405180910390f35b341561051057600080fd5b610564600480803573ffffffffffffffffffffffffffffffffffffffff1690602001909190803573ffffffffffffffffffffffffffffffffffffffff169060200190919080359060200190919050506112bc565b005b341561057157600080fd5b61059d600480803573ffffffffffffffffffffffffffffffffffffffff16906020019091905050611389565b005b34156105aa57600080fd5b6105d6600480803573ffffffffffffffffffffffffffffffffffffffff16906020019091905050611463565b005b34156105e357600080fd5b610650600480803590602001909190803590602001909190803590602001909190803590602001909190803590602001909190803573ffffffffffffffffffffffffffffffffffffffff16906020019091908035906020019091908035151590602001909190505061153e565b005b341561065d57600080fd5b6106656116d9565b005b341561067257600080fd5b610688600480803590602001909190505061176c565b604051808273ffffffffffffffffffffffffffffffffffffffff1673ffffffffffffffffffffffffffffffffffffffff16815260200191505060405180910390f35b34156106d557600080fd5b6106eb600480803590602001909190505061179f565b604051808273ffffffffffffffffffffffffffffffffffffffff1673ffffffffffffffffffffffffffffffffffffffff16815260200191505060405180910390f35b341561073857600080fd5b610764600480803573ffffffffffffffffffffffffffffffffffffffff169060200190919050506117d2565b005b341561077157600080fd5b61078760048080359060200190919050506118ad565b005b341561079457600080fd5b61079c6119c2565b604051808215151515815260200191505060405180910390f35b34156107c157600080fd5b6107d760048080359060200190919050506119d5565b604051808273ffffffffffffffffffffffffffffffffffffffff1673ffffffffffffffffffffffffffffffffffffffff16815260200191505060405180910390f35b341561082457600080fd5b61082c611a4e565b6040518082815260200191505060405180910390f35b341561084d57600080fd5b610879600480803573ffffffffffffffffffffffffffffffffffffffff16906020019091905050611a54565b005b341561088657600080fd5b6108b2600480803573ffffffffffffffffffffffffffffffffffffffff16906020019091905050611b8b565b6040518082815260200191505060405180910390f35b34156108d357600080fd5b6108db611bd4565b6040518082815260200191505060405180910390f35b34156108fc57600080fd5b610904611bda565b005b341561091157600080fd5b61093d600480803573ffffffffffffffffffffffffffffffffffffffff16906020019091905050611d1e565b6040518080602001828103825283818151815260200191508051906020019060200280838360005b83811015610980578082015181840152602081019050610965565b505050509050019250505060405180910390f35b341561099f57600080fd5b6109a7611e55565b6040518080602001828103825283818151815260200191508051906020019080838360005b838110156109e75780820151818401526020810190506109cc565b50505050905090810190601f168015610a145780820380516001836020036101000a031916815260200191505b509250505060405180910390f35b3415610a2d57600080fd5b610a62600480803573ffffffffffffffffffffffffffffffffffffffff16906020019091908035906020019091905050611e8e565b005b3415610a6f57600080fd5b610a77611fa2565b604051808273ffffffffffffffffffffffffffffffffffffffff1673ffffffffffffffffffffffffffffffffffffffff16815260200191505060405180910390f35b3415610ac457600080fd5b610acc611fc8565b604051808273ffffffffffffffffffffffffffffffffffffffff1673ffffffffffffffffffffffffffffffffffffffff16815260200191505060405180910390f35b3415610b1957600080fd5b610b45600480803573ffffffffffffffffffffffffffffffffffffffff16906020019091905050611fee565b6040518082815260200191505060405180910390f35b3415610b6657600080fd5b610b6e612006565b6040518082815260200191505060405180910390f35b3415610b8f57600080fd5b610bbb600480803573ffffffffffffffffffffffffffffffffffffffff1690602001909190505061200c565b005b3415610bc857600080fd5b610bd06120ab565b604051808273ffffffffffffffffffffffffffffffffffffffff1673ffffffffffffffffffffffffffffffffffffffff16815260200191505060405180910390f35b3415610c1d57600080fd5b610c5d6004808035906020019082018035906020019190919290803573ffffffffffffffffffffffffffffffffffffffff169060200190919050506120d1565b005b3415610c6a57600080fd5b610c726121f5565b6040518082815260200191505060405180910390f35b3415610c9357600080fd5b610cb4600480803590602001908201803590602001919091929050506121fb565b005b600060405180807f737570706f727473496e74657266616365286279746573342900000000000000815250601901905060405180910390207bffffffffffffffffffffffffffffffffffffffffffffffffffffffff1916827bffffffffffffffffffffffffffffffffffffffffffffffffffffffff19161480610fc0575060405180807f746f6b656e4d657461646174612875696e743235362c737472696e6729000000815250601d019050604051809103902060405180807f746f6b656e734f664f776e6572286164647265737329000000000000000000008152506016019050604051809103902060405180807f7472616e7366657246726f6d28616464726573732c616464726573732c75696e81526020017f74323536290000000000000000000000000000000000000000000000000000008152506025019050604051809103902060405180807f7472616e7366657228616464726573732c75696e7432353629000000000000008152506019019050604051809103902060405180807f617070726f766528616464726573732c75696e743235362900000000000000008152506018019050604051809103902060405180807f6f776e65724f662875696e7432353629000000000000000000000000000000008152506010019050604051809103902060405180807f62616c616e63654f6628616464726573732900000000000000000000000000008152506012019050604051809103902060405180807f746f74616c537570706c79282900000000000000000000000000000000000000815250600d019050604051809103902060405180807f73796d626f6c28290000000000000000000000000000000000000000000000008152506008019050604051809103902060405180807f6e616d6528290000000000000000000000000000000000000000000000000000815250600601905060405180910390201818181818181818187bffffffffffffffffffffffffffffffffffffffffffffffffffffffff1916827bffffffffffffffffffffffffffffffffffffffffffffffffffffffff1916145b9050919050565b600160009054906101000a900473ffffffffffffffffffffffffffffffffffffffff1681565b610ff5612bd9565b610ffd612bed565b60008073ffffffffffffffffffffffffffffffffffffffff16600960009054906101000a900473ffffffffffffffffffffffffffffffffffffffff1673ffffffffffffffffffffffffffffffffffffffff161415151561105c57600080fd5b600960009054906101000a900473ffffffffffffffffffffffffffffffffffffffff1673ffffffffffffffffffffffffffffffffffffffff1663cb4799f2878787600060405160a001526040518463ffffffff167c010000000000000000000000000000000000000000000000000000000002815260040180848152602001806020018281038252848482818152602001925080828437820191505094505050505060a060405180830381600087803b151561111757600080fd5b6102c65a03f1151561112857600080fd5b50505060405180608001805190602001604052809250819350505061114d828261242f565b925050509392505050565b600a5481565b6040805190810160405280600c81526020017f50696374757265436861696e000000000000000000000000000000000000000081525081565b600260149054906101000a900460ff161515156111b357600080fd5b6111bd3382612487565b15156111c857600080fd5b6111d281836124f3565b7f8c5be1e5ebec7d5bd14f71427d1e84f3dd0314c0f7b2291e5b200ac8c7c3b925338383604051808473ffffffffffffffffffffffffffffffffffffffff1673ffffffffffffffffffffffffffffffffffffffff1681526020018373ffffffffffffffffffffffffffffffffffffffff1673ffffffffffffffffffffffffffffffffffffffff168152602001828152602001935050505060405180910390a15050565b6000809054906101000a900473ffffffffffffffffffffffffffffffffffffffff1681565b662386f26fc1000081565b6000600160048054905003905090565b6201518081565b600260149054906101000a900460ff161515156112d857600080fd5b600073ffffffffffffffffffffffffffffffffffffffff168273ffffffffffffffffffffffffffffffffffffffff161415151561131457600080fd5b3073ffffffffffffffffffffffffffffffffffffffff168273ffffffffffffffffffffffffffffffffffffffff161415151561134f57600080fd5b6113593382612549565b151561136457600080fd5b61136e8382612487565b151561137957600080fd5b6113848383836125b5565b505050565b6000809054906101000a900473ffffffffffffffffffffffffffffffffffffffff1673ffffffffffffffffffffffffffffffffffffffff163373ffffffffffffffffffffffffffffffffffffffff161415156113e457600080fd5b600073ffffffffffffffffffffffffffffffffffffffff168173ffffffffffffffffffffffffffffffffffffffff161415151561142057600080fd5b806000806101000a81548173ffffffffffffffffffffffffffffffffffffffff021916908373ffffffffffffffffffffffffffffffffffffffff16021790555050565b6000809054906101000a900473ffffffffffffffffffffffffffffffffffffffff1673ffffffffffffffffffffffffffffffffffffffff163373ffffffffffffffffffffffffffffffffffffffff161415156114be57600080fd5b600073ffffffffffffffffffffffffffffffffffffffff168173ffffffffffffffffffffffffffffffffffffffff16141515156114fa57600080fd5b80600260006101000a81548173ffffffffffffffffffffffffffffffffffffffff021916908373ffffffffffffffffffffffffffffffffffffffff16021790555050565b600260149054906101000a900460ff1615151561155a57600080fd5b6115643389612487565b151561156f57600080fd5b61159b88600860009054906101000a900473ffffffffffffffffffffffffffffffffffffffff166124f3565b600860009054906101000a900473ffffffffffffffffffffffffffffffffffffffff1673ffffffffffffffffffffffffffffffffffffffff16636c3f808889898989898989336040518963ffffffff167c0100000000000000000000000000000000000000000000000000000000028152600401808981526020018881526020018781526020018681526020018581526020018473ffffffffffffffffffffffffffffffffffffffff1673ffffffffffffffffffffffffffffffffffffffff1681526020018381526020018273ffffffffffffffffffffffffffffffffffffffff1673ffffffffffffffffffffffffffffffffffffffff16815260200198505050505050505050600060405180830381600087803b15156116bb57600080fd5b6102c65a03f115156116cc57600080fd5b5050505050505050505050565b6000809054906101000a900473ffffffffffffffffffffffffffffffffffffffff1673ffffffffffffffffffffffffffffffffffffffff163373ffffffffffffffffffffffffffffffffffffffff1614151561173457600080fd5b600260149054906101000a900460ff16151561174f57600080fd5b6000600260146101000a81548160ff021916908315150217905550565b60076020528060005260406000206000915054906101000a900473ffffffffffffffffffffffffffffffffffffffff1681565b60056020528060005260406000206000915054906101000a900473ffffffffffffffffffffffffffffffffffffffff1681565b6000809054906101000a900473ffffffffffffffffffffffffffffffffffffffff1673ffffffffffffffffffffffffffffffffffffffff163373ffffffffffffffffffffffffffffffffffffffff1614151561182d57600080fd5b600073ffffffffffffffffffffffffffffffffffffffff168173ffffffffffffffffffffffffffffffffffffffff161415151561186957600080fd5b80600160006101000a81548173ffffffffffffffffffffffffffffffffffffffff021916908373ffffffffffffffffffffffffffffffffffffffff16021790555050565b600260009054906101000a900473ffffffffffffffffffffffffffffffffffffffff1673ffffffffffffffffffffffffffffffffffffffff163373ffffffffffffffffffffffffffffffffffffffff16148061195557506000809054906101000a900473ffffffffffffffffffffffffffffffffffffffff1673ffffffffffffffffffffffffffffffffffffffff163373ffffffffffffffffffffffffffffffffffffffff16145b806119ad5750600160009054906101000a900473ffffffffffffffffffffffffffffffffffffffff1673ffffffffffffffffffffffffffffffffffffffff163373ffffffffffffffffffffffffffffffffffffffff16145b15156119b857600080fd5b8060038190555050565b600260149054906101000a900460ff1681565b60006005600083815260200190815260200160002060009054906101000a900473ffffffffffffffffffffffffffffffffffffffff169050600073ffffffffffffffffffffffffffffffffffffffff168173ffffffffffffffffffffffffffffffffffffffff1614151515611a4957600080fd5b919050565b61afc881565b60008060009054906101000a900473ffffffffffffffffffffffffffffffffffffffff1673ffffffffffffffffffffffffffffffffffffffff163373ffffffffffffffffffffffffffffffffffffffff16141515611ab157600080fd5b8190508073ffffffffffffffffffffffffffffffffffffffff166385b861886000604051602001526040518163ffffffff167c0100000000000000000000000000000000000000000000000000000000028152600401602060405180830381600087803b1515611b2057600080fd5b6102c65a03f11515611b3157600080fd5b505050604051805190501515611b4657600080fd5b80600860006101000a81548173ffffffffffffffffffffffffffffffffffffffff021916908373ffffffffffffffffffffffffffffffffffffffff1602179055505050565b6000600660008373ffffffffffffffffffffffffffffffffffffffff1673ffffffffffffffffffffffffffffffffffffffff168152602001908152602001600020549050919050565b60035481565b600260009054906101000a900473ffffffffffffffffffffffffffffffffffffffff1673ffffffffffffffffffffffffffffffffffffffff163373ffffffffffffffffffffffffffffffffffffffff161480611c8257506000809054906101000a900473ffffffffffffffffffffffffffffffffffffffff1673ffffffffffffffffffffffffffffffffffffffff163373ffffffffffffffffffffffffffffffffffffffff16145b80611cda5750600160009054906101000a900473ffffffffffffffffffffffffffffffffffffffff1673ffffffffffffffffffffffffffffffffffffffff163373ffffffffffffffffffffffffffffffffffffffff16145b1515611ce557600080fd5b600260149054906101000a900460ff16151515611d0157600080fd5b6001600260146101000a81548160ff021916908315150217905550565b611d26612c18565b6000611d30612c18565b6000806000611d3e87611b8b565b94506000851415611d70576000604051805910611d585750595b90808252806020026020018201604052509550611e4b565b84604051805910611d7e5750595b90808252806020026020018201604052509350611d996112a5565b925060009150600190505b8281111515611e47578673ffffffffffffffffffffffffffffffffffffffff166005600083815260200190815260200160002060009054906101000a900473ffffffffffffffffffffffffffffffffffffffff1673ffffffffffffffffffffffffffffffffffffffff161415611e3a57808483815181101515611e2357fe5b906020019060200201818152505081806001019250505b8080600101915050611da4565b8395505b5050505050919050565b6040805190810160405280600281526020017f504300000000000000000000000000000000000000000000000000000000000081525081565b600260149054906101000a900460ff16151515611eaa57600080fd5b600073ffffffffffffffffffffffffffffffffffffffff168273ffffffffffffffffffffffffffffffffffffffff1614151515611ee657600080fd5b3073ffffffffffffffffffffffffffffffffffffffff168273ffffffffffffffffffffffffffffffffffffffff1614151515611f2157600080fd5b600860009054906101000a900473ffffffffffffffffffffffffffffffffffffffff1673ffffffffffffffffffffffffffffffffffffffff168273ffffffffffffffffffffffffffffffffffffffff1614151515611f7e57600080fd5b611f883382612487565b1515611f9357600080fd5b611f9e3383836125b5565b5050565b600260009054906101000a900473ffffffffffffffffffffffffffffffffffffffff1681565b600960009054906101000a900473ffffffffffffffffffffffffffffffffffffffff1681565b60066020528060005260406000206000915090505481565b61138881565b6000809054906101000a900473ffffffffffffffffffffffffffffffffffffffff1673ffffffffffffffffffffffffffffffffffffffff163373ffffffffffffffffffffffffffffffffffffffff1614151561206757600080fd5b80600960006101000a81548173ffffffffffffffffffffffffffffffffffffffff021916908373ffffffffffffffffffffffffffffffffffffffff16021790555050565b600860009054906101000a900473ffffffffffffffffffffffffffffffffffffffff1681565b6000600260009054906101000a900473ffffffffffffffffffffffffffffffffffffffff1673ffffffffffffffffffffffffffffffffffffffff163373ffffffffffffffffffffffffffffffffffffffff1614151561212f57600080fd5b819050600073ffffffffffffffffffffffffffffffffffffffff168173ffffffffffffffffffffffffffffffffffffffff16141561218d57600260009054906101000a900473ffffffffffffffffffffffffffffffffffffffff1690505b611388600a5410151561219f57600080fd5b600a600081548092919060010191905055506121ee84848080601f01602080910402602001604051908101604052809392919081815260200183838082843782019150505050505082836127b7565b5050505050565b600b5481565b6000600260009054906101000a900473ffffffffffffffffffffffffffffffffffffffff1673ffffffffffffffffffffffffffffffffffffffff163373ffffffffffffffffffffffffffffffffffffffff1614151561225957600080fd5b61afc8600b5410151561226b57600080fd5b6122a883838080601f01602080910402602001604051908101604052809392919081815260200183838082843782019150505050505030306127b7565b90506122d681600860009054906101000a900473ffffffffffffffffffffffffffffffffffffffff166124f3565b600860009054906101000a900473ffffffffffffffffffffffffffffffffffffffff1673ffffffffffffffffffffffffffffffffffffffff16636c3f808882600061231f612a8b565b6103e860003062015180306040518963ffffffff167c0100000000000000000000000000000000000000000000000000000000028152600401808981526020018881526020018781526020018681526020018581526020018473ffffffffffffffffffffffffffffffffffffffff1673ffffffffffffffffffffffffffffffffffffffff1681526020018381526020018273ffffffffffffffffffffffffffffffffffffffff1673ffffffffffffffffffffffffffffffffffffffff16815260200198505050505050505050600060405180830381600087803b151561240457600080fd5b6102c65a03f1151561241557600080fd5b505050600b60008154809291906001019190505550505050565b612437612bd9565b61243f612bd9565b600080846040518059106124505750595b9080825280601f01601f1916602001820160405250925060208301915085905061247b828287612b8e565b82935050505092915050565b60008273ffffffffffffffffffffffffffffffffffffffff166005600084815260200190815260200160002060009054906101000a900473ffffffffffffffffffffffffffffffffffffffff1673ffffffffffffffffffffffffffffffffffffffff1614905092915050565b806007600084815260200190815260200160002060006101000a81548173ffffffffffffffffffffffffffffffffffffffff021916908373ffffffffffffffffffffffffffffffffffffffff1602179055505050565b60008273ffffffffffffffffffffffffffffffffffffffff166007600084815260200190815260200160002060009054906101000a900473ffffffffffffffffffffffffffffffffffffffff1673ffffffffffffffffffffffffffffffffffffffff1614905092915050565b600660008373ffffffffffffffffffffffffffffffffffffffff1673ffffffffffffffffffffffffffffffffffffffff16815260200190815260200160002060008154809291906001019190505550816005600083815260200190815260200160002060006101000a81548173ffffffffffffffffffffffffffffffffffffffff021916908373ffffffffffffffffffffffffffffffffffffffff160217905550600073ffffffffffffffffffffffffffffffffffffffff168373ffffffffffffffffffffffffffffffffffffffff1614151561271357600660008473ffffffffffffffffffffffffffffffffffffffff1673ffffffffffffffffffffffffffffffffffffffff16815260200190815260200160002060008154809291906001900391905055506007600082815260200190815260200160002060006101000a81549073ffffffffffffffffffffffffffffffffffffffff02191690555b7fddf252ad1be2c89b69c2b068fc378daa952ba7f163c4a11628f55a4df523b3ef838383604051808473ffffffffffffffffffffffffffffffffffffffff1673ffffffffffffffffffffffffffffffffffffffff1681526020018373ffffffffffffffffffffffffffffffffffffffff1673ffffffffffffffffffffffffffffffffffffffff168152602001828152602001935050505060405180910390a1505050565b60006127c1612c2c565b600060a0604051908101604052808781526020014267ffffffffffffffff168152602001602060405190810160405280600081525081526020018673ffffffffffffffffffffffffffffffffffffffff1681526020018573ffffffffffffffffffffffffffffffffffffffff1681525091506001600480548060010182816128499190612c9e565b91600052602060002090600502016000859091909150600082015181600001908051906020019061287b929190612cd0565b5060208201518160010160006101000a81548167ffffffffffffffff021916908367ffffffffffffffff16021790555060408201518160020190805190602001906128c7929190612cd0565b5060608201518160030160006101000a81548173ffffffffffffffffffffffffffffffffffffffff021916908373ffffffffffffffffffffffffffffffffffffffff16021790555060808201518160040160006101000a81548173ffffffffffffffffffffffffffffffffffffffff021916908373ffffffffffffffffffffffffffffffffffffffff16021790555050500390508063ffffffff168114151561296f57600080fd5b7f225c4790e418f4f69aa28361ed2bb2f785cb4a3c4f37b8e3024c44d5d9a8a120848787604051808473ffffffffffffffffffffffffffffffffffffffff1673ffffffffffffffffffffffffffffffffffffffff168152602001806020018373ffffffffffffffffffffffffffffffffffffffff1673ffffffffffffffffffffffffffffffffffffffff168152602001828103825284818151815260200191508051906020019080838360005b83811015612a37578082015181840152602081019050612a1c565b50505050905090810190601f168015612a645780820380516001836020036101000a031916815260200191505b5094505050505060405180910390a1612a7f600085836125b5565b80925050509392505050565b6000806000600860009054906101000a900473ffffffffffffffffffffffffffffffffffffffff1673ffffffffffffffffffffffffffffffffffffffff1663eac9d94c6000604051602001526040518163ffffffff167c0100000000000000000000000000000000000000000000000000000000028152600401602060405180830381600087803b1515612b1e57600080fd5b6102c65a03f11515612b2f57600080fd5b505050604051805190509150816fffffffffffffffffffffffffffffffff1682141515612b5b57600080fd5b600282811515612b6757fe5b0482019050662386f26fc10000811015612b8657662386f26fc1000090505b809250505090565b60005b602082101515612bb65782518452602084019350602083019250602082039150612b91565b6001826020036101000a0390508019835116818551168181178652505050505050565b602060405190810160405280600081525090565b6080604051908101604052806004905b6000801916815260200190600190039081612bfd5790505090565b602060405190810160405280600081525090565b60a060405190810160405280612c40612d50565b8152602001600067ffffffffffffffff168152602001612c5e612d50565b8152602001600073ffffffffffffffffffffffffffffffffffffffff168152602001600073ffffffffffffffffffffffffffffffffffffffff1681525090565b815481835581811511612ccb57600502816005028360005260206000209182019101612cca9190612d64565b5b505050565b828054600181600116156101000203166002900490600052602060002090601f016020900481019282601f10612d1157805160ff1916838001178555612d3f565b82800160010185558215612d3f579182015b82811115612d3e578251825591602001919060010190612d23565b5b509050612d4c9190612e0c565b5090565b602060405190810160405280600081525090565b612e0991905b80821115612e055760008082016000612d839190612e31565b6001820160006101000a81549067ffffffffffffffff0219169055600282016000612dae9190612e31565b6003820160006101000a81549073ffffffffffffffffffffffffffffffffffffffff02191690556004820160006101000a81549073ffffffffffffffffffffffffffffffffffffffff021916905550600501612d6a565b5090565b90565b612e2e91905b80821115612e2a576000816000905550600101612e12565b5090565b90565b50805460018160011615610100020316600290046000825580601f10612e575750612e76565b601f016020900490600052602060002090810190612e759190612e0c565b5b505600a165627a7a72305820c283d15d5bc127f9959a84b5bfb63696e25331ffcc554d464c878b17500f2a5c0029",
  "source": "/// @title all functions related to creating kittens\npragma solidity ^0.4.16;\n\nimport \"./PictureAuction.sol\";\n\ncontract PictureMinting is PictureAuction {\n\n    // Limits the number of pictures the contract owner can ever create.\n    uint256 public constant PROMO_CREATION_LIMIT = 5000;\n    uint256 public constant GEN0_CREATION_LIMIT = 45000;\n\n    // Constants for gen0 auctions.\n    uint256 public constant GEN0_STARTING_PRICE = 10 finney;\n    uint256 public constant GEN0_AUCTION_DURATION = 1 days;\n\n    // Counts the number of cats the contract owner has created.\n    uint256 public promoCreatedCount;\n    uint256 public gen0CreatedCount;\n\n    /// @dev we can create promo pictures, up to a limit. Only callable by COO\n    /// @param _hash the encoded hash of the picture to be created, any value is accepted\n    /// @param _owner the future owner of the created kittens. Default to contract COO\n    function createPromoPicture(string _hash, address _owner) external onlyCOO {\n        address pictureOwner = _owner;\n        if (pictureOwner == address(0)) {\n            pictureOwner = cooAddress;\n        }\n        require(promoCreatedCount < PROMO_CREATION_LIMIT);\n\n        promoCreatedCount++;\n        _createPictureWithArtist(_hash, pictureOwner, pictureOwner);\n    }\n\n    /// @dev Creates a new gen0 kitty with the given genes and\n    ///  creates an auction for it.\n    function createGen0Auction(string _hash) external onlyCOO {\n        require(gen0CreatedCount < GEN0_CREATION_LIMIT);\n\n        uint256 pictureId = _createPictureWithArtist(_hash, address(this), address(this));\n        _approve(pictureId, saleAuction);\n\n        saleAuction.createAuction(\n            pictureId,\n            0,            // by default the auction is fixed price\n            _computeNextGen0Price(),\n            1000,\n            0,\n            address(this),\n            GEN0_AUCTION_DURATION,\n            address(this)//,\n            //false\n        );\n\n        gen0CreatedCount++;\n    }\n\n    /// @dev Computes the next gen0 auction starting price, given\n    ///  the average of the past 5 prices + 50%.\n    function _computeNextGen0Price() internal view returns (uint256) {\n        uint256 avePrice = saleAuction.averageGen0SalePrice();\n\n        // Sanity check to ensure we don't overflow arithmetic\n        require(avePrice == uint256(uint128(avePrice)));\n\n        uint256 nextPrice = avePrice + (avePrice / 2);\n\n        // We never auction for less than starting price\n        if (nextPrice < GEN0_STARTING_PRICE) {\n            nextPrice = GEN0_STARTING_PRICE;\n        }\n\n        return nextPrice;\n    }\n}\n",
  "sourcePath": "/Users/blockchain/work/code/elforce/Auction/client/contracts/PictureMinting.sol",
  "compiler": {
    "name": "solc",
    "version": "0.4.18+commit.9cf6e910.Emscripten.clang"
  },
  "schemaVersion": "1.0.1",
  "updatedAt": "2018-05-16T05:41:57.379Z"
}