{
  "contractName": "PictureCore",
  "abi": [
    {
      "constant": true,
      "inputs": [
        {
          "name": "_interfaceID",
          "type": "bytes4"
        }
      ],
      "name": "supportsInterface",
      "outputs": [
        {
          "name": "",
          "type": "bool"
        }
      ],
      "payable": false,
      "stateMutability": "view",
      "type": "function"
    },
    {
      "constant": true,
      "inputs": [],
      "name": "cfoAddress",
      "outputs": [
        {
          "name": "",
          "type": "address"
        }
      ],
      "payable": false,
      "stateMutability": "view",
      "type": "function"
    },
    {
      "constant": true,
      "inputs": [
        {
          "name": "_tokenId",
          "type": "uint256"
        },
        {
          "name": "_preferredTransport",
          "type": "string"
        }
      ],
      "name": "tokenMetadata",
      "outputs": [
        {
          "name": "infoUrl",
          "type": "string"
        }
      ],
      "payable": false,
      "stateMutability": "view",
      "type": "function"
    },
    {
      "constant": true,
      "inputs": [
        {
          "name": "_id",
          "type": "uint256"
        }
      ],
      "name": "getPicture",
      "outputs": [
        {
          "name": "hashValue",
          "type": "string"
        },
        {
          "name": "birthTime",
          "type": "uint256"
        },
        {
          "name": "styleHash",
          "type": "string"
        },
        {
          "name": "styleOwnerAddr",
          "type": "address"
        },
        {
          "name": "maker",
          "type": "address"
        }
      ],
      "payable": false,
      "stateMutability": "view",
      "type": "function"
    },
    {
      "constant": true,
      "inputs": [],
      "name": "promoCreatedCount",
      "outputs": [
        {
          "name": "",
          "type": "uint256"
        }
      ],
      "payable": false,
      "stateMutability": "view",
      "type": "function"
    },
    {
      "constant": true,
      "inputs": [],
      "name": "name",
      "outputs": [
        {
          "name": "",
          "type": "string"
        }
      ],
      "payable": false,
      "stateMutability": "view",
      "type": "function"
    },
    {
      "constant": false,
      "inputs": [
        {
          "name": "_to",
          "type": "address"
        },
        {
          "name": "_tokenId",
          "type": "uint256"
        }
      ],
      "name": "approve",
      "outputs": [],
      "payable": false,
      "stateMutability": "nonpayable",
      "type": "function"
    },
    {
      "constant": true,
      "inputs": [],
      "name": "ceoAddress",
      "outputs": [
        {
          "name": "",
          "type": "address"
        }
      ],
      "payable": false,
      "stateMutability": "view",
      "type": "function"
    },
    {
      "constant": true,
      "inputs": [],
      "name": "GEN0_STARTING_PRICE",
      "outputs": [
        {
          "name": "",
          "type": "uint256"
        }
      ],
      "payable": false,
      "stateMutability": "view",
      "type": "function"
    },
    {
      "constant": false,
      "inputs": [
        {
          "name": "_hashValue",
          "type": "string"
        },
        {
          "name": "_styleOwner",
          "type": "address"
        },
        {
          "name": "_owner",
          "type": "address"
        }
      ],
      "name": "uploadPictureWithArtist",
      "outputs": [
        {
          "name": "tokenId",
          "type": "uint256"
        }
      ],
      "payable": false,
      "stateMutability": "nonpayable",
      "type": "function"
    },
    {
      "constant": true,
      "inputs": [],
      "name": "totalSupply",
      "outputs": [
        {
          "name": "",
          "type": "uint256"
        }
      ],
      "payable": false,
      "stateMutability": "view",
      "type": "function"
    },
    {
      "constant": true,
      "inputs": [],
      "name": "GEN0_AUCTION_DURATION",
      "outputs": [
        {
          "name": "",
          "type": "uint256"
        }
      ],
      "payable": false,
      "stateMutability": "view",
      "type": "function"
    },
    {
      "constant": false,
      "inputs": [
        {
          "name": "_pictureId",
          "type": "uint256"
        },
        {
          "name": "_auctionType",
          "type": "uint256"
        },
        {
          "name": "_Price",
          "type": "uint256"
        },
        {
          "name": "_commission",
          "type": "uint256"
        },
        {
          "name": "_brokerage",
          "type": "uint256"
        },
        {
          "name": "_styleOwner",
          "type": "address"
        },
        {
          "name": "_duration",
          "type": "uint256"
        }
      ],
      "name": "createSaleAuction",
      "outputs": [],
      "payable": false,
      "stateMutability": "nonpayable",
      "type": "function"
    },
    {
      "constant": false,
      "inputs": [
        {
          "name": "_from",
          "type": "address"
        },
        {
          "name": "_to",
          "type": "address"
        },
        {
          "name": "_tokenId",
          "type": "uint256"
        }
      ],
      "name": "transferFrom",
      "outputs": [],
      "payable": false,
      "stateMutability": "nonpayable",
      "type": "function"
    },
    {
      "constant": false,
      "inputs": [
        {
          "name": "_newCEO",
          "type": "address"
        }
      ],
      "name": "setCEO",
      "outputs": [],
      "payable": false,
      "stateMutability": "nonpayable",
      "type": "function"
    },
    {
      "constant": false,
      "inputs": [
        {
          "name": "_hashValue",
          "type": "string"
        },
        {
          "name": "_owner",
          "type": "address"
        }
      ],
      "name": "uploadPicture",
      "outputs": [
        {
          "name": "tokenId",
          "type": "uint256"
        }
      ],
      "payable": false,
      "stateMutability": "nonpayable",
      "type": "function"
    },
    {
      "constant": false,
      "inputs": [
        {
          "name": "_newCOO",
          "type": "address"
        }
      ],
      "name": "setCOO",
      "outputs": [],
      "payable": false,
      "stateMutability": "nonpayable",
      "type": "function"
    },
    {
      "constant": false,
      "inputs": [],
      "name": "unpause",
      "outputs": [],
      "payable": false,
      "stateMutability": "nonpayable",
      "type": "function"
    },
    {
      "constant": true,
      "inputs": [
        {
          "name": "",
          "type": "uint256"
        }
      ],
      "name": "pictureIndexToApproved",
      "outputs": [
        {
          "name": "",
          "type": "address"
        }
      ],
      "payable": false,
      "stateMutability": "view",
      "type": "function"
    },
    {
      "constant": true,
      "inputs": [
        {
          "name": "",
          "type": "uint256"
        }
      ],
      "name": "pictureIndexToOwner",
      "outputs": [
        {
          "name": "",
          "type": "address"
        }
      ],
      "payable": false,
      "stateMutability": "view",
      "type": "function"
    },
    {
      "constant": false,
      "inputs": [
        {
          "name": "_newCFO",
          "type": "address"
        }
      ],
      "name": "setCFO",
      "outputs": [],
      "payable": false,
      "stateMutability": "nonpayable",
      "type": "function"
    },
    {
      "constant": false,
      "inputs": [
        {
          "name": "secs",
          "type": "uint256"
        }
      ],
      "name": "setSecondsPerBlock",
      "outputs": [],
      "payable": false,
      "stateMutability": "nonpayable",
      "type": "function"
    },
    {
      "constant": true,
      "inputs": [],
      "name": "paused",
      "outputs": [
        {
          "name": "",
          "type": "bool"
        }
      ],
      "payable": false,
      "stateMutability": "view",
      "type": "function"
    },
    {
      "constant": false,
      "inputs": [],
      "name": "withdrawBalance",
      "outputs": [],
      "payable": false,
      "stateMutability": "nonpayable",
      "type": "function"
    },
    {
      "constant": true,
      "inputs": [
        {
          "name": "_tokenId",
          "type": "uint256"
        }
      ],
      "name": "ownerOf",
      "outputs": [
        {
          "name": "owner",
          "type": "address"
        }
      ],
      "payable": false,
      "stateMutability": "view",
      "type": "function"
    },
    {
      "constant": true,
      "inputs": [],
      "name": "GEN0_CREATION_LIMIT",
      "outputs": [
        {
          "name": "",
          "type": "uint256"
        }
      ],
      "payable": false,
      "stateMutability": "view",
      "type": "function"
    },
    {
      "constant": true,
      "inputs": [],
      "name": "newContractAddress",
      "outputs": [
        {
          "name": "",
          "type": "address"
        }
      ],
      "payable": false,
      "stateMutability": "view",
      "type": "function"
    },
    {
      "constant": false,
      "inputs": [
        {
          "name": "_address",
          "type": "address"
        }
      ],
      "name": "setSaleAuctionAddress",
      "outputs": [],
      "payable": false,
      "stateMutability": "nonpayable",
      "type": "function"
    },
    {
      "constant": true,
      "inputs": [
        {
          "name": "_owner",
          "type": "address"
        }
      ],
      "name": "balanceOf",
      "outputs": [
        {
          "name": "count",
          "type": "uint256"
        }
      ],
      "payable": false,
      "stateMutability": "view",
      "type": "function"
    },
    {
      "constant": false,
      "inputs": [
        {
          "name": "_v2Address",
          "type": "address"
        }
      ],
      "name": "setNewAddress",
      "outputs": [],
      "payable": false,
      "stateMutability": "nonpayable",
      "type": "function"
    },
    {
      "constant": true,
      "inputs": [],
      "name": "secondsPerBlock",
      "outputs": [
        {
          "name": "",
          "type": "uint256"
        }
      ],
      "payable": false,
      "stateMutability": "view",
      "type": "function"
    },
    {
      "constant": false,
      "inputs": [],
      "name": "pause",
      "outputs": [],
      "payable": false,
      "stateMutability": "nonpayable",
      "type": "function"
    },
    {
      "constant": true,
      "inputs": [
        {
          "name": "_owner",
          "type": "address"
        }
      ],
      "name": "tokensOfOwner",
      "outputs": [
        {
          "name": "ownerTokens",
          "type": "uint256[]"
        }
      ],
      "payable": false,
      "stateMutability": "view",
      "type": "function"
    },
    {
      "constant": true,
      "inputs": [],
      "name": "symbol",
      "outputs": [
        {
          "name": "",
          "type": "string"
        }
      ],
      "payable": false,
      "stateMutability": "view",
      "type": "function"
    },
    {
      "constant": false,
      "inputs": [
        {
          "name": "_to",
          "type": "address"
        },
        {
          "name": "_tokenId",
          "type": "uint256"
        }
      ],
      "name": "transfer",
      "outputs": [],
      "payable": false,
      "stateMutability": "nonpayable",
      "type": "function"
    },
    {
      "constant": false,
      "inputs": [
        {
          "name": "_hashValue",
          "type": "string"
        },
        {
          "name": "_styleHash",
          "type": "string"
        },
        {
          "name": "_styleOwner",
          "type": "address"
        },
        {
          "name": "_owner",
          "type": "address"
        }
      ],
      "name": "uploadPictureWithArtist",
      "outputs": [
        {
          "name": "tokenId",
          "type": "uint256"
        }
      ],
      "payable": false,
      "stateMutability": "nonpayable",
      "type": "function"
    },
    {
      "constant": true,
      "inputs": [],
      "name": "cooAddress",
      "outputs": [
        {
          "name": "",
          "type": "address"
        }
      ],
      "payable": false,
      "stateMutability": "view",
      "type": "function"
    },
    {
      "constant": true,
      "inputs": [],
      "name": "erc721Metadata",
      "outputs": [
        {
          "name": "",
          "type": "address"
        }
      ],
      "payable": false,
      "stateMutability": "view",
      "type": "function"
    },
    {
      "constant": true,
      "inputs": [
        {
          "name": "",
          "type": "address"
        }
      ],
      "name": "ownershipTokenCount",
      "outputs": [
        {
          "name": "",
          "type": "uint256"
        }
      ],
      "payable": false,
      "stateMutability": "view",
      "type": "function"
    },
    {
      "constant": true,
      "inputs": [],
      "name": "PROMO_CREATION_LIMIT",
      "outputs": [
        {
          "name": "",
          "type": "uint256"
        }
      ],
      "payable": false,
      "stateMutability": "view",
      "type": "function"
    },
    {
      "constant": false,
      "inputs": [
        {
          "name": "_contractAddress",
          "type": "address"
        }
      ],
      "name": "setMetadataAddress",
      "outputs": [],
      "payable": false,
      "stateMutability": "nonpayable",
      "type": "function"
    },
    {
      "constant": true,
      "inputs": [],
      "name": "saleAuction",
      "outputs": [
        {
          "name": "",
          "type": "address"
        }
      ],
      "payable": false,
      "stateMutability": "view",
      "type": "function"
    },
    {
      "constant": false,
      "inputs": [
        {
          "name": "_hash",
          "type": "string"
        },
        {
          "name": "_owner",
          "type": "address"
        }
      ],
      "name": "createPromoPicture",
      "outputs": [],
      "payable": false,
      "stateMutability": "nonpayable",
      "type": "function"
    },
    {
      "constant": true,
      "inputs": [],
      "name": "gen0CreatedCount",
      "outputs": [
        {
          "name": "",
          "type": "uint256"
        }
      ],
      "payable": false,
      "stateMutability": "view",
      "type": "function"
    },
    {
      "constant": false,
      "inputs": [
        {
          "name": "_hash",
          "type": "string"
        }
      ],
      "name": "createGen0Auction",
      "outputs": [],
      "payable": false,
      "stateMutability": "nonpayable",
      "type": "function"
    },
    {
      "inputs": [],
      "payable": false,
      "stateMutability": "nonpayable",
      "type": "constructor"
    },
    {
      "payable": true,
      "stateMutability": "payable",
      "type": "fallback"
    },
    {
      "anonymous": false,
      "inputs": [
        {
          "indexed": false,
          "name": "from",
          "type": "address"
        },
        {
          "indexed": false,
          "name": "to",
          "type": "address"
        },
        {
          "indexed": false,
          "name": "tokenId",
          "type": "uint256"
        }
      ],
      "name": "Transfer",
      "type": "event"
    },
    {
      "anonymous": false,
      "inputs": [
        {
          "indexed": false,
          "name": "owner",
          "type": "address"
        },
        {
          "indexed": false,
          "name": "approved",
          "type": "address"
        },
        {
          "indexed": false,
          "name": "tokenId",
          "type": "uint256"
        }
      ],
      "name": "Approval",
      "type": "event"
    },
    {
      "anonymous": false,
      "inputs": [
        {
          "indexed": false,
          "name": "owner",
          "type": "address"
        },
        {
          "indexed": false,
          "name": "hashValue",
          "type": "string"
        },
        {
          "indexed": false,
          "name": "styleHash",
          "type": "string"
        },
        {
          "indexed": false,
          "name": "styleOwner",
          "type": "address"
        }
      ],
      "name": "CreatePictureWithStyle",
      "type": "event"
    },
    {
      "anonymous": false,
      "inputs": [
        {
          "indexed": false,
          "name": "owner",
          "type": "address"
        },
        {
          "indexed": false,
          "name": "hashValue",
          "type": "string"
        },
        {
          "indexed": false,
          "name": "styleOwner",
          "type": "address"
        }
      ],
      "name": "CreatePictureWithArtist",
      "type": "event"
    },
    {
      "anonymous": false,
      "inputs": [
        {
          "indexed": false,
          "name": "owner",
          "type": "address"
        },
        {
          "indexed": false,
          "name": "hashValue",
          "type": "string"
        }
      ],
      "name": "CreatePicture",
      "type": "event"
    },
    {
      "anonymous": false,
      "inputs": [
        {
          "indexed": false,
          "name": "newContract",
          "type": "address"
        }
      ],
      "name": "ContractUpgrade",
      "type": "event"
    }
  ],
  "bytecode": "0x60606040526000600260146101000a81548160ff021916908315150217905550600f60035534156200003057600080fd5b6001600260146101000a81548160ff021916908315150217905550336000806101000a81548173ffffffffffffffffffffffffffffffffffffffff021916908373ffffffffffffffffffffffffffffffffffffffff16021790555033600260006101000a81548173ffffffffffffffffffffffffffffffffffffffff021916908373ffffffffffffffffffffffffffffffffffffffff160217905550620000fe6020604051908101604052806000815250600080620001056401000000000262002f37176401000000009004565b5062000867565b600062000111620005fe565b600060a0604051908101604052808781526020014267ffffffffffffffff168152602001602060405190810160405280600081525081526020018673ffffffffffffffffffffffffffffffffffffffff1681526020018573ffffffffffffffffffffffffffffffffffffffff1681525091506001600480548060010182816200019b919062000674565b916000526020600020906005020160008590919091506000820151816000019080519060200190620001cf929190620006a9565b5060208201518160010160006101000a81548167ffffffffffffffff021916908367ffffffffffffffff16021790555060408201518160020190805190602001906200021d929190620006a9565b5060608201518160030160006101000a81548173ffffffffffffffffffffffffffffffffffffffff021916908373ffffffffffffffffffffffffffffffffffffffff16021790555060808201518160040160006101000a81548173ffffffffffffffffffffffffffffffffffffffff021916908373ffffffffffffffffffffffffffffffffffffffff16021790555050500390508063ffffffff1681141515620002c657600080fd5b7f225c4790e418f4f69aa28361ed2bb2f785cb4a3c4f37b8e3024c44d5d9a8a120848787604051808473ffffffffffffffffffffffffffffffffffffffff1673ffffffffffffffffffffffffffffffffffffffff168152602001806020018373ffffffffffffffffffffffffffffffffffffffff1673ffffffffffffffffffffffffffffffffffffffff168152602001828103825284818151815260200191508051906020019080838360005b838110156200039057808201518184015260208101905062000373565b50505050905090810190601f168015620003be5780820380516001836020036101000a031916815260200191505b5094505050505060405180910390a1620003ef60008583620003fb6401000000000262003277176401000000009004565b80925050509392505050565b600660008373ffffffffffffffffffffffffffffffffffffffff1673ffffffffffffffffffffffffffffffffffffffff16815260200190815260200160002060008154809291906001019190505550816005600083815260200190815260200160002060006101000a81548173ffffffffffffffffffffffffffffffffffffffff021916908373ffffffffffffffffffffffffffffffffffffffff160217905550600073ffffffffffffffffffffffffffffffffffffffff168373ffffffffffffffffffffffffffffffffffffffff161415156200055a57600660008473ffffffffffffffffffffffffffffffffffffffff1673ffffffffffffffffffffffffffffffffffffffff16815260200190815260200160002060008154809291906001900391905055506007600082815260200190815260200160002060006101000a81549073ffffffffffffffffffffffffffffffffffffffff02191690555b7fddf252ad1be2c89b69c2b068fc378daa952ba7f163c4a11628f55a4df523b3ef838383604051808473ffffffffffffffffffffffffffffffffffffffff1673ffffffffffffffffffffffffffffffffffffffff1681526020018373ffffffffffffffffffffffffffffffffffffffff1673ffffffffffffffffffffffffffffffffffffffff168152602001828152602001935050505060405180910390a1505050565b60a0604051908101604052806200061462000730565b8152602001600067ffffffffffffffff1681526020016200063462000730565b8152602001600073ffffffffffffffffffffffffffffffffffffffff168152602001600073ffffffffffffffffffffffffffffffffffffffff1681525090565b815481835581811511620006a457600502816005028360005260206000209182019101620006a3919062000744565b5b505050565b828054600181600116156101000203166002900490600052602060002090601f016020900481019282601f10620006ec57805160ff19168380011785556200071d565b828001600101855582156200071d579182015b828111156200071c578251825591602001919060010190620006ff565b5b5090506200072c9190620007f3565b5090565b602060405190810160405280600081525090565b620007f091905b80821115620007ec57600080820160006200076791906200081b565b6001820160006101000a81549067ffffffffffffffff02191690556002820160006200079491906200081b565b6003820160006101000a81549073ffffffffffffffffffffffffffffffffffffffff02191690556004820160006101000a81549073ffffffffffffffffffffffffffffffffffffffff0219169055506005016200074b565b5090565b90565b6200081891905b8082111562000814576000816000905550600101620007fa565b5090565b90565b50805460018160011615610100020316600290046000825580601f1062000843575062000864565b601f016020900490600052602060002090810190620008639190620007f3565b5b50565b613ef880620008776000396000f300606060405260043610610225576000357c0100000000000000000000000000000000000000000000000000000000900463ffffffff16806301ffc9a7146102835780630519ce79146102dd5780630560ff441461033257806305c8489c146103e257806305e455461461055757806306fdde0314610580578063095ea7b31461060e5780630a0f8168146106505780630e583df0146106a55780631455c24c146106ce57806318160ddd1461074e57806319c2f201146107775780631ff410a9146107a057806323b872dd1461080f57806327d7874c146108705780632a5fc69b146108a95780632ba73c151461090a5780633f4ba83a1461094357806347854d0f14610958578063487a6fde146109bb5780634e0a337914610a1e5780635663896e14610a575780635c975abb14610a7a5780635fd8c71014610aa75780636352211e14610abc578063680eba2714610b1f5780636af04a5714610b485780636fbde40d14610b9d57806370a0823114610bd65780637158798814610c235780637a7d493714610c5c5780638456cb5914610c855780638462151c14610c9a57806395d89b4114610d28578063a9059cbb14610db6578063ab15208214610df8578063b047fb5014610e8c578063bc4006f514610ee1578063cec21acb14610f36578063defb958414610f83578063e17b25af14610fac578063e6cbe35114610fe5578063e99b525a1461103a578063f1ca941014611087578063fc63e81c146110b0575b600860009054906101000a900473ffffffffffffffffffffffffffffffffffffffff1673ffffffffffffffffffffffffffffffffffffffff163373ffffffffffffffffffffffffffffffffffffffff1614151561028157600080fd5b005b341561028e57600080fd5b6102c360048080357bffffffffffffffffffffffffffffffffffffffffffffffffffffffff19169060200190919050506110de565b604051808215151515815260200191505060405180910390f35b34156102e857600080fd5b6102f06113ef565b604051808273ffffffffffffffffffffffffffffffffffffffff1673ffffffffffffffffffffffffffffffffffffffff16815260200191505060405180910390f35b341561033d57600080fd5b61036760048080359060200190919080359060200190820180359060200191909192905050611415565b6040518080602001828103825283818151815260200191508051906020019080838360005b838110156103a757808201518184015260208101905061038c565b50505050905090810190601f1680156103d45780820380516001836020036101000a031916815260200191505b509250505060405180910390f35b34156103ed57600080fd5b6104036004808035906020019091905050611580565b6040518080602001868152602001806020018573ffffffffffffffffffffffffffffffffffffffff1673ffffffffffffffffffffffffffffffffffffffff1681526020018473ffffffffffffffffffffffffffffffffffffffff1673ffffffffffffffffffffffffffffffffffffffff168152602001838103835288818151815260200191508051906020019080838360005b838110156104b1578082015181840152602081019050610496565b50505050905090810190601f1680156104de5780820380516001836020036101000a031916815260200191505b50838103825286818151815260200191508051906020019080838360005b838110156105175780820151818401526020810190506104fc565b50505050905090810190601f1680156105445780820380516001836020036101000a031916815260200191505b5097505050505050505060405180910390f35b341561056257600080fd5b61056a611771565b6040518082815260200191505060405180910390f35b341561058b57600080fd5b610593611777565b6040518080602001828103825283818151815260200191508051906020019080838360005b838110156105d35780820151818401526020810190506105b8565b50505050905090810190601f1680156106005780820380516001836020036101000a031916815260200191505b509250505060405180910390f35b341561061957600080fd5b61064e600480803573ffffffffffffffffffffffffffffffffffffffff169060200190919080359060200190919050506117b0565b005b341561065b57600080fd5b61066361188e565b604051808273ffffffffffffffffffffffffffffffffffffffff1673ffffffffffffffffffffffffffffffffffffffff16815260200191505060405180910390f35b34156106b057600080fd5b6106b86118b3565b6040518082815260200191505060405180910390f35b34156106d957600080fd5b6107386004808035906020019082018035906020019190919290803573ffffffffffffffffffffffffffffffffffffffff1690602001909190803573ffffffffffffffffffffffffffffffffffffffff169060200190919050506118be565b6040518082815260200191505060405180910390f35b341561075957600080fd5b610761611907565b6040518082815260200191505060405180910390f35b341561078257600080fd5b61078a611917565b6040518082815260200191505060405180910390f35b34156107ab57600080fd5b61080d600480803590602001909190803590602001909190803590602001909190803590602001909190803590602001909190803573ffffffffffffffffffffffffffffffffffffffff1690602001909190803590602001909190505061191e565b005b341561081a57600080fd5b61086e600480803573ffffffffffffffffffffffffffffffffffffffff1690602001909190803573ffffffffffffffffffffffffffffffffffffffff16906020019091908035906020019091905050611ab8565b005b341561087b57600080fd5b6108a7600480803573ffffffffffffffffffffffffffffffffffffffff16906020019091905050611b85565b005b34156108b457600080fd5b6108f46004808035906020019082018035906020019190919290803573ffffffffffffffffffffffffffffffffffffffff16906020019091905050611c5f565b6040518082815260200191505060405180910390f35b341561091557600080fd5b610941600480803573ffffffffffffffffffffffffffffffffffffffff16906020019091905050611ca6565b005b341561094e57600080fd5b610956611d81565b005b341561096357600080fd5b6109796004808035906020019091905050611ebc565b604051808273ffffffffffffffffffffffffffffffffffffffff1673ffffffffffffffffffffffffffffffffffffffff16815260200191505060405180910390f35b34156109c657600080fd5b6109dc6004808035906020019091905050611eef565b604051808273ffffffffffffffffffffffffffffffffffffffff1673ffffffffffffffffffffffffffffffffffffffff16815260200191505060405180910390f35b3415610a2957600080fd5b610a55600480803573ffffffffffffffffffffffffffffffffffffffff16906020019091905050611f22565b005b3415610a6257600080fd5b610a786004808035906020019091905050611ffd565b005b3415610a8557600080fd5b610a8d612112565b604051808215151515815260200191505060405180910390f35b3415610ab257600080fd5b610aba612125565b005b3415610ac757600080fd5b610add6004808035906020019091905050612202565b604051808273ffffffffffffffffffffffffffffffffffffffff1673ffffffffffffffffffffffffffffffffffffffff16815260200191505060405180910390f35b3415610b2a57600080fd5b610b3261227b565b6040518082815260200191505060405180910390f35b3415610b5357600080fd5b610b5b612281565b604051808273ffffffffffffffffffffffffffffffffffffffff1673ffffffffffffffffffffffffffffffffffffffff16815260200191505060405180910390f35b3415610ba857600080fd5b610bd4600480803573ffffffffffffffffffffffffffffffffffffffff169060200190919050506122a7565b005b3415610be157600080fd5b610c0d600480803573ffffffffffffffffffffffffffffffffffffffff169060200190919050506123de565b6040518082815260200191505060405180910390f35b3415610c2e57600080fd5b610c5a600480803573ffffffffffffffffffffffffffffffffffffffff16906020019091905050612427565b005b3415610c6757600080fd5b610c6f612544565b6040518082815260200191505060405180910390f35b3415610c9057600080fd5b610c9861254a565b005b3415610ca557600080fd5b610cd1600480803573ffffffffffffffffffffffffffffffffffffffff1690602001909190505061268e565b6040518080602001828103825283818151815260200191508051906020019060200280838360005b83811015610d14578082015181840152602081019050610cf9565b505050509050019250505060405180910390f35b3415610d3357600080fd5b610d3b6127c5565b6040518080602001828103825283818151815260200191508051906020019080838360005b83811015610d7b578082015181840152602081019050610d60565b50505050905090810190601f168015610da85780820380516001836020036101000a031916815260200191505b509250505060405180910390f35b3415610dc157600080fd5b610df6600480803573ffffffffffffffffffffffffffffffffffffffff169060200190919080359060200190919050506127fe565b005b3415610e0357600080fd5b610e7660048080359060200190820180359060200191909192908035906020019082018035906020019190919290803573ffffffffffffffffffffffffffffffffffffffff1690602001909190803573ffffffffffffffffffffffffffffffffffffffff16906020019091905050612912565b6040518082815260200191505060405180910390f35b3415610e9757600080fd5b610e9f612990565b604051808273ffffffffffffffffffffffffffffffffffffffff1673ffffffffffffffffffffffffffffffffffffffff16815260200191505060405180910390f35b3415610eec57600080fd5b610ef46129b6565b604051808273ffffffffffffffffffffffffffffffffffffffff1673ffffffffffffffffffffffffffffffffffffffff16815260200191505060405180910390f35b3415610f4157600080fd5b610f6d600480803573ffffffffffffffffffffffffffffffffffffffff169060200190919050506129dc565b6040518082815260200191505060405180910390f35b3415610f8e57600080fd5b610f966129f4565b6040518082815260200191505060405180910390f35b3415610fb757600080fd5b610fe3600480803573ffffffffffffffffffffffffffffffffffffffff169060200190919050506129fa565b005b3415610ff057600080fd5b610ff8612a99565b604051808273ffffffffffffffffffffffffffffffffffffffff1673ffffffffffffffffffffffffffffffffffffffff16815260200191505060405180910390f35b341561104557600080fd5b6110856004808035906020019082018035906020019190919290803573ffffffffffffffffffffffffffffffffffffffff16906020019091905050612abf565b005b341561109257600080fd5b61109a612be3565b6040518082815260200191505060405180910390f35b34156110bb57600080fd5b6110dc60048080359060200190820180359060200191909192905050612be9565b005b600060405180807f737570706f727473496e74657266616365286279746573342900000000000000815250601901905060405180910390207bffffffffffffffffffffffffffffffffffffffffffffffffffffffff1916827bffffffffffffffffffffffffffffffffffffffffffffffffffffffff191614806113e8575060405180807f746f6b656e4d657461646174612875696e743235362c737472696e6729000000815250601d019050604051809103902060405180807f746f6b656e734f664f776e6572286164647265737329000000000000000000008152506016019050604051809103902060405180807f7472616e7366657246726f6d28616464726573732c616464726573732c75696e81526020017f74323536290000000000000000000000000000000000000000000000000000008152506025019050604051809103902060405180807f7472616e7366657228616464726573732c75696e7432353629000000000000008152506019019050604051809103902060405180807f617070726f766528616464726573732c75696e743235362900000000000000008152506018019050604051809103902060405180807f6f776e65724f662875696e7432353629000000000000000000000000000000008152506010019050604051809103902060405180807f62616c616e63654f6628616464726573732900000000000000000000000000008152506012019050604051809103902060405180807f746f74616c537570706c79282900000000000000000000000000000000000000815250600d019050604051809103902060405180807f73796d626f6c28290000000000000000000000000000000000000000000000008152506008019050604051809103902060405180807f6e616d6528290000000000000000000000000000000000000000000000000000815250600601905060405180910390201818181818181818187bffffffffffffffffffffffffffffffffffffffffffffffffffffffff1916827bffffffffffffffffffffffffffffffffffffffffffffffffffffffff1916145b9050919050565b600160009054906101000a900473ffffffffffffffffffffffffffffffffffffffff1681565b61141d613c2c565b611425613c40565b60008073ffffffffffffffffffffffffffffffffffffffff16600960009054906101000a900473ffffffffffffffffffffffffffffffffffffffff1673ffffffffffffffffffffffffffffffffffffffff161415151561148457600080fd5b600960009054906101000a900473ffffffffffffffffffffffffffffffffffffffff1673ffffffffffffffffffffffffffffffffffffffff1663cb4799f2878787600060405160a001526040518463ffffffff167c010000000000000000000000000000000000000000000000000000000002815260040180848152602001806020018281038252848482818152602001925080828437820191505094505050505060a060405180830381600087803b151561153f57600080fd5b6102c65a03f1151561155057600080fd5b5050506040518060800180519060200160405280925081935050506115758282612e1d565b925050509392505050565b611588613c2c565b6000611592613c2c565b60008060006004878154811015156115a657fe5b906000526020600020906005020190508060010160009054906101000a900467ffffffffffffffff1667ffffffffffffffff169450806002018054600181600116156101000203166002900480601f0160208091040260200160405190810160405280929190818152602001828054600181600116156101000203166002900480156116735780601f1061164857610100808354040283529160200191611673565b820191906000526020600020905b81548152906001019060200180831161165657829003601f168201915b505050505093508060030160009054906101000a900473ffffffffffffffffffffffffffffffffffffffff1692508060040160009054906101000a900473ffffffffffffffffffffffffffffffffffffffff169150806000018054600181600116156101000203166002900480601f0160208091040260200160405190810160405280929190818152602001828054600181600116156101000203166002900480156117605780601f1061173557610100808354040283529160200191611760565b820191906000526020600020905b81548152906001019060200180831161174357829003601f168201915b505050505095505091939590929450565b600a5481565b6040805190810160405280600c81526020017f50696374757265436861696e000000000000000000000000000000000000000081525081565b600260149054906101000a900460ff161515156117cc57600080fd5b6117d63382612e75565b15156117e157600080fd5b6117eb8183612ee1565b7f8c5be1e5ebec7d5bd14f71427d1e84f3dd0314c0f7b2291e5b200ac8c7c3b925338383604051808473ffffffffffffffffffffffffffffffffffffffff1673ffffffffffffffffffffffffffffffffffffffff1681526020018373ffffffffffffffffffffffffffffffffffffffff1673ffffffffffffffffffffffffffffffffffffffff168152602001828152602001935050505060405180910390a15050565b6000809054906101000a900473ffffffffffffffffffffffffffffffffffffffff1681565b662386f26fc1000081565b60006118fd85858080601f0160208091040260200160405190810160405280939291908181526020018383808284378201915050505050508484612f37565b9050949350505050565b6000600160048054905003905090565b6201518081565b600260149054906101000a900460ff1615151561193a57600080fd5b6119443388612e75565b151561194f57600080fd5b61197b87600860009054906101000a900473ffffffffffffffffffffffffffffffffffffffff16612ee1565b600860009054906101000a900473ffffffffffffffffffffffffffffffffffffffff1673ffffffffffffffffffffffffffffffffffffffff16636c3f808888888888888888336040518963ffffffff167c0100000000000000000000000000000000000000000000000000000000028152600401808981526020018881526020018781526020018681526020018581526020018473ffffffffffffffffffffffffffffffffffffffff1673ffffffffffffffffffffffffffffffffffffffff1681526020018381526020018273ffffffffffffffffffffffffffffffffffffffff1673ffffffffffffffffffffffffffffffffffffffff16815260200198505050505050505050600060405180830381600087803b1515611a9b57600080fd5b6102c65a03f11515611aac57600080fd5b50505050505050505050565b600260149054906101000a900460ff16151515611ad457600080fd5b600073ffffffffffffffffffffffffffffffffffffffff168273ffffffffffffffffffffffffffffffffffffffff1614151515611b1057600080fd5b3073ffffffffffffffffffffffffffffffffffffffff168273ffffffffffffffffffffffffffffffffffffffff1614151515611b4b57600080fd5b611b55338261320b565b1515611b6057600080fd5b611b6a8382612e75565b1515611b7557600080fd5b611b80838383613277565b505050565b6000809054906101000a900473ffffffffffffffffffffffffffffffffffffffff1673ffffffffffffffffffffffffffffffffffffffff163373ffffffffffffffffffffffffffffffffffffffff16141515611be057600080fd5b600073ffffffffffffffffffffffffffffffffffffffff168173ffffffffffffffffffffffffffffffffffffffff1614151515611c1c57600080fd5b806000806101000a81548173ffffffffffffffffffffffffffffffffffffffff021916908373ffffffffffffffffffffffffffffffffffffffff16021790555050565b6000611c9d84848080601f01602080910402602001604051908101604052809392919081815260200183838082843782019150505050505083613479565b90509392505050565b6000809054906101000a900473ffffffffffffffffffffffffffffffffffffffff1673ffffffffffffffffffffffffffffffffffffffff163373ffffffffffffffffffffffffffffffffffffffff16141515611d0157600080fd5b600073ffffffffffffffffffffffffffffffffffffffff168173ffffffffffffffffffffffffffffffffffffffff1614151515611d3d57600080fd5b80600260006101000a81548173ffffffffffffffffffffffffffffffffffffffff021916908373ffffffffffffffffffffffffffffffffffffffff16021790555050565b6000809054906101000a900473ffffffffffffffffffffffffffffffffffffffff1673ffffffffffffffffffffffffffffffffffffffff163373ffffffffffffffffffffffffffffffffffffffff16141515611ddc57600080fd5b600260149054906101000a900460ff161515611df757600080fd5b600073ffffffffffffffffffffffffffffffffffffffff16600860009054906101000a900473ffffffffffffffffffffffffffffffffffffffff1673ffffffffffffffffffffffffffffffffffffffff1614151515611e5557600080fd5b600073ffffffffffffffffffffffffffffffffffffffff16600c60009054906101000a900473ffffffffffffffffffffffffffffffffffffffff1673ffffffffffffffffffffffffffffffffffffffff16141515611eb257600080fd5b611eba613719565b565b60076020528060005260406000206000915054906101000a900473ffffffffffffffffffffffffffffffffffffffff1681565b60056020528060005260406000206000915054906101000a900473ffffffffffffffffffffffffffffffffffffffff1681565b6000809054906101000a900473ffffffffffffffffffffffffffffffffffffffff1673ffffffffffffffffffffffffffffffffffffffff163373ffffffffffffffffffffffffffffffffffffffff16141515611f7d57600080fd5b600073ffffffffffffffffffffffffffffffffffffffff168173ffffffffffffffffffffffffffffffffffffffff1614151515611fb957600080fd5b80600160006101000a81548173ffffffffffffffffffffffffffffffffffffffff021916908373ffffffffffffffffffffffffffffffffffffffff16021790555050565b600260009054906101000a900473ffffffffffffffffffffffffffffffffffffffff1673ffffffffffffffffffffffffffffffffffffffff163373ffffffffffffffffffffffffffffffffffffffff1614806120a557506000809054906101000a900473ffffffffffffffffffffffffffffffffffffffff1673ffffffffffffffffffffffffffffffffffffffff163373ffffffffffffffffffffffffffffffffffffffff16145b806120fd5750600160009054906101000a900473ffffffffffffffffffffffffffffffffffffffff1673ffffffffffffffffffffffffffffffffffffffff163373ffffffffffffffffffffffffffffffffffffffff16145b151561210857600080fd5b8060038190555050565b600260149054906101000a900460ff1681565b6000600160009054906101000a900473ffffffffffffffffffffffffffffffffffffffff1673ffffffffffffffffffffffffffffffffffffffff163373ffffffffffffffffffffffffffffffffffffffff1614151561218357600080fd5b3073ffffffffffffffffffffffffffffffffffffffff16319050600160009054906101000a900473ffffffffffffffffffffffffffffffffffffffff1673ffffffffffffffffffffffffffffffffffffffff166108fc829081150290604051600060405180830381858888f1935050505015156121ff57600080fd5b50565b60006005600083815260200190815260200160002060009054906101000a900473ffffffffffffffffffffffffffffffffffffffff169050600073ffffffffffffffffffffffffffffffffffffffff168173ffffffffffffffffffffffffffffffffffffffff161415151561227657600080fd5b919050565b61afc881565b600c60009054906101000a900473ffffffffffffffffffffffffffffffffffffffff1681565b60008060009054906101000a900473ffffffffffffffffffffffffffffffffffffffff1673ffffffffffffffffffffffffffffffffffffffff163373ffffffffffffffffffffffffffffffffffffffff1614151561230457600080fd5b8190508073ffffffffffffffffffffffffffffffffffffffff166385b861886000604051602001526040518163ffffffff167c0100000000000000000000000000000000000000000000000000000000028152600401602060405180830381600087803b151561237357600080fd5b6102c65a03f1151561238457600080fd5b50505060405180519050151561239957600080fd5b80600860006101000a81548173ffffffffffffffffffffffffffffffffffffffff021916908373ffffffffffffffffffffffffffffffffffffffff1602179055505050565b6000600660008373ffffffffffffffffffffffffffffffffffffffff1673ffffffffffffffffffffffffffffffffffffffff168152602001908152602001600020549050919050565b6000809054906101000a900473ffffffffffffffffffffffffffffffffffffffff1673ffffffffffffffffffffffffffffffffffffffff163373ffffffffffffffffffffffffffffffffffffffff1614151561248257600080fd5b600260149054906101000a900460ff16151561249d57600080fd5b80600c60006101000a81548173ffffffffffffffffffffffffffffffffffffffff021916908373ffffffffffffffffffffffffffffffffffffffff1602179055507f450db8da6efbe9c22f2347f7c2021231df1fc58d3ae9a2fa75d39fa44619930581604051808273ffffffffffffffffffffffffffffffffffffffff1673ffffffffffffffffffffffffffffffffffffffff16815260200191505060405180910390a150565b60035481565b600260009054906101000a900473ffffffffffffffffffffffffffffffffffffffff1673ffffffffffffffffffffffffffffffffffffffff163373ffffffffffffffffffffffffffffffffffffffff1614806125f257506000809054906101000a900473ffffffffffffffffffffffffffffffffffffffff1673ffffffffffffffffffffffffffffffffffffffff163373ffffffffffffffffffffffffffffffffffffffff16145b8061264a5750600160009054906101000a900473ffffffffffffffffffffffffffffffffffffffff1673ffffffffffffffffffffffffffffffffffffffff163373ffffffffffffffffffffffffffffffffffffffff16145b151561265557600080fd5b600260149054906101000a900460ff1615151561267157600080fd5b6001600260146101000a81548160ff021916908315150217905550565b612696613c6b565b60006126a0613c6b565b60008060006126ae876123de565b945060008514156126e05760006040518059106126c85750595b908082528060200260200182016040525095506127bb565b846040518059106126ee5750595b90808252806020026020018201604052509350612709611907565b925060009150600190505b82811115156127b7578673ffffffffffffffffffffffffffffffffffffffff166005600083815260200190815260200160002060009054906101000a900473ffffffffffffffffffffffffffffffffffffffff1673ffffffffffffffffffffffffffffffffffffffff1614156127aa5780848381518110151561279357fe5b906020019060200201818152505081806001019250505b8080600101915050612714565b8395505b5050505050919050565b6040805190810160405280600281526020017f504300000000000000000000000000000000000000000000000000000000000081525081565b600260149054906101000a900460ff1615151561281a57600080fd5b600073ffffffffffffffffffffffffffffffffffffffff168273ffffffffffffffffffffffffffffffffffffffff161415151561285657600080fd5b3073ffffffffffffffffffffffffffffffffffffffff168273ffffffffffffffffffffffffffffffffffffffff161415151561289157600080fd5b600860009054906101000a900473ffffffffffffffffffffffffffffffffffffffff1673ffffffffffffffffffffffffffffffffffffffff168273ffffffffffffffffffffffffffffffffffffffff16141515156128ee57600080fd5b6128f83382612e75565b151561290357600080fd5b61290e338383613277565b5050565b600061298487878080601f01602080910402602001604051908101604052809392919081815260200183838082843782019150505050505086868080601f01602080910402602001604051908101604052809392919081815260200183838082843782019150505050505085856137ac565b90509695505050505050565b600260009054906101000a900473ffffffffffffffffffffffffffffffffffffffff1681565b600960009054906101000a900473ffffffffffffffffffffffffffffffffffffffff1681565b60066020528060005260406000206000915090505481565b61138881565b6000809054906101000a900473ffffffffffffffffffffffffffffffffffffffff1673ffffffffffffffffffffffffffffffffffffffff163373ffffffffffffffffffffffffffffffffffffffff16141515612a5557600080fd5b80600960006101000a81548173ffffffffffffffffffffffffffffffffffffffff021916908373ffffffffffffffffffffffffffffffffffffffff16021790555050565b600860009054906101000a900473ffffffffffffffffffffffffffffffffffffffff1681565b6000600260009054906101000a900473ffffffffffffffffffffffffffffffffffffffff1673ffffffffffffffffffffffffffffffffffffffff163373ffffffffffffffffffffffffffffffffffffffff16141515612b1d57600080fd5b819050600073ffffffffffffffffffffffffffffffffffffffff168173ffffffffffffffffffffffffffffffffffffffff161415612b7b57600260009054906101000a900473ffffffffffffffffffffffffffffffffffffffff1690505b611388600a54101515612b8d57600080fd5b600a60008154809291906001019190505550612bdc84848080601f0160208091040260200160405190810160405280939291908181526020018383808284378201915050505050508283612f37565b5050505050565b600b5481565b6000600260009054906101000a900473ffffffffffffffffffffffffffffffffffffffff1673ffffffffffffffffffffffffffffffffffffffff163373ffffffffffffffffffffffffffffffffffffffff16141515612c4757600080fd5b61afc8600b54101515612c5957600080fd5b612c9683838080601f0160208091040260200160405190810160405280939291908181526020018383808284378201915050505050503030612f37565b9050612cc481600860009054906101000a900473ffffffffffffffffffffffffffffffffffffffff16612ee1565b600860009054906101000a900473ffffffffffffffffffffffffffffffffffffffff1673ffffffffffffffffffffffffffffffffffffffff16636c3f8088826000612d0d613ade565b6103e860003062015180306040518963ffffffff167c0100000000000000000000000000000000000000000000000000000000028152600401808981526020018881526020018781526020018681526020018581526020018473ffffffffffffffffffffffffffffffffffffffff1673ffffffffffffffffffffffffffffffffffffffff1681526020018381526020018273ffffffffffffffffffffffffffffffffffffffff1673ffffffffffffffffffffffffffffffffffffffff16815260200198505050505050505050600060405180830381600087803b1515612df257600080fd5b6102c65a03f11515612e0357600080fd5b505050600b60008154809291906001019190505550505050565b612e25613c2c565b612e2d613c2c565b60008084604051805910612e3e5750595b9080825280601f01601f19166020018201604052509250602083019150859050612e69828287613be1565b82935050505092915050565b60008273ffffffffffffffffffffffffffffffffffffffff166005600084815260200190815260200160002060009054906101000a900473ffffffffffffffffffffffffffffffffffffffff1673ffffffffffffffffffffffffffffffffffffffff1614905092915050565b806007600084815260200190815260200160002060006101000a81548173ffffffffffffffffffffffffffffffffffffffff021916908373ffffffffffffffffffffffffffffffffffffffff1602179055505050565b6000612f41613c7f565b600060a0604051908101604052808781526020014267ffffffffffffffff168152602001602060405190810160405280600081525081526020018673ffffffffffffffffffffffffffffffffffffffff1681526020018573ffffffffffffffffffffffffffffffffffffffff168152509150600160048054806001018281612fc99190613cf1565b916000526020600020906005020160008590919091506000820151816000019080519060200190612ffb929190613d23565b5060208201518160010160006101000a81548167ffffffffffffffff021916908367ffffffffffffffff1602179055506040820151816002019080519060200190613047929190613d23565b5060608201518160030160006101000a81548173ffffffffffffffffffffffffffffffffffffffff021916908373ffffffffffffffffffffffffffffffffffffffff16021790555060808201518160040160006101000a81548173ffffffffffffffffffffffffffffffffffffffff021916908373ffffffffffffffffffffffffffffffffffffffff16021790555050500390508063ffffffff16811415156130ef57600080fd5b7f225c4790e418f4f69aa28361ed2bb2f785cb4a3c4f37b8e3024c44d5d9a8a120848787604051808473ffffffffffffffffffffffffffffffffffffffff1673ffffffffffffffffffffffffffffffffffffffff168152602001806020018373ffffffffffffffffffffffffffffffffffffffff1673ffffffffffffffffffffffffffffffffffffffff168152602001828103825284818151815260200191508051906020019080838360005b838110156131b757808201518184015260208101905061319c565b50505050905090810190601f1680156131e45780820380516001836020036101000a031916815260200191505b5094505050505060405180910390a16131ff60008583613277565b80925050509392505050565b60008273ffffffffffffffffffffffffffffffffffffffff166007600084815260200190815260200160002060009054906101000a900473ffffffffffffffffffffffffffffffffffffffff1673ffffffffffffffffffffffffffffffffffffffff1614905092915050565b600660008373ffffffffffffffffffffffffffffffffffffffff1673ffffffffffffffffffffffffffffffffffffffff16815260200190815260200160002060008154809291906001019190505550816005600083815260200190815260200160002060006101000a81548173ffffffffffffffffffffffffffffffffffffffff021916908373ffffffffffffffffffffffffffffffffffffffff160217905550600073ffffffffffffffffffffffffffffffffffffffff168373ffffffffffffffffffffffffffffffffffffffff161415156133d557600660008473ffffffffffffffffffffffffffffffffffffffff1673ffffffffffffffffffffffffffffffffffffffff16815260200190815260200160002060008154809291906001900391905055506007600082815260200190815260200160002060006101000a81549073ffffffffffffffffffffffffffffffffffffffff02191690555b7fddf252ad1be2c89b69c2b068fc378daa952ba7f163c4a11628f55a4df523b3ef838383604051808473ffffffffffffffffffffffffffffffffffffffff1673ffffffffffffffffffffffffffffffffffffffff1681526020018373ffffffffffffffffffffffffffffffffffffffff1673ffffffffffffffffffffffffffffffffffffffff168152602001828152602001935050505060405180910390a1505050565b6000613483613c7f565b600060a0604051908101604052808681526020014267ffffffffffffffff16815260200160206040519081016040528060008152508152602001600073ffffffffffffffffffffffffffffffffffffffff1681526020018573ffffffffffffffffffffffffffffffffffffffff16815250915060016004805480600101828161350c9190613cf1565b91600052602060002090600502016000859091909150600082015181600001908051906020019061353e929190613d23565b5060208201518160010160006101000a81548167ffffffffffffffff021916908367ffffffffffffffff160217905550604082015181600201908051906020019061358a929190613d23565b5060608201518160030160006101000a81548173ffffffffffffffffffffffffffffffffffffffff021916908373ffffffffffffffffffffffffffffffffffffffff16021790555060808201518160040160006101000a81548173ffffffffffffffffffffffffffffffffffffffff021916908373ffffffffffffffffffffffffffffffffffffffff16021790555050500390508063ffffffff168114151561363257600080fd5b7f083de8647ac610b6d9d8f1d48d5601664876e3aa6dd4e4438638b9a18999e2c28486604051808373ffffffffffffffffffffffffffffffffffffffff1673ffffffffffffffffffffffffffffffffffffffff16815260200180602001828103825283818151815260200191508051906020019080838360005b838110156136c75780820151818401526020810190506136ac565b50505050905090810190601f1680156136f45780820380516001836020036101000a031916815260200191505b50935050505060405180910390a161370e60008583613277565b809250505092915050565b6000809054906101000a900473ffffffffffffffffffffffffffffffffffffffff1673ffffffffffffffffffffffffffffffffffffffff163373ffffffffffffffffffffffffffffffffffffffff1614151561377457600080fd5b600260149054906101000a900460ff16151561378f57600080fd5b6000600260146101000a81548160ff021916908315150217905550565b60006137b6613c7f565b600060a0604051908101604052808881526020014267ffffffffffffffff1681526020018781526020018673ffffffffffffffffffffffffffffffffffffffff1681526020018573ffffffffffffffffffffffffffffffffffffffff16815250915060016004805480600101828161382e9190613cf1565b916000526020600020906005020160008590919091506000820151816000019080519060200190613860929190613d23565b5060208201518160010160006101000a81548167ffffffffffffffff021916908367ffffffffffffffff16021790555060408201518160020190805190602001906138ac929190613d23565b5060608201518160030160006101000a81548173ffffffffffffffffffffffffffffffffffffffff021916908373ffffffffffffffffffffffffffffffffffffffff16021790555060808201518160040160006101000a81548173ffffffffffffffffffffffffffffffffffffffff021916908373ffffffffffffffffffffffffffffffffffffffff16021790555050500390508063ffffffff168114151561395457600080fd5b7f2165b0e5b1f4f055277c17cfdf89baeb82ceddd17e60eaffe812d2c4bac2957384888888604051808573ffffffffffffffffffffffffffffffffffffffff1673ffffffffffffffffffffffffffffffffffffffff16815260200180602001806020018473ffffffffffffffffffffffffffffffffffffffff1673ffffffffffffffffffffffffffffffffffffffff168152602001838103835286818151815260200191508051906020019080838360005b83811015613a21578082015181840152602081019050613a06565b50505050905090810190601f168015613a4e5780820380516001836020036101000a031916815260200191505b50838103825285818151815260200191508051906020019080838360005b83811015613a87578082015181840152602081019050613a6c565b50505050905090810190601f168015613ab45780820380516001836020036101000a031916815260200191505b50965050505050505060405180910390a1613ad160008583613277565b8092505050949350505050565b6000806000600860009054906101000a900473ffffffffffffffffffffffffffffffffffffffff1673ffffffffffffffffffffffffffffffffffffffff1663eac9d94c6000604051602001526040518163ffffffff167c0100000000000000000000000000000000000000000000000000000000028152600401602060405180830381600087803b1515613b7157600080fd5b6102c65a03f11515613b8257600080fd5b505050604051805190509150816fffffffffffffffffffffffffffffffff1682141515613bae57600080fd5b600282811515613bba57fe5b0482019050662386f26fc10000811015613bd957662386f26fc1000090505b809250505090565b60005b602082101515613c095782518452602084019350602083019250602082039150613be4565b6001826020036101000a0390508019835116818551168181178652505050505050565b602060405190810160405280600081525090565b6080604051908101604052806004905b6000801916815260200190600190039081613c505790505090565b602060405190810160405280600081525090565b60a060405190810160405280613c93613da3565b8152602001600067ffffffffffffffff168152602001613cb1613da3565b8152602001600073ffffffffffffffffffffffffffffffffffffffff168152602001600073ffffffffffffffffffffffffffffffffffffffff1681525090565b815481835581811511613d1e57600502816005028360005260206000209182019101613d1d9190613db7565b5b505050565b828054600181600116156101000203166002900490600052602060002090601f016020900481019282601f10613d6457805160ff1916838001178555613d92565b82800160010185558215613d92579182015b82811115613d91578251825591602001919060010190613d76565b5b509050613d9f9190613e5f565b5090565b602060405190810160405280600081525090565b613e5c91905b80821115613e585760008082016000613dd69190613e84565b6001820160006101000a81549067ffffffffffffffff0219169055600282016000613e019190613e84565b6003820160006101000a81549073ffffffffffffffffffffffffffffffffffffffff02191690556004820160006101000a81549073ffffffffffffffffffffffffffffffffffffffff021916905550600501613dbd565b5090565b90565b613e8191905b80821115613e7d576000816000905550600101613e65565b5090565b90565b50805460018160011615610100020316600290046000825580601f10613eaa5750613ec9565b601f016020900490600052602060002090810190613ec89190613e5f565b5b505600a165627a7a72305820f477933faea7754853ae2ba15760d8850516a7861751ceb91e850a1d7e4343810029",
  "source": "/// @title Cryptopictures: Collectible, breedable, and oh-so-adorable cats on the Ethereum blockchain.\n/// @author Axiom Zen (https://www.axiomzen.co)\n/// @dev The main Cryptopictures contract, keeps track of kittens so they don't wander around and get lost.\npragma solidity ^0.4.16;\n\nimport \"./PictureMinting.sol\";\n\ncontract PictureCore is PictureMinting {\n\n    // This is the main Cryptopictures contract. In order to keep our code seperated into logical sections,\n    // we've broken it up in two ways. First, we have several seperately-instantiated sibling contracts\n    // that handle auctions and our super-top-secret genetic combination algorithm. The auctions are\n    // seperate since their logic is somewhat complex and there's always a risk of subtle bugs. By keeping\n    // them in their own contracts, we can upgrade them without disrupting the main contract that tracks\n    // kitty ownership. The genetic combination algorithm is kept seperate so we can open-source all of\n    // the rest of our code without making it _too_ easy for folks to figure out how the genetics work.\n    // Don't worry, I'm sure someone will reverse engineer it soon enough!\n    //\n    // Secondly, we break the core contract into multiple files using inheritence, one for each major\n    // facet of functionality of CK. This allows us to keep related code bundled together while still\n    // avoiding a single giant file with everything in it. The breakdown is as follows:\n    //\n    //      - PictureBase: This is where we define the most fundamental code shared throughout the core\n    //             functionality. This includes our main data storage, constants and data types, plus\n    //             internal functions for managing these items.\n    //\n    //      - PictureAccessControl: This contract manages the various addresses and constraints for operations\n    //             that can be executed only by specific roles. Namely CEO, CFO and COO.\n    //\n    //      - PictureOwnership: This provides the methods required for basic non-fungible token\n    //             transactions, following the draft ERC-721 spec (https://github.com/ethereum/EIPs/issues/721).\n    //\n    //      - PictureAuctions: Here we have the public methods for auctioning or bidding on cats or siring\n    //             services. The actual auction functionality is handled in two sibling contracts (one\n    //             for sales and one for siring), while auction creation and bidding is mostly mediated\n    //             through this facet of the core contract.\n    //\n    //      - PictureMinting: This final facet contains the functionality we use for creating new gen0 cats.\n    //             We can make up to 5000 \"promo\" cats that can be given away (especially important when\n    //             the community is new), and all others can only be created and then immediately put up\n    //             for auction via an algorithmically determined starting price. Regardless of how they\n    //             are created, there is a hard limit of 50k gen0 cats. After that, it's all up to the\n    //             community to breed, breed, breed!\n\n    // Set in case the core contract is broken and an upgrade is required\n    address public newContractAddress;\n\n    /// @notice Creates the main Cryptopictures smart contract instance.\n    function PictureCore() public {\n        // Starts paused.\n        paused = true;\n\n        // the creator of the contract is the initial CEO\n        ceoAddress = msg.sender;\n\n        // the creator of the contract is also the initial COO\n        cooAddress = msg.sender;\n\n        // start with the mythical kitten 0 - so we don't have generation-0 parent issues\n        _createPictureWithArtist(\"\", address(0), address(0));\n    }\n\n    /// @dev Used to mark the smart contract as upgraded, in case there is a serious\n    ///  breaking bug. This method does nothing but keep track of the new contract and\n    ///  emit a message indicating that the new address is set. It's up to clients of this\n    ///  contract to update to the new contract address in that case. (This contract will\n    ///  be paused indefinitely if such an upgrade takes place.)\n    /// @param _v2Address new address\n    function setNewAddress(address _v2Address) external onlyCEO whenPaused {\n        // See README.md for updgrade plan\n        newContractAddress = _v2Address;\n        ContractUpgrade(_v2Address);\n    }\n\n    /// @notice No tipping!\n    /// @dev Reject all Ether from being sent here, unless it's from one of the\n    ///  two auction contracts. (Hopefully, we can prevent user accidents.)\n    function() external payable {\n        require(msg.sender == address(saleAuction));\n    }\n\n    /// @notice Returns all the relevant information about a specific kitty.\n    /// @param _id The ID of the kitty of interest.\n    function getPicture(uint256 _id)\n        external\n        view\n        returns (\n        string hashValue,\n        uint256 birthTime,\n        string styleHash,\n        address styleOwnerAddr,\n        address maker\n    ) {\n        Picture storage pic = pictures[_id];\n\n        // if this variable is 0 then it's not gestating\n        birthTime = uint256(pic.birthTime);\n        styleHash = pic.styleHash;\n        styleOwnerAddr = pic.styleOwner;\n        maker = pic.maker;\n        hashValue = pic.hashValue;\n    }\n\n    // upload the picture of owner, not handle with AI from platform\n    function uploadPicture(string _hashValue, address _owner) external returns(uint256 tokenId)\n    {\n        return _createPicture(_hashValue, _owner);\n    }\n\n    // upload the picture of owner, handled with AI artist mode from platform\n    function uploadPictureWithArtist(string _hashValue, address _styleOwner, address _owner) external returns(uint256 tokenId)\n    {\n        return _createPictureWithArtist(_hashValue, _styleOwner, _owner);\n    }\n\n    // upload the picture of owner, handled with AI style picture mode from platform\n    function uploadPictureWithArtist(string _hashValue, string _styleHash,address _styleOwner, address _owner) external returns(uint256 tokenId)\n    {\n        return _createPictureWithStyle(_hashValue, _styleHash, _styleOwner, _owner);\n    }\n\n    /// @dev Override unpause so it requires all external contract addresses\n    ///  to be set before contract can be unpaused. Also, we can't have\n    ///  newContractAddress set either, because then the contract was upgraded.\n    /// @notice This is public rather than external so we can call super.unpause\n    ///  without using an expensive CALL.\n    function unpause() public onlyCEO whenPaused {\n        require(saleAuction != address(0));\n        require(newContractAddress == address(0));\n\n        // Actually unpause the contract.\n        super.unpause();\n    }\n\n    // @dev Allows the CFO to capture the balance available to the contract.\n    function withdrawBalance() external onlyCFO {\n        uint256 balance = this.balance;\n\n        cfoAddress.transfer(balance);\n    }\n}\n",
  "sourcePath": "/Users/blockchain/work/code/elforce/Auction/client/contracts/PictureCore.sol",
  "compiler": {
    "name": "solc",
    "version": "0.4.18+commit.9cf6e910.Emscripten.clang"
  },
  "schemaVersion": "1.0.1",
  "updatedAt": "2018-05-15T08:53:12.520Z"
}