{
  "contractName": "PictureOwnership",
  "abi": [
    {
      "constant": true,
      "inputs": [
        {
          "name": "_interfaceID",
          "type": "bytes4"
        }
      ],
      "name": "supportsInterface",
      "outputs": [
        {
          "name": "",
          "type": "bool"
        }
      ],
      "payable": false,
      "stateMutability": "view",
      "type": "function"
    },
    {
      "constant": true,
      "inputs": [],
      "name": "cfoAddress",
      "outputs": [
        {
          "name": "",
          "type": "address"
        }
      ],
      "payable": false,
      "stateMutability": "view",
      "type": "function"
    },
    {
      "constant": true,
      "inputs": [
        {
          "name": "_tokenId",
          "type": "uint256"
        },
        {
          "name": "_preferredTransport",
          "type": "string"
        }
      ],
      "name": "tokenMetadata",
      "outputs": [
        {
          "name": "infoUrl",
          "type": "string"
        }
      ],
      "payable": false,
      "stateMutability": "view",
      "type": "function"
    },
    {
      "constant": true,
      "inputs": [],
      "name": "name",
      "outputs": [
        {
          "name": "",
          "type": "string"
        }
      ],
      "payable": false,
      "stateMutability": "view",
      "type": "function"
    },
    {
      "constant": false,
      "inputs": [
        {
          "name": "_to",
          "type": "address"
        },
        {
          "name": "_tokenId",
          "type": "uint256"
        }
      ],
      "name": "approve",
      "outputs": [],
      "payable": false,
      "stateMutability": "nonpayable",
      "type": "function"
    },
    {
      "constant": true,
      "inputs": [],
      "name": "ceoAddress",
      "outputs": [
        {
          "name": "",
          "type": "address"
        }
      ],
      "payable": false,
      "stateMutability": "view",
      "type": "function"
    },
    {
      "constant": true,
      "inputs": [],
      "name": "totalSupply",
      "outputs": [
        {
          "name": "",
          "type": "uint256"
        }
      ],
      "payable": false,
      "stateMutability": "view",
      "type": "function"
    },
    {
      "constant": false,
      "inputs": [
        {
          "name": "_from",
          "type": "address"
        },
        {
          "name": "_to",
          "type": "address"
        },
        {
          "name": "_tokenId",
          "type": "uint256"
        }
      ],
      "name": "transferFrom",
      "outputs": [],
      "payable": false,
      "stateMutability": "nonpayable",
      "type": "function"
    },
    {
      "constant": false,
      "inputs": [
        {
          "name": "_newCEO",
          "type": "address"
        }
      ],
      "name": "setCEO",
      "outputs": [],
      "payable": false,
      "stateMutability": "nonpayable",
      "type": "function"
    },
    {
      "constant": false,
      "inputs": [
        {
          "name": "_newCOO",
          "type": "address"
        }
      ],
      "name": "setCOO",
      "outputs": [],
      "payable": false,
      "stateMutability": "nonpayable",
      "type": "function"
    },
    {
      "constant": false,
      "inputs": [],
      "name": "unpause",
      "outputs": [],
      "payable": false,
      "stateMutability": "nonpayable",
      "type": "function"
    },
    {
      "constant": true,
      "inputs": [
        {
          "name": "",
          "type": "uint256"
        }
      ],
      "name": "pictureIndexToApproved",
      "outputs": [
        {
          "name": "",
          "type": "address"
        }
      ],
      "payable": false,
      "stateMutability": "view",
      "type": "function"
    },
    {
      "constant": true,
      "inputs": [
        {
          "name": "",
          "type": "uint256"
        }
      ],
      "name": "pictureIndexToOwner",
      "outputs": [
        {
          "name": "",
          "type": "address"
        }
      ],
      "payable": false,
      "stateMutability": "view",
      "type": "function"
    },
    {
      "constant": false,
      "inputs": [
        {
          "name": "_newCFO",
          "type": "address"
        }
      ],
      "name": "setCFO",
      "outputs": [],
      "payable": false,
      "stateMutability": "nonpayable",
      "type": "function"
    },
    {
      "constant": false,
      "inputs": [
        {
          "name": "secs",
          "type": "uint256"
        }
      ],
      "name": "setSecondsPerBlock",
      "outputs": [],
      "payable": false,
      "stateMutability": "nonpayable",
      "type": "function"
    },
    {
      "constant": true,
      "inputs": [],
      "name": "paused",
      "outputs": [
        {
          "name": "",
          "type": "bool"
        }
      ],
      "payable": false,
      "stateMutability": "view",
      "type": "function"
    },
    {
      "constant": true,
      "inputs": [
        {
          "name": "_tokenId",
          "type": "uint256"
        }
      ],
      "name": "ownerOf",
      "outputs": [
        {
          "name": "owner",
          "type": "address"
        }
      ],
      "payable": false,
      "stateMutability": "view",
      "type": "function"
    },
    {
      "constant": true,
      "inputs": [
        {
          "name": "_owner",
          "type": "address"
        }
      ],
      "name": "balanceOf",
      "outputs": [
        {
          "name": "count",
          "type": "uint256"
        }
      ],
      "payable": false,
      "stateMutability": "view",
      "type": "function"
    },
    {
      "constant": true,
      "inputs": [],
      "name": "secondsPerBlock",
      "outputs": [
        {
          "name": "",
          "type": "uint256"
        }
      ],
      "payable": false,
      "stateMutability": "view",
      "type": "function"
    },
    {
      "constant": false,
      "inputs": [],
      "name": "pause",
      "outputs": [],
      "payable": false,
      "stateMutability": "nonpayable",
      "type": "function"
    },
    {
      "constant": true,
      "inputs": [
        {
          "name": "_owner",
          "type": "address"
        }
      ],
      "name": "tokensOfOwner",
      "outputs": [
        {
          "name": "ownerTokens",
          "type": "uint256[]"
        }
      ],
      "payable": false,
      "stateMutability": "view",
      "type": "function"
    },
    {
      "constant": true,
      "inputs": [],
      "name": "symbol",
      "outputs": [
        {
          "name": "",
          "type": "string"
        }
      ],
      "payable": false,
      "stateMutability": "view",
      "type": "function"
    },
    {
      "constant": false,
      "inputs": [
        {
          "name": "_to",
          "type": "address"
        },
        {
          "name": "_tokenId",
          "type": "uint256"
        }
      ],
      "name": "transfer",
      "outputs": [],
      "payable": false,
      "stateMutability": "nonpayable",
      "type": "function"
    },
    {
      "constant": true,
      "inputs": [],
      "name": "cooAddress",
      "outputs": [
        {
          "name": "",
          "type": "address"
        }
      ],
      "payable": false,
      "stateMutability": "view",
      "type": "function"
    },
    {
      "constant": true,
      "inputs": [],
      "name": "erc721Metadata",
      "outputs": [
        {
          "name": "",
          "type": "address"
        }
      ],
      "payable": false,
      "stateMutability": "view",
      "type": "function"
    },
    {
      "constant": true,
      "inputs": [
        {
          "name": "",
          "type": "address"
        }
      ],
      "name": "ownershipTokenCount",
      "outputs": [
        {
          "name": "",
          "type": "uint256"
        }
      ],
      "payable": false,
      "stateMutability": "view",
      "type": "function"
    },
    {
      "constant": false,
      "inputs": [
        {
          "name": "_contractAddress",
          "type": "address"
        }
      ],
      "name": "setMetadataAddress",
      "outputs": [],
      "payable": false,
      "stateMutability": "nonpayable",
      "type": "function"
    },
    {
      "constant": true,
      "inputs": [],
      "name": "saleAuction",
      "outputs": [
        {
          "name": "",
          "type": "address"
        }
      ],
      "payable": false,
      "stateMutability": "view",
      "type": "function"
    },
    {
      "anonymous": false,
      "inputs": [
        {
          "indexed": false,
          "name": "from",
          "type": "address"
        },
        {
          "indexed": false,
          "name": "to",
          "type": "address"
        },
        {
          "indexed": false,
          "name": "tokenId",
          "type": "uint256"
        }
      ],
      "name": "Transfer",
      "type": "event"
    },
    {
      "anonymous": false,
      "inputs": [
        {
          "indexed": false,
          "name": "owner",
          "type": "address"
        },
        {
          "indexed": false,
          "name": "approved",
          "type": "address"
        },
        {
          "indexed": false,
          "name": "tokenId",
          "type": "uint256"
        }
      ],
      "name": "Approval",
      "type": "event"
    },
    {
      "anonymous": false,
      "inputs": [
        {
          "indexed": false,
          "name": "owner",
          "type": "address"
        },
        {
          "indexed": false,
          "name": "hashValue",
          "type": "string"
        },
        {
          "indexed": false,
          "name": "styleHash",
          "type": "string"
        },
        {
          "indexed": false,
          "name": "styleOwner",
          "type": "address"
        }
      ],
      "name": "CreatePictureWithStyle",
      "type": "event"
    },
    {
      "anonymous": false,
      "inputs": [
        {
          "indexed": false,
          "name": "owner",
          "type": "address"
        },
        {
          "indexed": false,
          "name": "hashValue",
          "type": "string"
        },
        {
          "indexed": false,
          "name": "styleOwner",
          "type": "address"
        }
      ],
      "name": "CreatePictureWithArtist",
      "type": "event"
    },
    {
      "anonymous": false,
      "inputs": [
        {
          "indexed": false,
          "name": "owner",
          "type": "address"
        },
        {
          "indexed": false,
          "name": "hashValue",
          "type": "string"
        }
      ],
      "name": "CreatePicture",
      "type": "event"
    },
    {
      "anonymous": false,
      "inputs": [
        {
          "indexed": false,
          "name": "newContract",
          "type": "address"
        }
      ],
      "name": "ContractUpgrade",
      "type": "event"
    }
  ],
  "bytecode": "0x60606040526000600260146101000a81548160ff021916908315150217905550600f600355341561002f57600080fd5b611f9b8061003e6000396000f30060606040526004361061016a576000357c0100000000000000000000000000000000000000000000000000000000900463ffffffff16806301ffc9a71461016f5780630519ce79146101c95780630560ff441461021e57806306fdde03146102ce578063095ea7b31461035c5780630a0f81681461039e57806318160ddd146103f357806323b872dd1461041c57806327d7874c1461047d5780632ba73c15146104b65780633f4ba83a146104ef57806347854d0f14610504578063487a6fde146105675780634e0a3379146105ca5780635663896e146106035780635c975abb146106265780636352211e1461065357806370a08231146106b65780637a7d4937146107035780638456cb591461072c5780638462151c1461074157806395d89b41146107cf578063a9059cbb1461085d578063b047fb501461089f578063bc4006f5146108f4578063cec21acb14610949578063e17b25af14610996578063e6cbe351146109cf575b600080fd5b341561017a57600080fd5b6101af60048080357bffffffffffffffffffffffffffffffffffffffffffffffffffffffff1916906020019091905050610a24565b604051808215151515815260200191505060405180910390f35b34156101d457600080fd5b6101dc610d35565b604051808273ffffffffffffffffffffffffffffffffffffffff1673ffffffffffffffffffffffffffffffffffffffff16815260200191505060405180910390f35b341561022957600080fd5b61025360048080359060200190919080359060200190820180359060200191909192905050610d5b565b6040518080602001828103825283818151815260200191508051906020019080838360005b83811015610293578082015181840152602081019050610278565b50505050905090810190601f1680156102c05780820380516001836020036101000a031916815260200191505b509250505060405180910390f35b34156102d957600080fd5b6102e1610ec6565b6040518080602001828103825283818151815260200191508051906020019080838360005b83811015610321578082015181840152602081019050610306565b50505050905090810190601f16801561034e5780820380516001836020036101000a031916815260200191505b509250505060405180910390f35b341561036757600080fd5b61039c600480803573ffffffffffffffffffffffffffffffffffffffff16906020019091908035906020019091905050610eff565b005b34156103a957600080fd5b6103b1610fdd565b604051808273ffffffffffffffffffffffffffffffffffffffff1673ffffffffffffffffffffffffffffffffffffffff16815260200191505060405180910390f35b34156103fe57600080fd5b610406611002565b6040518082815260200191505060405180910390f35b341561042757600080fd5b61047b600480803573ffffffffffffffffffffffffffffffffffffffff1690602001909190803573ffffffffffffffffffffffffffffffffffffffff16906020019091908035906020019091905050611012565b005b341561048857600080fd5b6104b4600480803573ffffffffffffffffffffffffffffffffffffffff169060200190919050506110df565b005b34156104c157600080fd5b6104ed600480803573ffffffffffffffffffffffffffffffffffffffff169060200190919050506111b9565b005b34156104fa57600080fd5b610502611294565b005b341561050f57600080fd5b6105256004808035906020019091905050611327565b604051808273ffffffffffffffffffffffffffffffffffffffff1673ffffffffffffffffffffffffffffffffffffffff16815260200191505060405180910390f35b341561057257600080fd5b610588600480803590602001909190505061135a565b604051808273ffffffffffffffffffffffffffffffffffffffff1673ffffffffffffffffffffffffffffffffffffffff16815260200191505060405180910390f35b34156105d557600080fd5b610601600480803573ffffffffffffffffffffffffffffffffffffffff1690602001909190505061138d565b005b341561060e57600080fd5b6106246004808035906020019091905050611468565b005b341561063157600080fd5b61063961157d565b604051808215151515815260200191505060405180910390f35b341561065e57600080fd5b6106746004808035906020019091905050611590565b604051808273ffffffffffffffffffffffffffffffffffffffff1673ffffffffffffffffffffffffffffffffffffffff16815260200191505060405180910390f35b34156106c157600080fd5b6106ed600480803573ffffffffffffffffffffffffffffffffffffffff16906020019091905050611609565b6040518082815260200191505060405180910390f35b341561070e57600080fd5b610716611652565b6040518082815260200191505060405180910390f35b341561073757600080fd5b61073f611658565b005b341561074c57600080fd5b610778600480803573ffffffffffffffffffffffffffffffffffffffff1690602001909190505061179c565b6040518080602001828103825283818151815260200191508051906020019060200280838360005b838110156107bb5780820151818401526020810190506107a0565b505050509050019250505060405180910390f35b34156107da57600080fd5b6107e26118d3565b6040518080602001828103825283818151815260200191508051906020019080838360005b83811015610822578082015181840152602081019050610807565b50505050905090810190601f16801561084f5780820380516001836020036101000a031916815260200191505b509250505060405180910390f35b341561086857600080fd5b61089d600480803573ffffffffffffffffffffffffffffffffffffffff1690602001909190803590602001909190505061190c565b005b34156108aa57600080fd5b6108b2611a20565b604051808273ffffffffffffffffffffffffffffffffffffffff1673ffffffffffffffffffffffffffffffffffffffff16815260200191505060405180910390f35b34156108ff57600080fd5b610907611a46565b604051808273ffffffffffffffffffffffffffffffffffffffff1673ffffffffffffffffffffffffffffffffffffffff16815260200191505060405180910390f35b341561095457600080fd5b610980600480803573ffffffffffffffffffffffffffffffffffffffff16906020019091905050611a6c565b6040518082815260200191505060405180910390f35b34156109a157600080fd5b6109cd600480803573ffffffffffffffffffffffffffffffffffffffff16906020019091905050611a84565b005b34156109da57600080fd5b6109e2611b23565b604051808273ffffffffffffffffffffffffffffffffffffffff1673ffffffffffffffffffffffffffffffffffffffff16815260200191505060405180910390f35b600060405180807f737570706f727473496e74657266616365286279746573342900000000000000815250601901905060405180910390207bffffffffffffffffffffffffffffffffffffffffffffffffffffffff1916827bffffffffffffffffffffffffffffffffffffffffffffffffffffffff19161480610d2e575060405180807f746f6b656e4d657461646174612875696e743235362c737472696e6729000000815250601d019050604051809103902060405180807f746f6b656e734f664f776e6572286164647265737329000000000000000000008152506016019050604051809103902060405180807f7472616e7366657246726f6d28616464726573732c616464726573732c75696e81526020017f74323536290000000000000000000000000000000000000000000000000000008152506025019050604051809103902060405180807f7472616e7366657228616464726573732c75696e7432353629000000000000008152506019019050604051809103902060405180807f617070726f766528616464726573732c75696e743235362900000000000000008152506018019050604051809103902060405180807f6f776e65724f662875696e7432353629000000000000000000000000000000008152506010019050604051809103902060405180807f62616c616e63654f6628616464726573732900000000000000000000000000008152506012019050604051809103902060405180807f746f74616c537570706c79282900000000000000000000000000000000000000815250600d019050604051809103902060405180807f73796d626f6c28290000000000000000000000000000000000000000000000008152506008019050604051809103902060405180807f6e616d6528290000000000000000000000000000000000000000000000000000815250600601905060405180910390201818181818181818187bffffffffffffffffffffffffffffffffffffffffffffffffffffffff1916827bffffffffffffffffffffffffffffffffffffffffffffffffffffffff1916145b9050919050565b600160009054906101000a900473ffffffffffffffffffffffffffffffffffffffff1681565b610d63611f1c565b610d6b611f30565b60008073ffffffffffffffffffffffffffffffffffffffff16600960009054906101000a900473ffffffffffffffffffffffffffffffffffffffff1673ffffffffffffffffffffffffffffffffffffffff1614151515610dca57600080fd5b600960009054906101000a900473ffffffffffffffffffffffffffffffffffffffff1673ffffffffffffffffffffffffffffffffffffffff1663cb4799f2878787600060405160a001526040518463ffffffff167c010000000000000000000000000000000000000000000000000000000002815260040180848152602001806020018281038252848482818152602001925080828437820191505094505050505060a060405180830381600087803b1515610e8557600080fd5b6102c65a03f11515610e9657600080fd5b505050604051806080018051906020016040528092508193505050610ebb8282611b49565b925050509392505050565b6040805190810160405280600c81526020017f50696374757265436861696e000000000000000000000000000000000000000081525081565b600260149054906101000a900460ff16151515610f1b57600080fd5b610f253382611ba1565b1515610f3057600080fd5b610f3a8183611c0d565b7f8c5be1e5ebec7d5bd14f71427d1e84f3dd0314c0f7b2291e5b200ac8c7c3b925338383604051808473ffffffffffffffffffffffffffffffffffffffff1673ffffffffffffffffffffffffffffffffffffffff1681526020018373ffffffffffffffffffffffffffffffffffffffff1673ffffffffffffffffffffffffffffffffffffffff168152602001828152602001935050505060405180910390a15050565b6000809054906101000a900473ffffffffffffffffffffffffffffffffffffffff1681565b6000600160048054905003905090565b600260149054906101000a900460ff1615151561102e57600080fd5b600073ffffffffffffffffffffffffffffffffffffffff168273ffffffffffffffffffffffffffffffffffffffff161415151561106a57600080fd5b3073ffffffffffffffffffffffffffffffffffffffff168273ffffffffffffffffffffffffffffffffffffffff16141515156110a557600080fd5b6110af3382611c63565b15156110ba57600080fd5b6110c48382611ba1565b15156110cf57600080fd5b6110da838383611ccf565b505050565b6000809054906101000a900473ffffffffffffffffffffffffffffffffffffffff1673ffffffffffffffffffffffffffffffffffffffff163373ffffffffffffffffffffffffffffffffffffffff1614151561113a57600080fd5b600073ffffffffffffffffffffffffffffffffffffffff168173ffffffffffffffffffffffffffffffffffffffff161415151561117657600080fd5b806000806101000a81548173ffffffffffffffffffffffffffffffffffffffff021916908373ffffffffffffffffffffffffffffffffffffffff16021790555050565b6000809054906101000a900473ffffffffffffffffffffffffffffffffffffffff1673ffffffffffffffffffffffffffffffffffffffff163373ffffffffffffffffffffffffffffffffffffffff1614151561121457600080fd5b600073ffffffffffffffffffffffffffffffffffffffff168173ffffffffffffffffffffffffffffffffffffffff161415151561125057600080fd5b80600260006101000a81548173ffffffffffffffffffffffffffffffffffffffff021916908373ffffffffffffffffffffffffffffffffffffffff16021790555050565b6000809054906101000a900473ffffffffffffffffffffffffffffffffffffffff1673ffffffffffffffffffffffffffffffffffffffff163373ffffffffffffffffffffffffffffffffffffffff161415156112ef57600080fd5b600260149054906101000a900460ff16151561130a57600080fd5b6000600260146101000a81548160ff021916908315150217905550565b60076020528060005260406000206000915054906101000a900473ffffffffffffffffffffffffffffffffffffffff1681565b60056020528060005260406000206000915054906101000a900473ffffffffffffffffffffffffffffffffffffffff1681565b6000809054906101000a900473ffffffffffffffffffffffffffffffffffffffff1673ffffffffffffffffffffffffffffffffffffffff163373ffffffffffffffffffffffffffffffffffffffff161415156113e857600080fd5b600073ffffffffffffffffffffffffffffffffffffffff168173ffffffffffffffffffffffffffffffffffffffff161415151561142457600080fd5b80600160006101000a81548173ffffffffffffffffffffffffffffffffffffffff021916908373ffffffffffffffffffffffffffffffffffffffff16021790555050565b600260009054906101000a900473ffffffffffffffffffffffffffffffffffffffff1673ffffffffffffffffffffffffffffffffffffffff163373ffffffffffffffffffffffffffffffffffffffff16148061151057506000809054906101000a900473ffffffffffffffffffffffffffffffffffffffff1673ffffffffffffffffffffffffffffffffffffffff163373ffffffffffffffffffffffffffffffffffffffff16145b806115685750600160009054906101000a900473ffffffffffffffffffffffffffffffffffffffff1673ffffffffffffffffffffffffffffffffffffffff163373ffffffffffffffffffffffffffffffffffffffff16145b151561157357600080fd5b8060038190555050565b600260149054906101000a900460ff1681565b60006005600083815260200190815260200160002060009054906101000a900473ffffffffffffffffffffffffffffffffffffffff169050600073ffffffffffffffffffffffffffffffffffffffff168173ffffffffffffffffffffffffffffffffffffffff161415151561160457600080fd5b919050565b6000600660008373ffffffffffffffffffffffffffffffffffffffff1673ffffffffffffffffffffffffffffffffffffffff168152602001908152602001600020549050919050565b60035481565b600260009054906101000a900473ffffffffffffffffffffffffffffffffffffffff1673ffffffffffffffffffffffffffffffffffffffff163373ffffffffffffffffffffffffffffffffffffffff16148061170057506000809054906101000a900473ffffffffffffffffffffffffffffffffffffffff1673ffffffffffffffffffffffffffffffffffffffff163373ffffffffffffffffffffffffffffffffffffffff16145b806117585750600160009054906101000a900473ffffffffffffffffffffffffffffffffffffffff1673ffffffffffffffffffffffffffffffffffffffff163373ffffffffffffffffffffffffffffffffffffffff16145b151561176357600080fd5b600260149054906101000a900460ff1615151561177f57600080fd5b6001600260146101000a81548160ff021916908315150217905550565b6117a4611f5b565b60006117ae611f5b565b60008060006117bc87611609565b945060008514156117ee5760006040518059106117d65750595b908082528060200260200182016040525095506118c9565b846040518059106117fc5750595b90808252806020026020018201604052509350611817611002565b925060009150600190505b82811115156118c5578673ffffffffffffffffffffffffffffffffffffffff166005600083815260200190815260200160002060009054906101000a900473ffffffffffffffffffffffffffffffffffffffff1673ffffffffffffffffffffffffffffffffffffffff1614156118b8578084838151811015156118a157fe5b906020019060200201818152505081806001019250505b8080600101915050611822565b8395505b5050505050919050565b6040805190810160405280600281526020017f504300000000000000000000000000000000000000000000000000000000000081525081565b600260149054906101000a900460ff1615151561192857600080fd5b600073ffffffffffffffffffffffffffffffffffffffff168273ffffffffffffffffffffffffffffffffffffffff161415151561196457600080fd5b3073ffffffffffffffffffffffffffffffffffffffff168273ffffffffffffffffffffffffffffffffffffffff161415151561199f57600080fd5b600860009054906101000a900473ffffffffffffffffffffffffffffffffffffffff1673ffffffffffffffffffffffffffffffffffffffff168273ffffffffffffffffffffffffffffffffffffffff16141515156119fc57600080fd5b611a063382611ba1565b1515611a1157600080fd5b611a1c338383611ccf565b5050565b600260009054906101000a900473ffffffffffffffffffffffffffffffffffffffff1681565b600960009054906101000a900473ffffffffffffffffffffffffffffffffffffffff1681565b60066020528060005260406000206000915090505481565b6000809054906101000a900473ffffffffffffffffffffffffffffffffffffffff1673ffffffffffffffffffffffffffffffffffffffff163373ffffffffffffffffffffffffffffffffffffffff16141515611adf57600080fd5b80600960006101000a81548173ffffffffffffffffffffffffffffffffffffffff021916908373ffffffffffffffffffffffffffffffffffffffff16021790555050565b600860009054906101000a900473ffffffffffffffffffffffffffffffffffffffff1681565b611b51611f1c565b611b59611f1c565b60008084604051805910611b6a5750595b9080825280601f01601f19166020018201604052509250602083019150859050611b95828287611ed1565b82935050505092915050565b60008273ffffffffffffffffffffffffffffffffffffffff166005600084815260200190815260200160002060009054906101000a900473ffffffffffffffffffffffffffffffffffffffff1673ffffffffffffffffffffffffffffffffffffffff1614905092915050565b806007600084815260200190815260200160002060006101000a81548173ffffffffffffffffffffffffffffffffffffffff021916908373ffffffffffffffffffffffffffffffffffffffff1602179055505050565b60008273ffffffffffffffffffffffffffffffffffffffff166007600084815260200190815260200160002060009054906101000a900473ffffffffffffffffffffffffffffffffffffffff1673ffffffffffffffffffffffffffffffffffffffff1614905092915050565b600660008373ffffffffffffffffffffffffffffffffffffffff1673ffffffffffffffffffffffffffffffffffffffff16815260200190815260200160002060008154809291906001019190505550816005600083815260200190815260200160002060006101000a81548173ffffffffffffffffffffffffffffffffffffffff021916908373ffffffffffffffffffffffffffffffffffffffff160217905550600073ffffffffffffffffffffffffffffffffffffffff168373ffffffffffffffffffffffffffffffffffffffff16141515611e2d57600660008473ffffffffffffffffffffffffffffffffffffffff1673ffffffffffffffffffffffffffffffffffffffff16815260200190815260200160002060008154809291906001900391905055506007600082815260200190815260200160002060006101000a81549073ffffffffffffffffffffffffffffffffffffffff02191690555b7fddf252ad1be2c89b69c2b068fc378daa952ba7f163c4a11628f55a4df523b3ef838383604051808473ffffffffffffffffffffffffffffffffffffffff1673ffffffffffffffffffffffffffffffffffffffff1681526020018373ffffffffffffffffffffffffffffffffffffffff1673ffffffffffffffffffffffffffffffffffffffff168152602001828152602001935050505060405180910390a1505050565b60005b602082101515611ef95782518452602084019350602083019250602082039150611ed4565b6001826020036101000a0390508019835116818551168181178652505050505050565b602060405190810160405280600081525090565b6080604051908101604052806004905b6000801916815260200190600190039081611f405790505090565b6020604051908101604052806000815250905600a165627a7a72305820fba7b259f7e369d9abf233a4e11bdb317ba1a40e879dc9437d95a59e06d698630029",
  "source": "/// @title The facet of the Cryptopictures core contract that manages ownership, ERC-721 (draft) compliant.\n/// @author Axiom Zen (https://www.axiomzen.co)\n/// @dev Ref: https://github.com/ethereum/EIPs/issues/721\n///  See the PictureCore contract documentation to understand how the various contract facets are arranged.\n\npragma solidity ^0.4.16;\n\nimport \"./PictureBase.sol\";\nimport \"./ERC721.sol\";\nimport \"./ERC721Metadata.sol\";\n\ncontract PictureOwnership is PictureBase, ERC721 {\n\n    /// @notice Name and symbol of the non fungible token, as defined in ERC721.\n    string public constant name = \"PictureChain\";\n    string public constant symbol = \"PC\";\n\n    // The contract that will return kitty metadata\n    ERC721Metadata public erc721Metadata;\n\n    bytes4 constant InterfaceSignature_ERC165 = bytes4(keccak256('supportsInterface(bytes4)'));\n\n    bytes4 constant InterfaceSignature_ERC721 =\n        bytes4(keccak256('name()')) ^\n        bytes4(keccak256('symbol()')) ^\n        bytes4(keccak256('totalSupply()')) ^\n        bytes4(keccak256('balanceOf(address)')) ^\n        bytes4(keccak256('ownerOf(uint256)')) ^\n        bytes4(keccak256('approve(address,uint256)')) ^\n        bytes4(keccak256('transfer(address,uint256)')) ^\n        bytes4(keccak256('transferFrom(address,address,uint256)')) ^\n        bytes4(keccak256('tokensOfOwner(address)')) ^\n        bytes4(keccak256('tokenMetadata(uint256,string)'));\n\n    /// @notice Introspection interface as per ERC-165 (https://github.com/ethereum/EIPs/issues/165).\n    ///  Returns true for any standardized interfaces implemented by this contract. We implement\n    ///  ERC-165 (obviously!) and ERC-721.\n    function supportsInterface(bytes4 _interfaceID) external view returns (bool)\n    {\n        // DEBUG ONLY\n        //require((InterfaceSignature_ERC165 == 0x01ffc9a7) && (InterfaceSignature_ERC721 == 0x9a20483d));\n\n        return ((_interfaceID == InterfaceSignature_ERC165) || (_interfaceID == InterfaceSignature_ERC721));\n    }\n\n    /// @dev Set the address of the sibling contract that tracks metadata.\n    ///  CEO only.\n    function setMetadataAddress(address _contractAddress) public onlyCEO {\n        erc721Metadata = ERC721Metadata(_contractAddress);\n    }\n\n    // Internal utility functions: These functions all assume that their input arguments\n    // are valid. We leave it to public methods to sanitize their inputs and follow\n    // the required logic.\n\n    /// @dev Checks if a given address is the current owner of a particular Kitty.\n    /// @param _claimant the address we are validating against.\n    /// @param _tokenId kitten id, only valid when > 0\n    function _owns(address _claimant, uint256 _tokenId) internal view returns (bool) {\n        return pictureIndexToOwner[_tokenId] == _claimant;\n    }\n\n    /// @dev Checks if a given address currently has transferApproval for a particular Kitty.\n    /// @param _claimant the address we are confirming kitten is approved for.\n    /// @param _tokenId kitten id, only valid when > 0\n    function _approvedFor(address _claimant, uint256 _tokenId) internal view returns (bool) {\n        return pictureIndexToApproved[_tokenId] == _claimant;\n    }\n\n    /// @dev Marks an address as being approved for transferFrom(), overwriting any previous\n    ///  approval. Setting _approved to address(0) clears all transfer approval.\n    ///  NOTE: _approve() does NOT send the Approval event. This is intentional because\n    ///  _approve() and transferFrom() are used together for putting pictures on auction, and\n    ///  there is no value in spamming the log with Approval events in that case.\n    function _approve(uint256 _tokenId, address _approved) internal {\n        pictureIndexToApproved[_tokenId] = _approved;\n    }\n\n    /// @notice Returns the number of pictures owned by a specific address.\n    /// @param _owner The owner address to check.\n    /// @dev Required for ERC-721 compliance\n    function balanceOf(address _owner) public view returns (uint256 count) {\n        return ownershipTokenCount[_owner];\n    }\n\n    /// @notice Transfers a Kitty to another address. If transferring to a smart\n    ///  contract be VERY CAREFUL to ensure that it is aware of ERC-721 (or\n    ///  Cryptopictures specifically) or your Kitty may be lost forever. Seriously.\n    /// @param _to The address of the recipient, can be a user or contract.\n    /// @param _tokenId The ID of the Kitty to transfer.\n    /// @dev Required for ERC-721 compliance.\n    function transfer(\n        address _to,\n        uint256 _tokenId\n    )\n        external\n        whenNotPaused\n    {\n        // Safety check to prevent against an unexpected 0x0 default.\n        require(_to != address(0));\n        // Disallow transfers to this contract to prevent accidental misuse.\n        // The contract should never own any pictures (except very briefly\n        // after a gen0 cat is created and before it goes on auction).\n        require(_to != address(this));\n        // Disallow transfers to the auction contracts to prevent accidental\n        // misuse. Auction contracts should only take ownership of pictures\n        // through the allow + transferFrom flow.\n        require(_to != address(saleAuction));\n\n        // You can only send your own cat.\n        require(_owns(msg.sender, _tokenId));\n\n        // Reassign ownership, clear pending approvals, emit Transfer event.\n        _transfer(msg.sender, _to, _tokenId);\n    }\n\n    /// @notice Grant another address the right to transfer a specific Kitty via\n    ///  transferFrom(). This is the preferred flow for transfering NFTs to contracts.\n    /// @param _to The address to be granted transfer approval. Pass address(0) to\n    ///  clear all approvals.\n    /// @param _tokenId The ID of the Kitty that can be transferred if this call succeeds.\n    /// @dev Required for ERC-721 compliance.\n    function approve(\n        address _to,\n        uint256 _tokenId\n    )\n        external\n        whenNotPaused\n    {\n        // Only an owner can grant transfer approval.\n        require(_owns(msg.sender, _tokenId));\n\n        // Register the approval (replacing any previous approval).\n        _approve(_tokenId, _to);\n\n        // Emit approval event.\n        Approval(msg.sender, _to, _tokenId);\n    }\n\n    /// @notice Transfer a Kitty owned by another address, for which the calling address\n    ///  has previously been granted transfer approval by the owner.\n    /// @param _from The address that owns the Kitty to be transfered.\n    /// @param _to The address that should take ownership of the Kitty. Can be any address,\n    ///  including the caller.\n    /// @param _tokenId The ID of the Kitty to be transferred.\n    /// @dev Required for ERC-721 compliance.\n    function transferFrom(\n        address _from,\n        address _to,\n        uint256 _tokenId\n    )\n        external\n        whenNotPaused\n    {\n        // Safety check to prevent against an unexpected 0x0 default.\n        require(_to != address(0));\n        // Disallow transfers to this contract to prevent accidental misuse.\n        // The contract should never own any pictures (except very briefly\n        // after a gen0 cat is created and before it goes on auction).\n        require(_to != address(this));\n        // Check for approval and valid ownership\n        require(_approvedFor(msg.sender, _tokenId));\n        require(_owns(_from, _tokenId));\n\n        // Reassign ownership (also clears pending approvals and emits Transfer event).\n        _transfer(_from, _to, _tokenId);\n    }\n\n    /// @notice Returns the total number of pictures currently in existence.\n    /// @dev Required for ERC-721 compliance.\n    function totalSupply() public view returns (uint) {\n        return pictures.length - 1;\n    }\n\n    /// @notice Returns the address currently assigned ownership of a given Kitty.\n    /// @dev Required for ERC-721 compliance.\n    function ownerOf(uint256 _tokenId)\n        external\n        view\n        returns (address owner)\n    {\n        owner = pictureIndexToOwner[_tokenId];\n\n        require(owner != address(0));\n    }\n\n    /// @notice Returns a list of all Kitty IDs assigned to an address.\n    /// @param _owner The owner whose pictures we are interested in.\n    /// @dev This method MUST NEVER be called by smart contract code. First, it's fairly\n    ///  expensive (it walks the entire Kitty array looking for cats belonging to owner),\n    ///  but it also returns a dynamic array, which is only supported for web3 calls, and\n    ///  not contract-to-contract calls.\n    function tokensOfOwner(address _owner) external view returns(uint256[] ownerTokens) {\n        uint256 tokenCount = balanceOf(_owner);\n\n        if (tokenCount == 0) {\n            // Return an empty array\n            return new uint256[](0);\n        } else {\n            uint256[] memory result = new uint256[](tokenCount);\n            uint256 totalCats = totalSupply();\n            uint256 resultIndex = 0;\n\n            // We count on the fact that all cats have IDs starting at 1 and increasing\n            // sequentially up to the totalCat count.\n            uint256 catId;\n\n            for (catId = 1; catId <= totalCats; catId++) {\n                if (pictureIndexToOwner[catId] == _owner) {\n                    result[resultIndex] = catId;\n                    resultIndex++;\n                }\n            }\n\n            return result;\n        }\n    }\n\n    /// @dev Adapted from memcpy() by @arachnid (Nick Johnson <arachnid@notdot.net>)\n    ///  This method is licenced under the Apache License.\n    ///  Ref: https://github.com/Arachnid/solidity-stringutils/blob/2f6ca9accb48ae14c66f1437ec50ed19a0616f78/strings.sol\n    function _memcpy(uint _dest, uint _src, uint _len) private view {\n        // Copy word-length chunks while possible\n        for(; _len >= 32; _len -= 32) {\n            assembly {\n                mstore(_dest, mload(_src))\n            }\n            _dest += 32;\n            _src += 32;\n        }\n\n        // Copy remaining bytes\n        uint256 mask = 256 ** (32 - _len) - 1;\n        assembly {\n            let srcpart := and(mload(_src), not(mask))\n            let destpart := and(mload(_dest), mask)\n            mstore(_dest, or(destpart, srcpart))\n        }\n    }\n\n    /// @dev Adapted from toString(slice) by @arachnid (Nick Johnson <arachnid@notdot.net>)\n    ///  This method is licenced under the Apache License.\n    ///  Ref: https://github.com/Arachnid/solidity-stringutils/blob/2f6ca9accb48ae14c66f1437ec50ed19a0616f78/strings.sol\n    function _toString(bytes32[4] _rawBytes, uint256 _stringLength) private view returns (string) {\n        var outputString = new string(_stringLength);\n        uint256 outputPtr;\n        uint256 bytesPtr;\n\n        assembly {\n            outputPtr := add(outputString, 32)\n            bytesPtr := _rawBytes\n        }\n\n        _memcpy(outputPtr, bytesPtr, _stringLength);\n\n        return outputString;\n    }\n\n    /// @notice Returns a URI pointing to a metadata package for this token conforming to\n    ///  ERC-721 (https://github.com/ethereum/EIPs/issues/721)\n    /// @param _tokenId The ID number of the Kitty whose metadata should be returned.\n    function tokenMetadata(uint256 _tokenId, string _preferredTransport) external view returns (string infoUrl) {\n        require(erc721Metadata != address(0));\n        bytes32[4] memory buffer;\n        uint256 count;\n        (buffer, count) = erc721Metadata.getMetadata(_tokenId, _preferredTransport);\n\n        return _toString(buffer, count);\n    }\n}\n",
  "sourcePath": "/Users/blockchain/work/code/elforce/Auction/client/contracts/PictureOwnership.sol",
  "compiler": {
    "name": "solc",
    "version": "0.4.18+commit.9cf6e910.Emscripten.clang"
  },
  "schemaVersion": "1.0.1",
  "updatedAt": "2018-05-15T08:53:12.517Z"
}