{
  "contractName": "PictureBase",
  "abi": [
    {
      "constant": true,
      "inputs": [],
      "name": "cfoAddress",
      "outputs": [
        {
          "name": "",
          "type": "address"
        }
      ],
      "payable": false,
      "stateMutability": "view",
      "type": "function"
    },
    {
      "constant": true,
      "inputs": [],
      "name": "ceoAddress",
      "outputs": [
        {
          "name": "",
          "type": "address"
        }
      ],
      "payable": false,
      "stateMutability": "view",
      "type": "function"
    },
    {
      "constant": false,
      "inputs": [
        {
          "name": "_newCEO",
          "type": "address"
        }
      ],
      "name": "setCEO",
      "outputs": [],
      "payable": false,
      "stateMutability": "nonpayable",
      "type": "function"
    },
    {
      "constant": false,
      "inputs": [
        {
          "name": "_newCOO",
          "type": "address"
        }
      ],
      "name": "setCOO",
      "outputs": [],
      "payable": false,
      "stateMutability": "nonpayable",
      "type": "function"
    },
    {
      "constant": false,
      "inputs": [],
      "name": "unpause",
      "outputs": [],
      "payable": false,
      "stateMutability": "nonpayable",
      "type": "function"
    },
    {
      "constant": true,
      "inputs": [
        {
          "name": "",
          "type": "uint256"
        }
      ],
      "name": "pictureIndexToApproved",
      "outputs": [
        {
          "name": "",
          "type": "address"
        }
      ],
      "payable": false,
      "stateMutability": "view",
      "type": "function"
    },
    {
      "constant": true,
      "inputs": [
        {
          "name": "",
          "type": "uint256"
        }
      ],
      "name": "pictureIndexToOwner",
      "outputs": [
        {
          "name": "",
          "type": "address"
        }
      ],
      "payable": false,
      "stateMutability": "view",
      "type": "function"
    },
    {
      "constant": false,
      "inputs": [
        {
          "name": "_newCFO",
          "type": "address"
        }
      ],
      "name": "setCFO",
      "outputs": [],
      "payable": false,
      "stateMutability": "nonpayable",
      "type": "function"
    },
    {
      "constant": false,
      "inputs": [
        {
          "name": "secs",
          "type": "uint256"
        }
      ],
      "name": "setSecondsPerBlock",
      "outputs": [],
      "payable": false,
      "stateMutability": "nonpayable",
      "type": "function"
    },
    {
      "constant": true,
      "inputs": [],
      "name": "paused",
      "outputs": [
        {
          "name": "",
          "type": "bool"
        }
      ],
      "payable": false,
      "stateMutability": "view",
      "type": "function"
    },
    {
      "constant": true,
      "inputs": [],
      "name": "secondsPerBlock",
      "outputs": [
        {
          "name": "",
          "type": "uint256"
        }
      ],
      "payable": false,
      "stateMutability": "view",
      "type": "function"
    },
    {
      "constant": false,
      "inputs": [],
      "name": "pause",
      "outputs": [],
      "payable": false,
      "stateMutability": "nonpayable",
      "type": "function"
    },
    {
      "constant": true,
      "inputs": [],
      "name": "cooAddress",
      "outputs": [
        {
          "name": "",
          "type": "address"
        }
      ],
      "payable": false,
      "stateMutability": "view",
      "type": "function"
    },
    {
      "constant": true,
      "inputs": [
        {
          "name": "",
          "type": "address"
        }
      ],
      "name": "ownershipTokenCount",
      "outputs": [
        {
          "name": "",
          "type": "uint256"
        }
      ],
      "payable": false,
      "stateMutability": "view",
      "type": "function"
    },
    {
      "constant": true,
      "inputs": [],
      "name": "saleAuction",
      "outputs": [
        {
          "name": "",
          "type": "address"
        }
      ],
      "payable": false,
      "stateMutability": "view",
      "type": "function"
    },
    {
      "anonymous": false,
      "inputs": [
        {
          "indexed": false,
          "name": "owner",
          "type": "address"
        },
        {
          "indexed": false,
          "name": "hashValue",
          "type": "string"
        },
        {
          "indexed": false,
          "name": "styleHash",
          "type": "string"
        },
        {
          "indexed": false,
          "name": "styleOwner",
          "type": "address"
        }
      ],
      "name": "CreatePictureWithStyle",
      "type": "event"
    },
    {
      "anonymous": false,
      "inputs": [
        {
          "indexed": false,
          "name": "owner",
          "type": "address"
        },
        {
          "indexed": false,
          "name": "hashValue",
          "type": "string"
        },
        {
          "indexed": false,
          "name": "styleOwner",
          "type": "address"
        }
      ],
      "name": "CreatePictureWithArtist",
      "type": "event"
    },
    {
      "anonymous": false,
      "inputs": [
        {
          "indexed": false,
          "name": "owner",
          "type": "address"
        },
        {
          "indexed": false,
          "name": "hashValue",
          "type": "string"
        }
      ],
      "name": "CreatePicture",
      "type": "event"
    },
    {
      "anonymous": false,
      "inputs": [
        {
          "indexed": false,
          "name": "from",
          "type": "address"
        },
        {
          "indexed": false,
          "name": "to",
          "type": "address"
        },
        {
          "indexed": false,
          "name": "tokenId",
          "type": "uint256"
        }
      ],
      "name": "Transfer",
      "type": "event"
    },
    {
      "anonymous": false,
      "inputs": [
        {
          "indexed": false,
          "name": "newContract",
          "type": "address"
        }
      ],
      "name": "ContractUpgrade",
      "type": "event"
    }
  ],
  "bytecode": "0x60606040526000600260146101000a81548160ff021916908315150217905550600f600355341561002f57600080fd5b610b6b8061003e6000396000f3006060604052600436106100db576000357c0100000000000000000000000000000000000000000000000000000000900463ffffffff1680630519ce79146100e05780630a0f81681461013557806327d7874c1461018a5780632ba73c15146101c35780633f4ba83a146101fc57806347854d0f14610211578063487a6fde146102745780634e0a3379146102d75780635663896e146103105780635c975abb146103335780637a7d4937146103605780638456cb5914610389578063b047fb501461039e578063cec21acb146103f3578063e6cbe35114610440575b600080fd5b34156100eb57600080fd5b6100f3610495565b604051808273ffffffffffffffffffffffffffffffffffffffff1673ffffffffffffffffffffffffffffffffffffffff16815260200191505060405180910390f35b341561014057600080fd5b6101486104bb565b604051808273ffffffffffffffffffffffffffffffffffffffff1673ffffffffffffffffffffffffffffffffffffffff16815260200191505060405180910390f35b341561019557600080fd5b6101c1600480803573ffffffffffffffffffffffffffffffffffffffff169060200190919050506104e0565b005b34156101ce57600080fd5b6101fa600480803573ffffffffffffffffffffffffffffffffffffffff169060200190919050506105ba565b005b341561020757600080fd5b61020f610695565b005b341561021c57600080fd5b6102326004808035906020019091905050610728565b604051808273ffffffffffffffffffffffffffffffffffffffff1673ffffffffffffffffffffffffffffffffffffffff16815260200191505060405180910390f35b341561027f57600080fd5b610295600480803590602001909190505061075b565b604051808273ffffffffffffffffffffffffffffffffffffffff1673ffffffffffffffffffffffffffffffffffffffff16815260200191505060405180910390f35b34156102e257600080fd5b61030e600480803573ffffffffffffffffffffffffffffffffffffffff1690602001909190505061078e565b005b341561031b57600080fd5b6103316004808035906020019091905050610869565b005b341561033e57600080fd5b61034661097e565b604051808215151515815260200191505060405180910390f35b341561036b57600080fd5b610373610991565b6040518082815260200191505060405180910390f35b341561039457600080fd5b61039c610997565b005b34156103a957600080fd5b6103b1610adb565b604051808273ffffffffffffffffffffffffffffffffffffffff1673ffffffffffffffffffffffffffffffffffffffff16815260200191505060405180910390f35b34156103fe57600080fd5b61042a600480803573ffffffffffffffffffffffffffffffffffffffff16906020019091905050610b01565b6040518082815260200191505060405180910390f35b341561044b57600080fd5b610453610b19565b604051808273ffffffffffffffffffffffffffffffffffffffff1673ffffffffffffffffffffffffffffffffffffffff16815260200191505060405180910390f35b600160009054906101000a900473ffffffffffffffffffffffffffffffffffffffff1681565b6000809054906101000a900473ffffffffffffffffffffffffffffffffffffffff1681565b6000809054906101000a900473ffffffffffffffffffffffffffffffffffffffff1673ffffffffffffffffffffffffffffffffffffffff163373ffffffffffffffffffffffffffffffffffffffff1614151561053b57600080fd5b600073ffffffffffffffffffffffffffffffffffffffff168173ffffffffffffffffffffffffffffffffffffffff161415151561057757600080fd5b806000806101000a81548173ffffffffffffffffffffffffffffffffffffffff021916908373ffffffffffffffffffffffffffffffffffffffff16021790555050565b6000809054906101000a900473ffffffffffffffffffffffffffffffffffffffff1673ffffffffffffffffffffffffffffffffffffffff163373ffffffffffffffffffffffffffffffffffffffff1614151561061557600080fd5b600073ffffffffffffffffffffffffffffffffffffffff168173ffffffffffffffffffffffffffffffffffffffff161415151561065157600080fd5b80600260006101000a81548173ffffffffffffffffffffffffffffffffffffffff021916908373ffffffffffffffffffffffffffffffffffffffff16021790555050565b6000809054906101000a900473ffffffffffffffffffffffffffffffffffffffff1673ffffffffffffffffffffffffffffffffffffffff163373ffffffffffffffffffffffffffffffffffffffff161415156106f057600080fd5b600260149054906101000a900460ff16151561070b57600080fd5b6000600260146101000a81548160ff021916908315150217905550565b60076020528060005260406000206000915054906101000a900473ffffffffffffffffffffffffffffffffffffffff1681565b60056020528060005260406000206000915054906101000a900473ffffffffffffffffffffffffffffffffffffffff1681565b6000809054906101000a900473ffffffffffffffffffffffffffffffffffffffff1673ffffffffffffffffffffffffffffffffffffffff163373ffffffffffffffffffffffffffffffffffffffff161415156107e957600080fd5b600073ffffffffffffffffffffffffffffffffffffffff168173ffffffffffffffffffffffffffffffffffffffff161415151561082557600080fd5b80600160006101000a81548173ffffffffffffffffffffffffffffffffffffffff021916908373ffffffffffffffffffffffffffffffffffffffff16021790555050565b600260009054906101000a900473ffffffffffffffffffffffffffffffffffffffff1673ffffffffffffffffffffffffffffffffffffffff163373ffffffffffffffffffffffffffffffffffffffff16148061091157506000809054906101000a900473ffffffffffffffffffffffffffffffffffffffff1673ffffffffffffffffffffffffffffffffffffffff163373ffffffffffffffffffffffffffffffffffffffff16145b806109695750600160009054906101000a900473ffffffffffffffffffffffffffffffffffffffff1673ffffffffffffffffffffffffffffffffffffffff163373ffffffffffffffffffffffffffffffffffffffff16145b151561097457600080fd5b8060038190555050565b600260149054906101000a900460ff1681565b60035481565b600260009054906101000a900473ffffffffffffffffffffffffffffffffffffffff1673ffffffffffffffffffffffffffffffffffffffff163373ffffffffffffffffffffffffffffffffffffffff161480610a3f57506000809054906101000a900473ffffffffffffffffffffffffffffffffffffffff1673ffffffffffffffffffffffffffffffffffffffff163373ffffffffffffffffffffffffffffffffffffffff16145b80610a975750600160009054906101000a900473ffffffffffffffffffffffffffffffffffffffff1673ffffffffffffffffffffffffffffffffffffffff163373ffffffffffffffffffffffffffffffffffffffff16145b1515610aa257600080fd5b600260149054906101000a900460ff16151515610abe57600080fd5b6001600260146101000a81548160ff021916908315150217905550565b600260009054906101000a900473ffffffffffffffffffffffffffffffffffffffff1681565b60066020528060005260406000206000915090505481565b600860009054906101000a900473ffffffffffffffffffffffffffffffffffffffff16815600a165627a7a72305820fa9b7fe9cfb63d7c04851650ebef3061ec4bd3161a865ac39a208b193f3be6210029",
  "source": "pragma solidity ^0.4.16;\n\nimport \"./PictureAccessControl.sol\";\nimport \"./SaleClockAuction.sol\";\n\n/// @title Base contract for PictureChain. Holds all common structs, events and base variables.\n/// @author Mason Wong\n/// @dev See the PictureCore contract documentation to understand how the various contract facets are arranged.\ncontract PictureBase is PictureAccessControl {\n    /*** EVENTS ***/\n\n    /// @dev The Birth event is fired whenever a new picture comes into existence. This obviously\n    ///  includes any time a picture is created through the giveBirth method, but it is also called\n    ///  when a new gen0 cat is created.\n    event CreatePictureWithStyle(address owner, string hashValue, string styleHash, address styleOwner);\n\n    /// @dev The Birth event is fired whenever a new picture comes into existence. This obviously\n    ///  includes any time a picture is created through the giveBirth method, but it is also called\n    ///  when a new gen0 cat is created.\n    event CreatePictureWithArtist(address owner, string hashValue, address styleOwner);\n\n    /// @dev The Birth event is fired whenever a new picture comes into existence. This obviously\n    ///  includes any time a picture is created through the giveBirth method, but it is also called\n    ///  when a new gen0 cat is created.\n    event CreatePicture(address owner, string hashValue);\n\n    /// @dev Transfer event as defined in current draft of ERC721. Emitted every time a picture\n    ///  ownership is assigned, including births.\n    event Transfer(address from, address to, uint256 tokenId);\n\n    /*** DATA TYPES ***/\n\n    /// @dev The main Picture struct. Every picture in PictureChain is represented by a copy\n    ///  of this structure, so great care was taken to ensure that it fits neatly into\n    ///  exactly two 256-bit words. Note that the order of the members in this structure\n    ///  is important because of the byte-packing rules used by Ethereum.\n    struct Picture {\n        // The Picture's hash value is packed into these 256-bits, the format is\n        // sooper-sekret! A picture's hash value never change.\n        string hashValue;\n\n        // The timestamp from the block when this picture came into existence.\n        uint64 birthTime;\n\n        // style id to find the style owner, therefore we can inform it that his style picture was used.\n        string styleHash;\n\n        // artist is diff with maker. maker is the first owner.\n        // artist is the style of the picture used during creating in the platform\n        address styleOwner;\n\n        // the first owner of the picture, which will not been changed for ever.\n        address maker;\n    }\n\n    // An approximation of currently how many seconds are in between blocks.\n    uint256 public secondsPerBlock = 15;\n\n    /*** STORAGE ***/\n\n    /// @dev An array containing the Picture struct for all Pictures in existence. The ID\n    ///  of each cat is actually an index into this array. Note that ID 0 is a negacat,\n    ///  the unKitty, the mythical beast that is the parent of all gen0 cats. A bizarre\n    ///  creature that is both matron and sire... to itself! Has an invalid genetic code.\n    ///  In other words, cat ID 0 is invalid... ;-)\n    Picture[] pictures;\n\n    /// @dev A mapping from cat IDs to the address that owns them. All pictures have\n    ///  some valid owner address, even gen0 cats are created with a non-zero owner.\n    mapping (uint256 => address) public pictureIndexToOwner;\n\n    // @dev A mapping from owner address to count of tokens that address owns.\n    //  Used internally inside balanceOf() to resolve ownership count.\n    mapping (address => uint256) public ownershipTokenCount;\n\n    /// @dev A mapping from PictureIDs to an address that has been approved to call\n    ///  transferFrom(). Each Picture can only have one approved address for transfer\n    ///  at any time. A zero value means no approval is outstanding.\n    mapping (uint256 => address) public pictureIndexToApproved;\n\n    /// @dev The address of the ClockAuction contract that handles sales of Pictures. This\n    ///  same contract handles both peer-to-peer sales as well as the gen0 sales which are\n    ///  initiated every 15 minutes.\n    SaleClockAuction public saleAuction;\n\n    /// @dev Assigns ownership of a specific Picture to an address.\n    function _transfer(address _from, address _to, uint256 _tokenId) internal {\n        // Since the number of picture is capped to 2^32 we can't overflow this\n        ownershipTokenCount[_to]++;\n        // transfer ownership\n        pictureIndexToOwner[_tokenId] = _to;\n        // When creating new picture _from is 0x0, but we can't account that address.\n        if (_from != address(0)) {\n            ownershipTokenCount[_from]--;\n            // clear any previously approved ownership exchange\n            delete pictureIndexToApproved[_tokenId];\n        }\n        // Emit the transfer event.\n        Transfer(_from, _to, _tokenId);\n    }\n\n    /// @dev An internal method that creates a new picture and stores it. This\n    ///  method doesn't do any checking and should only be called when the\n    ///  input data is known to be valid. Will generate both a CreatePictureWithStyle event\n    ///  and a Transfer event.\n    /// @param _hashValue The new picture's hash value which identify the picture in the platform\n    /// @param _styleHash The style picture's hash value, could be nil\n    /// @param _styleOwnerAdd The style picture's owner, should be stored previously since its owner could be changed.\n    /// @param _owner The inital owner of this picture, must be non-zero (except for the unKitty, ID 0)\n    function _createPictureWithStyle(\n        string _hashValue,\n        string _styleHash,\n        address _styleOwnerAdd,\n        address _owner\n    )\n        internal\n        returns (uint)\n    {\n        // These requires are not strictly necessary, our calling code should make\n        // sure that these conditions are never broken. However! _createPicture() is already\n        // an expensive call (for storage), and it doesn't hurt to be especially careful\n        // to ensure our data structures are always valid.\n\n        Picture memory _picture = Picture({\n            hashValue: _hashValue,\n            birthTime: uint64(now),\n            styleHash: _styleHash,\n            styleOwner: _styleOwnerAdd,\n            maker:_owner\n        });\n        uint256 newPictureId = pictures.push(_picture) - 1;\n\n        // It's probably never going to happen, 4 billion cats is A LOT, but\n        // let's just be 100% sure we never let this happen.\n        require(newPictureId == uint256(uint32(newPictureId)));\n\n        // emit the make event\n        CreatePictureWithStyle(\n            _owner,\n            _hashValue,\n            _styleHash,\n            _styleOwnerAdd\n        );\n\n        // This will assign ownership, and also emit the Transfer event as\n        // per ERC721 draft\n        _transfer(0, _owner, newPictureId);\n\n        return newPictureId;\n    }\n\n    /// @dev An internal method that creates a new picture and stores it. This\n    ///  method doesn't do any checking and should only be called when the\n    ///  input data is known to be valid. Will generate both a Make event\n    ///  and a Transfer event.\n    /// @param _hashValue The picture's hash value.\n    /// @param _styleOwner The style model's owner - artist.\n    /// @param _owner The inital owner of this picture, must be non-zero (except for the unKitty, ID 0)\n    function _createPictureWithArtist(\n        string _hashValue,\n        address  _styleOwner,\n        address _owner\n    )\n        internal\n        returns (uint)\n    {\n        // style picture is not needed, but we need style\n        Picture memory _picture = Picture({\n            hashValue: _hashValue,\n            birthTime: uint64(now),\n            styleHash: \"\",\n            styleOwner: _styleOwner,\n            maker:_owner\n        });\n        uint256 newPictureId = pictures.push(_picture) - 1;\n\n        // It's probably never going to happen, 4 billion cats is A LOT, but\n        // let's just be 100% sure we never let this happen.\n        require(newPictureId == uint256(uint32(newPictureId)));\n\n        // emit the make event\n        CreatePictureWithArtist(\n            _owner,\n            _hashValue,\n            _styleOwner\n        );\n\n        // This will assign ownership, and also emit the Transfer event as\n        // per ERC721 draft\n        _transfer(0, _owner, newPictureId);\n\n        return newPictureId;\n    }\n\n    /// @dev An internal method that creates a new picture and stores it. This\n    ///  method doesn't do any checking and should only be called when the\n    ///  input data is known to be valid. Will generate both a Make event\n    ///  and a Transfer event.\n    /// @param _hashValue The picture's hash value.\n    /// @param _owner The inital owner of this picture, must be non-zero (except for the unKitty, ID 0)\n    function _createPicture(\n        string _hashValue,\n        address _owner\n    )\n        internal\n        returns (uint)\n    {\n        // style picture is not needed, but we need style\n        Picture memory _picture = Picture({\n            hashValue: _hashValue,\n            birthTime: uint64(now),\n            styleHash: \"\",\n            styleOwner: address(0),\n            maker:_owner\n        });\n        uint256 newPictureId = pictures.push(_picture) - 1;\n\n        // It's probably never going to happen, 4 billion cats is A LOT, but\n        // let's just be 100% sure we never let this happen.\n        require(newPictureId == uint256(uint32(newPictureId)));\n\n        // emit the make event\n        CreatePicture(\n            _owner,\n            _hashValue\n        );\n\n        // This will assign ownership, and also emit the Transfer event as\n        // per ERC721 draft\n        _transfer(0, _owner, newPictureId);\n\n        return newPictureId;\n    }\n\n    // Any C-level can fix how many seconds per blocks are currently observed.\n    function setSecondsPerBlock(uint256 secs) external onlyCLevel {\n        //require(secs < cooldowns[0]);\n        secondsPerBlock = secs;\n    }\n}\n",
  "sourcePath": "/Users/blockchain/work/code/elforce/Auction/client/contracts/PictureBase.sol",
  "compiler": {
    "name": "solc",
    "version": "0.4.18+commit.9cf6e910.Emscripten.clang"
  },
  "schemaVersion": "1.0.1",
  "updatedAt": "2018-05-14T06:27:08.040Z"
}