{
  "contractName": "SaleClockAuction",
  "abi": [
    {
      "constant": false,
      "inputs": [],
      "name": "unpause",
      "outputs": [
        {
          "name": "",
          "type": "bool"
        }
      ],
      "payable": false,
      "stateMutability": "nonpayable",
      "type": "function"
    },
    {
      "constant": false,
      "inputs": [
        {
          "name": "_tokenId",
          "type": "uint256"
        }
      ],
      "name": "bid",
      "outputs": [],
      "payable": true,
      "stateMutability": "payable",
      "type": "function"
    },
    {
      "constant": true,
      "inputs": [
        {
          "name": "",
          "type": "uint256"
        }
      ],
      "name": "lastGen0SalePrices",
      "outputs": [
        {
          "name": "",
          "type": "uint256"
        }
      ],
      "payable": false,
      "stateMutability": "view",
      "type": "function"
    },
    {
      "constant": true,
      "inputs": [],
      "name": "paused",
      "outputs": [
        {
          "name": "",
          "type": "bool"
        }
      ],
      "payable": false,
      "stateMutability": "view",
      "type": "function"
    },
    {
      "constant": false,
      "inputs": [],
      "name": "withdrawBalance",
      "outputs": [],
      "payable": false,
      "stateMutability": "nonpayable",
      "type": "function"
    },
    {
      "constant": false,
      "inputs": [
        {
          "name": "_tokenId",
          "type": "uint256"
        },
        {
          "name": "_auctionType",
          "type": "uint256"
        },
        {
          "name": "_price",
          "type": "uint256"
        },
        {
          "name": "_commission",
          "type": "uint256"
        },
        {
          "name": "_brokerage",
          "type": "uint256"
        },
        {
          "name": "_styleOwner",
          "type": "address"
        },
        {
          "name": "_duration",
          "type": "uint256"
        },
        {
          "name": "_seller",
          "type": "address"
        }
      ],
      "name": "createAuction",
      "outputs": [],
      "payable": false,
      "stateMutability": "nonpayable",
      "type": "function"
    },
    {
      "constant": true,
      "inputs": [
        {
          "name": "_tokenId",
          "type": "uint256"
        }
      ],
      "name": "getAuction",
      "outputs": [
        {
          "name": "seller",
          "type": "address"
        },
        {
          "name": "auctionType",
          "type": "uint256"
        },
        {
          "name": "price",
          "type": "uint256"
        },
        {
          "name": "bidder",
          "type": "address"
        },
        {
          "name": "commission",
          "type": "uint256"
        },
        {
          "name": "brokerage",
          "type": "uint256"
        },
        {
          "name": "styleOwner",
          "type": "address"
        },
        {
          "name": "duration",
          "type": "uint256"
        },
        {
          "name": "startedAt",
          "type": "uint256"
        }
      ],
      "payable": false,
      "stateMutability": "view",
      "type": "function"
    },
    {
      "constant": false,
      "inputs": [
        {
          "name": "_tokenId",
          "type": "uint256"
        }
      ],
      "name": "buyItNow",
      "outputs": [],
      "payable": true,
      "stateMutability": "payable",
      "type": "function"
    },
    {
      "constant": false,
      "inputs": [],
      "name": "pause",
      "outputs": [
        {
          "name": "",
          "type": "bool"
        }
      ],
      "payable": false,
      "stateMutability": "nonpayable",
      "type": "function"
    },
    {
      "constant": true,
      "inputs": [],
      "name": "isSaleClockAuction",
      "outputs": [
        {
          "name": "",
          "type": "bool"
        }
      ],
      "payable": false,
      "stateMutability": "view",
      "type": "function"
    },
    {
      "constant": false,
      "inputs": [
        {
          "name": "_tokenId",
          "type": "uint256"
        }
      ],
      "name": "cancelAuctionWhenPaused",
      "outputs": [],
      "payable": false,
      "stateMutability": "nonpayable",
      "type": "function"
    },
    {
      "constant": true,
      "inputs": [],
      "name": "gen0SaleCount",
      "outputs": [
        {
          "name": "",
          "type": "uint256"
        }
      ],
      "payable": false,
      "stateMutability": "view",
      "type": "function"
    },
    {
      "constant": false,
      "inputs": [
        {
          "name": "_tokenId",
          "type": "uint256"
        }
      ],
      "name": "confirmBid",
      "outputs": [],
      "payable": true,
      "stateMutability": "payable",
      "type": "function"
    },
    {
      "constant": true,
      "inputs": [],
      "name": "owner",
      "outputs": [
        {
          "name": "",
          "type": "address"
        }
      ],
      "payable": false,
      "stateMutability": "view",
      "type": "function"
    },
    {
      "constant": false,
      "inputs": [
        {
          "name": "_tokenId",
          "type": "uint256"
        }
      ],
      "name": "cancelAuctionFromSeller",
      "outputs": [],
      "payable": false,
      "stateMutability": "nonpayable",
      "type": "function"
    },
    {
      "constant": true,
      "inputs": [
        {
          "name": "_tokenId",
          "type": "uint256"
        }
      ],
      "name": "getCurrentPrice",
      "outputs": [
        {
          "name": "",
          "type": "uint256"
        }
      ],
      "payable": false,
      "stateMutability": "view",
      "type": "function"
    },
    {
      "constant": false,
      "inputs": [
        {
          "name": "_tokenId",
          "type": "uint256"
        }
      ],
      "name": "cancelAuctionFromBidder",
      "outputs": [],
      "payable": false,
      "stateMutability": "nonpayable",
      "type": "function"
    },
    {
      "constant": false,
      "inputs": [
        {
          "name": "_tokenId",
          "type": "uint256"
        }
      ],
      "name": "confirmBuy",
      "outputs": [],
      "payable": true,
      "stateMutability": "payable",
      "type": "function"
    },
    {
      "constant": true,
      "inputs": [],
      "name": "nonFungibleContract",
      "outputs": [
        {
          "name": "",
          "type": "address"
        }
      ],
      "payable": false,
      "stateMutability": "view",
      "type": "function"
    },
    {
      "constant": true,
      "inputs": [],
      "name": "averageGen0SalePrice",
      "outputs": [
        {
          "name": "",
          "type": "uint256"
        }
      ],
      "payable": false,
      "stateMutability": "view",
      "type": "function"
    },
    {
      "constant": false,
      "inputs": [
        {
          "name": "newOwner",
          "type": "address"
        }
      ],
      "name": "transferOwnership",
      "outputs": [],
      "payable": false,
      "stateMutability": "nonpayable",
      "type": "function"
    },
    {
      "inputs": [
        {
          "name": "_nftAddr",
          "type": "address"
        }
      ],
      "payable": false,
      "stateMutability": "nonpayable",
      "type": "constructor"
    },
    {
      "anonymous": false,
      "inputs": [
        {
          "indexed": false,
          "name": "tokenId",
          "type": "uint256"
        },
        {
          "indexed": false,
          "name": "price",
          "type": "uint256"
        },
        {
          "indexed": false,
          "name": "duration",
          "type": "uint256"
        },
        {
          "indexed": false,
          "name": "styleOwner",
          "type": "address"
        },
        {
          "indexed": false,
          "name": "brokerage",
          "type": "uint256"
        }
      ],
      "name": "AuctionCreated",
      "type": "event"
    },
    {
      "anonymous": false,
      "inputs": [
        {
          "indexed": false,
          "name": "tokenId",
          "type": "uint256"
        },
        {
          "indexed": false,
          "name": "totalPrice",
          "type": "uint256"
        },
        {
          "indexed": false,
          "name": "winner",
          "type": "address"
        },
        {
          "indexed": false,
          "name": "styleOwner",
          "type": "address"
        },
        {
          "indexed": false,
          "name": "brokerage",
          "type": "uint256"
        }
      ],
      "name": "ConfirmAuction",
      "type": "event"
    },
    {
      "anonymous": false,
      "inputs": [
        {
          "indexed": false,
          "name": "tokenId",
          "type": "uint256"
        },
        {
          "indexed": false,
          "name": "newPrice",
          "type": "uint256"
        },
        {
          "indexed": false,
          "name": "bidder",
          "type": "address"
        }
      ],
      "name": "Bid",
      "type": "event"
    },
    {
      "anonymous": false,
      "inputs": [
        {
          "indexed": false,
          "name": "tokenId",
          "type": "uint256"
        },
        {
          "indexed": false,
          "name": "prePrice",
          "type": "uint256"
        },
        {
          "indexed": false,
          "name": "preBidder",
          "type": "address"
        }
      ],
      "name": "PayBack",
      "type": "event"
    },
    {
      "anonymous": false,
      "inputs": [
        {
          "indexed": false,
          "name": "tokenId",
          "type": "uint256"
        },
        {
          "indexed": false,
          "name": "price",
          "type": "uint256"
        },
        {
          "indexed": false,
          "name": "buyer",
          "type": "address"
        }
      ],
      "name": "WantoToBuy",
      "type": "event"
    },
    {
      "anonymous": false,
      "inputs": [
        {
          "indexed": false,
          "name": "tokenId",
          "type": "uint256"
        },
        {
          "indexed": false,
          "name": "price",
          "type": "uint256"
        },
        {
          "indexed": false,
          "name": "buyer",
          "type": "address"
        },
        {
          "indexed": false,
          "name": "styleOwner",
          "type": "address"
        },
        {
          "indexed": false,
          "name": "brokerage",
          "type": "uint256"
        }
      ],
      "name": "Buy",
      "type": "event"
    },
    {
      "anonymous": false,
      "inputs": [
        {
          "indexed": false,
          "name": "tokenId",
          "type": "uint256"
        },
        {
          "indexed": false,
          "name": "expNumber",
          "type": "uint256"
        }
      ],
      "name": "SetExpNumber",
      "type": "event"
    },
    {
      "anonymous": false,
      "inputs": [
        {
          "indexed": false,
          "name": "tokenId",
          "type": "uint256"
        }
      ],
      "name": "AuctionCancelled",
      "type": "event"
    },
    {
      "anonymous": false,
      "inputs": [],
      "name": "Pause",
      "type": "event"
    },
    {
      "anonymous": false,
      "inputs": [],
      "name": "Unpause",
      "type": "event"
    }
  ],
  "bytecode": "0x606060405260008060146101000a81548160ff0219169083151502179055506001600360006101000a81548160ff021916908315150217905550341561004457600080fd5b6040516020806128f683398101604052808051906020019091905050806000336000806101000a81548173ffffffffffffffffffffffffffffffffffffffff021916908373ffffffffffffffffffffffffffffffffffffffff1602179055508190508073ffffffffffffffffffffffffffffffffffffffff166301ffc9a7639a20483d7c0100000000000000000000000000000000000000000000000000000000026000604051602001526040518263ffffffff167c010000000000000000000000000000000000000000000000000000000002815260040180827bffffffffffffffffffffffffffffffffffffffffffffffffffffffff19167bffffffffffffffffffffffffffffffffffffffffffffffffffffffff19168152602001915050602060405180830381600087803b151561017e57600080fd5b6102c65a03f1151561018f57600080fd5b5050506040518051905015156101a457600080fd5b80600160006101000a81548173ffffffffffffffffffffffffffffffffffffffff021916908373ffffffffffffffffffffffffffffffffffffffff1602179055505050506126ff806101f76000396000f30060606040526004361061011d576000357c0100000000000000000000000000000000000000000000000000000000900463ffffffff1680633f4ba83a14610122578063454a2ab31461014f578063484eccb4146101675780635c975abb1461019e5780635fd8c710146101cb5780636c3f8088146101e057806378bd79351461026e5780637f9082d0146103615780638456cb591461037957806385b86188146103a6578063878eb368146103d35780638a98a9cc146103f65780638c488d301461041f5780638da5cb5b14610437578063b945e3791461048c578063c55d0f56146104af578063c9abbf07146104e6578063ca0d11f014610509578063dd1b7a0f14610521578063eac9d94c14610576578063f2fde38b1461059f575b600080fd5b341561012d57600080fd5b6101356105d8565b604051808215151515815260200191505060405180910390f35b610165600480803590602001909190505061069d565b005b341561017257600080fd5b61018860048080359060200190919050506106ab565b6040518082815260200191505060405180910390f35b34156101a957600080fd5b6101b16106c5565b604051808215151515815260200191505060405180910390f35b34156101d657600080fd5b6101de6106d8565b005b34156101eb57600080fd5b61026c600480803590602001909190803590602001909190803590602001909190803590602001909190803590602001909190803573ffffffffffffffffffffffffffffffffffffffff1690602001909190803590602001909190803573ffffffffffffffffffffffffffffffffffffffff169060200190919050506107ea565b005b341561027957600080fd5b61028f60048080359060200190919050506109e9565b604051808a73ffffffffffffffffffffffffffffffffffffffff1673ffffffffffffffffffffffffffffffffffffffff1681526020018981526020018881526020018773ffffffffffffffffffffffffffffffffffffffff1673ffffffffffffffffffffffffffffffffffffffff1681526020018681526020018581526020018473ffffffffffffffffffffffffffffffffffffffff1673ffffffffffffffffffffffffffffffffffffffff168152602001838152602001828152602001995050505050505050505060405180910390f35b6103776004808035906020019091905050610bd4565b005b341561038457600080fd5b61038c610be1565b604051808215151515815260200191505060405180910390f35b34156103b157600080fd5b6103b9610ca8565b604051808215151515815260200191505060405180910390f35b34156103de57600080fd5b6103f46004808035906020019091905050610cbb565b005b341561040157600080fd5b610409610d68565b6040518082815260200191505060405180910390f35b6104356004808035906020019091905050610d6e565b005b341561044257600080fd5b61044a610dc1565b604051808273ffffffffffffffffffffffffffffffffffffffff1673ffffffffffffffffffffffffffffffffffffffff16815260200191505060405180910390f35b341561049757600080fd5b6104ad6004808035906020019091905050610de6565b005b34156104ba57600080fd5b6104d06004808035906020019091905050610edb565b6040518082815260200191505060405180910390f35b34156104f157600080fd5b6105076004808035906020019091905050610f2a565b005b61051f6004808035906020019091905050610fc0565b005b341561052c57600080fd5b610534611013565b604051808273ffffffffffffffffffffffffffffffffffffffff1673ffffffffffffffffffffffffffffffffffffffff16815260200191505060405180910390f35b341561058157600080fd5b610589611039565b6040518082815260200191505060405180910390f35b34156105aa57600080fd5b6105d6600480803573ffffffffffffffffffffffffffffffffffffffff16906020019091905050611085565b005b60008060009054906101000a900473ffffffffffffffffffffffffffffffffffffffff1673ffffffffffffffffffffffffffffffffffffffff163373ffffffffffffffffffffffffffffffffffffffff1614151561063557600080fd5b600060149054906101000a900460ff16151561065057600080fd5b60008060146101000a81548160ff0219169083151502179055507f7805862f689e2f13df9f062ff482ad3ad112aca9e0847911ed832e158c525b3360405160405180910390a16001905090565b6106a7813461115a565b5050565b6005816005811015156106ba57fe5b016000915090505481565b600060149054906101000a900460ff1681565b6000600160009054906101000a900473ffffffffffffffffffffffffffffffffffffffff1690506000809054906101000a900473ffffffffffffffffffffffffffffffffffffffff1673ffffffffffffffffffffffffffffffffffffffff163373ffffffffffffffffffffffffffffffffffffffff16148061078557508073ffffffffffffffffffffffffffffffffffffffff163373ffffffffffffffffffffffffffffffffffffffff16145b151561079057600080fd5b8073ffffffffffffffffffffffffffffffffffffffff166108fc3073ffffffffffffffffffffffffffffffffffffffff16319081150290604051600060405180830381858888f1935050505015156107e757600080fd5b50565b6107f26125c6565b866fffffffffffffffffffffffffffffffff168714151561081257600080fd5b856fffffffffffffffffffffffffffffffff168614151561083257600080fd5b846fffffffffffffffffffffffffffffffff168514151561085257600080fd5b8267ffffffffffffffff168314151561086a57600080fd5b600160009054906101000a900473ffffffffffffffffffffffffffffffffffffffff1673ffffffffffffffffffffffffffffffffffffffff163373ffffffffffffffffffffffffffffffffffffffff161415156108c657600080fd5b6108d0828a61145a565b610160604051908101604052808373ffffffffffffffffffffffffffffffffffffffff168152602001896fffffffffffffffffffffffffffffffff168152602001886fffffffffffffffffffffffffffffffff168152602001600073ffffffffffffffffffffffffffffffffffffffff168152602001876fffffffffffffffffffffffffffffffff168152602001866fffffffffffffffffffffffffffffffff1681526020018573ffffffffffffffffffffffffffffffffffffffff1681526020018467ffffffffffffffff1681526020014267ffffffffffffffff16815260200160001515815260200160006fffffffffffffffffffffffffffffffff1681525090506109de898261156a565b505050505050505050565b600080600080600080600080600080600260008c81526020019081526020016000209050610a16816118f5565b1515610a2157600080fd5b8060000160009054906101000a900473ffffffffffffffffffffffffffffffffffffffff168160010160009054906101000a90046fffffffffffffffffffffffffffffffff168260010160109054906101000a90046fffffffffffffffffffffffffffffffff168360020160009054906101000a900473ffffffffffffffffffffffffffffffffffffffff168460030160009054906101000a90046fffffffffffffffffffffffffffffffff168560030160109054906101000a90046fffffffffffffffffffffffffffffffff168660040160009054906101000a900473ffffffffffffffffffffffffffffffffffffffff168760040160149054906101000a900467ffffffffffffffff168860050160009054906101000a900467ffffffffffffffff16876fffffffffffffffffffffffffffffffff169750866fffffffffffffffffffffffffffffffff169650846fffffffffffffffffffffffffffffffff169450836fffffffffffffffffffffffffffffffff1693508167ffffffffffffffff1691508067ffffffffffffffff169050995099509950995099509950995099509950509193959799909294969850565b610bdd81611923565b5050565b60008060009054906101000a900473ffffffffffffffffffffffffffffffffffffffff1673ffffffffffffffffffffffffffffffffffffffff163373ffffffffffffffffffffffffffffffffffffffff16141515610c3e57600080fd5b600060149054906101000a900460ff16151515610c5a57600080fd5b6001600060146101000a81548160ff0219169083151502179055507f6985a02210a168e66602d3235cb6db0e70f92b3ba4d376a33c0f3d9434bff62560405160405180910390a16001905090565b600360009054906101000a900460ff1681565b60008060149054906101000a900460ff161515610cd757600080fd5b6000809054906101000a900473ffffffffffffffffffffffffffffffffffffffff1673ffffffffffffffffffffffffffffffffffffffff163373ffffffffffffffffffffffffffffffffffffffff16141515610d3257600080fd5b600260008381526020019081526020016000209050610d50816118f5565b1515610d5b57600080fd5b610d6482611a9f565b5050565b60045481565b60006002600083815260200190815260200160002060000160009054906101000a900473ffffffffffffffffffffffffffffffffffffffff169050610db282611c05565b50610dbd3383611e92565b5050565b6000809054906101000a900473ffffffffffffffffffffffffffffffffffffffff1681565b6000600260008381526020019081526020016000209050610e0681611f6e565b1515610e1157600080fd5b600073ffffffffffffffffffffffffffffffffffffffff168160020160009054906101000a900473ffffffffffffffffffffffffffffffffffffffff1673ffffffffffffffffffffffffffffffffffffffff16141515610e7057600080fd5b8060000160009054906101000a900473ffffffffffffffffffffffffffffffffffffffff1673ffffffffffffffffffffffffffffffffffffffff163373ffffffffffffffffffffffffffffffffffffffff16141515610ece57600080fd5b610ed782611a9f565b5050565b600080600260008481526020019081526020016000209050610efc816118f5565b1515610f0757600080fd5b610f1081611fed565b6fffffffffffffffffffffffffffffffff16915050919050565b6000600260008381526020019081526020016000209050610f4a81612017565b1515610f5557600080fd5b3373ffffffffffffffffffffffffffffffffffffffff168160020160009054906101000a900473ffffffffffffffffffffffffffffffffffffffff1673ffffffffffffffffffffffffffffffffffffffff16141515610fb357600080fd5b610fbc82611a9f565b5050565b60006002600083815260200190815260200160002060000160009054906101000a900473ffffffffffffffffffffffffffffffffffffffff1690506110048261206a565b5061100f3383611e92565b5050565b600160009054906101000a900473ffffffffffffffffffffffffffffffffffffffff1681565b6000806000809150600090505b60058110156110715760058160058110151561105e57fe5b0154820191508080600101915050611046565b60058281151561107d57fe5b049250505090565b6000809054906101000a900473ffffffffffffffffffffffffffffffffffffffff1673ffffffffffffffffffffffffffffffffffffffff163373ffffffffffffffffffffffffffffffffffffffff161415156110e057600080fd5b600073ffffffffffffffffffffffffffffffffffffffff168173ffffffffffffffffffffffffffffffffffffffff1614151561115757806000806101000a81548173ffffffffffffffffffffffffffffffffffffffff021916908373ffffffffffffffffffffffffffffffffffffffff1602179055505b50565b600080600080600260008781526020019081526020016000209250846fffffffffffffffffffffffffffffffff168514151561119557600080fd5b61119e83611f6e565b15156111a957600080fd5b6111b283611fed565b91508260020160009054906101000a900473ffffffffffffffffffffffffffffffffffffffff1690503373ffffffffffffffffffffffffffffffffffffffff168173ffffffffffffffffffffffffffffffffffffffff161415151561121657600080fd5b816fffffffffffffffffffffffffffffffff168511156113db57338360020160006101000a81548173ffffffffffffffffffffffffffffffffffffffff021916908373ffffffffffffffffffffffffffffffffffffffff160217905550848360010160106101000a8154816fffffffffffffffffffffffffffffffff02191690836fffffffffffffffffffffffffffffffff1602179055506000826fffffffffffffffffffffffffffffffff161180156112fd5750600073ffffffffffffffffffffffffffffffffffffffff168173ffffffffffffffffffffffffffffffffffffffff1614155b156113da578073ffffffffffffffffffffffffffffffffffffffff166108fc836fffffffffffffffffffffffffffffffff169081150290604051600060405180830381858888f19350505050151561135457600080fd5b7f82adba23b9949d9e0e482a84776f715ea037078dcce4ab84c37b0a37601403cd86838360405180848152602001836fffffffffffffffffffffffffffffffff1681526020018273ffffffffffffffffffffffffffffffffffffffff1673ffffffffffffffffffffffffffffffffffffffff168152602001935050505060405180910390a15b5b7ffd7cfbd219ff1e7365436fb2930a026fa6704a1e0bb39ad104f0485c8c01124d868633604051808481526020018381526020018273ffffffffffffffffffffffffffffffffffffffff1673ffffffffffffffffffffffffffffffffffffffff168152602001935050505060405180910390a184935050505092915050565b600160009054906101000a900473ffffffffffffffffffffffffffffffffffffffff1673ffffffffffffffffffffffffffffffffffffffff166323b872dd8330846040518463ffffffff167c0100000000000000000000000000000000000000000000000000000000028152600401808473ffffffffffffffffffffffffffffffffffffffff1673ffffffffffffffffffffffffffffffffffffffff1681526020018373ffffffffffffffffffffffffffffffffffffffff1673ffffffffffffffffffffffffffffffffffffffff1681526020018281526020019350505050600060405180830381600087803b151561155257600080fd5b6102c65a03f1151561156357600080fd5b5050505050565b603c8160e0015167ffffffffffffffff161015151561158857600080fd5b806002600084815260200190815260200160002060008201518160000160006101000a81548173ffffffffffffffffffffffffffffffffffffffff021916908373ffffffffffffffffffffffffffffffffffffffff16021790555060208201518160010160006101000a8154816fffffffffffffffffffffffffffffffff02191690836fffffffffffffffffffffffffffffffff16021790555060408201518160010160106101000a8154816fffffffffffffffffffffffffffffffff02191690836fffffffffffffffffffffffffffffffff16021790555060608201518160020160006101000a81548173ffffffffffffffffffffffffffffffffffffffff021916908373ffffffffffffffffffffffffffffffffffffffff16021790555060808201518160030160006101000a8154816fffffffffffffffffffffffffffffffff02191690836fffffffffffffffffffffffffffffffff16021790555060a08201518160030160106101000a8154816fffffffffffffffffffffffffffffffff02191690836fffffffffffffffffffffffffffffffff16021790555060c08201518160040160006101000a81548173ffffffffffffffffffffffffffffffffffffffff021916908373ffffffffffffffffffffffffffffffffffffffff16021790555060e08201518160040160146101000a81548167ffffffffffffffff021916908367ffffffffffffffff1602179055506101008201518160050160006101000a81548167ffffffffffffffff021916908367ffffffffffffffff1602179055506101208201518160050160086101000a81548160ff0219169083151502179055506101408201518160050160096101000a8154816fffffffffffffffffffffffffffffffff02191690836fffffffffffffffffffffffffffffffff1602179055509050507f1c415e83c44e69f6b0970296ea95abb97828b02dad15de7e59f68a40a522395f8282604001516fffffffffffffffffffffffffffffffff168360e0015167ffffffffffffffff168460c001518560a001516fffffffffffffffffffffffffffffffff16604051808681526020018581526020018481526020018373ffffffffffffffffffffffffffffffffffffffff1673ffffffffffffffffffffffffffffffffffffffff1681526020018281526020019550505050505060405180910390a15050565b6000808260050160009054906101000a900467ffffffffffffffff1667ffffffffffffffff16119050919050565b600080600060026000858152602001908152602001600020915061194682611f6e565b151561195157600080fd5b600073ffffffffffffffffffffffffffffffffffffffff168260020160009054906101000a900473ffffffffffffffffffffffffffffffffffffffff1673ffffffffffffffffffffffffffffffffffffffff161415156119b057600080fd5b338260020160006101000a81548173ffffffffffffffffffffffffffffffffffffffff021916908373ffffffffffffffffffffffffffffffffffffffff1602179055506119fc82611fed565b90507fb61b71d087aa9f61ed8aacf52978e338a0def076f003f6024ea6ca83496d9e7284823360405180848152602001836fffffffffffffffffffffffffffffffff1681526020018273ffffffffffffffffffffffffffffffffffffffff1673ffffffffffffffffffffffffffffffffffffffff168152602001935050505060405180910390a1806fffffffffffffffffffffffffffffffff1692505050919050565b6000806000806002600086815260200190815260200160002093508360000160009054906101000a900473ffffffffffffffffffffffffffffffffffffffff1692508360020160009054906101000a900473ffffffffffffffffffffffffffffffffffffffff1691508360010160109054906101000a90046fffffffffffffffffffffffffffffffff169050611b3485612306565b611b3e8386611e92565b600073ffffffffffffffffffffffffffffffffffffffff168273ffffffffffffffffffffffffffffffffffffffff16141515611bc7578173ffffffffffffffffffffffffffffffffffffffff166108fc826fffffffffffffffffffffffffffffffff169081150290604051600060405180830381858888f193505050501515611bc657600080fd5b5b7f2809c7e17bf978fbc7194c0a694b638c4215e9140cacc6c38ca36010b45697df856040518082815260200191505060405180910390a15050505050565b600080600080600080600080600260008a81526020019081526020016000209650611c2f87612017565b1515611c3a57600080fd5b611c4387611fed565b95508660020160009054906101000a900473ffffffffffffffffffffffffffffffffffffffff16945060008573ffffffffffffffffffffffffffffffffffffffff1614151515611c9257600080fd5b8660030160009054906101000a90046fffffffffffffffffffffffffffffffff169350612710846fffffffffffffffffffffffffffffffff1611151515611cd857600080fd5b8660000160009054906101000a900473ffffffffffffffffffffffffffffffffffffffff1692508660040160009054906101000a900473ffffffffffffffffffffffffffffffffffffffff1691508660030160109054906101000a90046fffffffffffffffffffffffffffffffff169050612710816fffffffffffffffffffffffffffffffff1611151515611d6c57600080fd5b611d7589612306565b6000866fffffffffffffffffffffffffffffffff161115611d9e57611d9d838786848661248d565b5b7f949be35ba9096107ac1a249ef88612e20fb540a33183d99d5a5536dc764cf4b5898733858560405180868152602001856fffffffffffffffffffffffffffffffff1681526020018473ffffffffffffffffffffffffffffffffffffffff1673ffffffffffffffffffffffffffffffffffffffff1681526020018373ffffffffffffffffffffffffffffffffffffffff1673ffffffffffffffffffffffffffffffffffffffff168152602001826fffffffffffffffffffffffffffffffff1681526020019550505050505060405180910390a1856fffffffffffffffffffffffffffffffff16975050505050505050919050565b600160009054906101000a900473ffffffffffffffffffffffffffffffffffffffff1673ffffffffffffffffffffffffffffffffffffffff1663a9059cbb83836040518363ffffffff167c0100000000000000000000000000000000000000000000000000000000028152600401808373ffffffffffffffffffffffffffffffffffffffff1673ffffffffffffffffffffffffffffffffffffffff16815260200182815260200192505050600060405180830381600087803b1515611f5657600080fd5b6102c65a03f11515611f6757600080fd5b5050505050565b6000808260050160009054906101000a900467ffffffffffffffff1667ffffffffffffffff16118015611fe657508160040160149054906101000a900467ffffffffffffffff168260050160009054906101000a900467ffffffffffffffff160167ffffffffffffffff164267ffffffffffffffff16105b9050919050565b60008160010160109054906101000a90046fffffffffffffffffffffffffffffffff169050919050565b60008160040160149054906101000a900467ffffffffffffffff168260050160009054906101000a900467ffffffffffffffff160167ffffffffffffffff164267ffffffffffffffff1610159050919050565b600080600080600080600060026000898152602001908152602001600020955061209386611f6e565b151561209e57600080fd5b3373ffffffffffffffffffffffffffffffffffffffff168660020160009054906101000a900473ffffffffffffffffffffffffffffffffffffffff1673ffffffffffffffffffffffffffffffffffffffff161415156120fc57600080fd5b61210586611fed565b94508560030160009054906101000a90046fffffffffffffffffffffffffffffffff169350612710846fffffffffffffffffffffffffffffffff161115151561214d57600080fd5b8560000160009054906101000a900473ffffffffffffffffffffffffffffffffffffffff1692508560040160009054906101000a900473ffffffffffffffffffffffffffffffffffffffff1691508560030160109054906101000a90046fffffffffffffffffffffffffffffffff169050612710816fffffffffffffffffffffffffffffffff16111515156121e157600080fd5b6121ea88612306565b6000856fffffffffffffffffffffffffffffffff16111561221357612212838686848661248d565b5b7ff7af8fb316f3a41b7db460c51be9f487d7f75844a791ee49f15d5a00063ed263888633858560405180868152602001856fffffffffffffffffffffffffffffffff1681526020018473ffffffffffffffffffffffffffffffffffffffff1673ffffffffffffffffffffffffffffffffffffffff1681526020018373ffffffffffffffffffffffffffffffffffffffff1673ffffffffffffffffffffffffffffffffffffffff168152602001826fffffffffffffffffffffffffffffffff1681526020019550505050505060405180910390a1846fffffffffffffffffffffffffffffffff169650505050505050919050565b60026000828152602001908152602001600020600080820160006101000a81549073ffffffffffffffffffffffffffffffffffffffff02191690556001820160006101000a8154906fffffffffffffffffffffffffffffffff02191690556001820160106101000a8154906fffffffffffffffffffffffffffffffff02191690556002820160006101000a81549073ffffffffffffffffffffffffffffffffffffffff02191690556003820160006101000a8154906fffffffffffffffffffffffffffffffff02191690556003820160106101000a8154906fffffffffffffffffffffffffffffffff02191690556004820160006101000a81549073ffffffffffffffffffffffffffffffffffffffff02191690556004820160146101000a81549067ffffffffffffffff02191690556005820160006101000a81549067ffffffffffffffff02191690556005820160086101000a81549060ff02191690556005820160096101000a8154906fffffffffffffffffffffffffffffffff0219169055505050565b6000806127108487026fffffffffffffffffffffffffffffffff168115156124b157fe5b046127108688026fffffffffffffffffffffffffffffffff168115156124d357fe5b048703036fffffffffffffffffffffffffffffffff1691508673ffffffffffffffffffffffffffffffffffffffff166108fc839081150290604051600060405180830381858888f19350505050151561252b57600080fd5b6000846fffffffffffffffffffffffffffffffff1611156125bd576127108685026fffffffffffffffffffffffffffffffff1681151561256757fe5b046fffffffffffffffffffffffffffffffff1690508273ffffffffffffffffffffffffffffffffffffffff166108fc829081150290604051600060405180830381858888f1935050505015156125bc57600080fd5b5b50505050505050565b61016060405190810160405280600073ffffffffffffffffffffffffffffffffffffffff16815260200160006fffffffffffffffffffffffffffffffff16815260200160006fffffffffffffffffffffffffffffffff168152602001600073ffffffffffffffffffffffffffffffffffffffff16815260200160006fffffffffffffffffffffffffffffffff16815260200160006fffffffffffffffffffffffffffffffff168152602001600073ffffffffffffffffffffffffffffffffffffffff168152602001600067ffffffffffffffff168152602001600067ffffffffffffffff16815260200160001515815260200160006fffffffffffffffffffffffffffffffff16815250905600a165627a7a7230582029baa3af483eb6395a5e6e8dd83ac14a5539b16d631b61bb80a5c71883dd430b0029",
  "source": "/// @title Clock auction modified for sale of kitties\n/// @notice We omit a fallback function to prevent accidental sends to this contract.\npragma solidity ^0.4.16;\n\nimport \"./ClockAuction.sol\";\n\ncontract SaleClockAuction is ClockAuction {\n\n    // @dev Sanity check that allows us to ensure that we are pointing to the\n    //  right auction in our setSaleAuctionAddress() call.\n    bool public isSaleClockAuction = true;\n\n    // Tracks last 5 sale price of gen0 kitty sales\n    uint256 public gen0SaleCount;\n    uint256[5] public lastGen0SalePrices;\n\n    // Delegate constructor\n    function SaleClockAuction(address _nftAddr) public\n        ClockAuction(_nftAddr) {}\n\n    /// @dev Creates and begins a new auction.\n    /// @param _tokenId - ID of token to auction, sender must be owner.\n    /// @param _price - Price of item (in wei) at beginning of auction.\n    /// @param _duration - Length of auction (in seconds).\n    /// @param _seller - Seller, if not the message sender\n    function createAuction(\n        uint256 _tokenId,\n        uint256 _auctionType,\n        uint256 _price,\n        uint256 _commission,\n        uint256 _brokerage,\n        address _styleOwner,\n        uint256 _duration,\n        address _seller//,\n        //bool    _isGoods\n    )\n        external\n    {\n        // Sanity check that no inputs overflow how many bits we've allocated\n        // to store them in the auction struct.\n        require(_price == uint256(uint128(_price)));\n        require(_commission == uint256(uint128(_commission)));\n        require(_brokerage == uint256(uint128(_brokerage)));\n        require(_duration == uint256(uint64(_duration)));\n\n        require(msg.sender == address(nonFungibleContract));\n\n        _escrow(_seller, _tokenId);\n\n        Auction memory auction = Auction(\n            _seller,\n            uint128(_auctionType),\n            uint128(_price),\n            address(0),\n            uint128(_commission),\n            uint128(_brokerage),\n            _styleOwner,\n            uint64(_duration),\n            uint64(now),\n            false,\n            0\n        );\n\n        _addAuction(_tokenId, auction);\n    }\n\n    /// @dev Updates lastSalePrice if seller is the nft contract\n    /// Otherwise, works the same as default bid method.\n    function confirmBid(uint256 _tokenId)\n        external\n        payable\n    {\n        // _bid verifies token ID size\n        address seller = tokenIdToAuction[_tokenId].seller;\n        _confirmBid(_tokenId);\n        _transfer(msg.sender, _tokenId);\n    }\n\n    /// @dev Updates lastSalePrice if seller is the nft contract\n    /// Otherwise, works the same as default bid method.\n    function bid(uint256 _tokenId)\n        external\n        payable\n    {\n        // transfer the bidder and price and pay money back to the pre-bidder\n        _bid(_tokenId, msg.value);\n    }\n\n    /// @dev Updates lastSalePrice if seller is the nft contract\n    /// Otherwise, works the same as default bid method.\n    function confirmBuy(uint256 _tokenId)\n        external\n        payable\n    {\n        // _bid verifies token ID size\n        address seller = tokenIdToAuction[_tokenId].seller;\n        _confirmBuy(_tokenId);\n        _transfer(msg.sender, _tokenId);\n    }\n\n    /// @dev Updates lastSalePrice if seller is the nft contract\n    /// Otherwise, works the same as default bid method.\n    function buyItNow(uint256 _tokenId)\n        external\n        payable\n    {\n        // transfer the bidder and price and pay money back to the pre-bidder\n        _buyItNow(_tokenId);\n    }\n\n    function averageGen0SalePrice() external view returns (uint256) {\n        uint256 sum = 0;\n        for (uint256 i = 0; i < 5; i++) {\n            sum += lastGen0SalePrices[i];\n        }\n        return sum / 5;\n    }\n\n}\n",
  "sourcePath": "/Users/blockchain/work/code/elforce/Auction/client/contracts/SaleClockAuction.sol",
  "compiler": {
    "name": "solc",
    "version": "0.4.18+commit.9cf6e910.Emscripten.clang"
  },
  "schemaVersion": "1.0.1",
  "updatedAt": "2018-05-16T05:41:57.383Z"
}